{"contracts/EventLogger.sol":{"EventLogger":{"abi":[{"inputs":[],"stateMutability":"nonpayable","type":"constructor"},{"anonymous":false,"inputs":[{"indexed":true,"internalType":"uint256","name":"logId","type":"uint256"},{"indexed":true,"internalType":"uint256","name":"pipelineId","type":"uint256"},{"indexed":true,"internalType":"uint256","name":"runId","type":"uint256"},{"indexed":false,"internalType":"enum EventLogger.Stage","name":"stage","type":"uint8"},{"indexed":false,"internalType":"bytes32","name":"configHash","type":"bytes32"},{"indexed":false,"internalType":"string","name":"commitHash","type":"string"},{"indexed":false,"internalType":"string","name":"actor","type":"string"},{"indexed":false,"internalType":"address","name":"loggedBy","type":"address"},{"indexed":false,"internalType":"uint256","name":"timestamp","type":"uint256"}],"name":"CiCdEventLogged","type":"event"},{"anonymous":false,"inputs":[{"indexed":true,"internalType":"address","name":"logger","type":"address"},{"indexed":false,"internalType":"uint256","name":"timestamp","type":"uint256"}],"name":"LoggerAuthorised","type":"event"},{"anonymous":false,"inputs":[{"indexed":true,"internalType":"address","name":"logger","type":"address"},{"indexed":false,"internalType":"uint256","name":"timestamp","type":"uint256"}],"name":"LoggerRevoked","type":"event"},{"inputs":[{"internalType":"address","name":"logger","type":"address"}],"name":"authoriseLogger","outputs":[],"stateMutability":"nonpayable","type":"function"},{"inputs":[{"internalType":"address","name":"","type":"address"}],"name":"authorisedLoggers","outputs":[{"internalType":"bool","name":"","type":"bool"}],"stateMutability":"view","type":"function"},{"inputs":[{"internalType":"uint256","name":"logId","type":"uint256"}],"name":"getLogEntry","outputs":[{"components":[{"internalType":"uint256","name":"logId","type":"uint256"},{"internalType":"uint256","name":"pipelineId","type":"uint256"},{"internalType":"uint256","name":"runId","type":"uint256"},{"internalType":"enum EventLogger.Stage","name":"stage","type":"uint8"},{"internalType":"bytes32","name":"configHash","type":"bytes32"},{"internalType":"string","name":"commitHash","type":"string"},{"internalType":"string","name":"actor","type":"string"},{"internalType":"string","name":"notes","type":"string"},{"internalType":"address","name":"loggedBy","type":"address"},{"internalType":"uint256","name":"timestamp","type":"uint256"}],"internalType":"struct EventLogger.LogEntry","name":"","type":"tuple"}],"stateMutability":"view","type":"function"},{"inputs":[{"internalType":"uint256","name":"pipelineId","type":"uint256"}],"name":"getLogIdsByPipeline","outputs":[{"internalType":"uint256[]","name":"","type":"uint256[]"}],"stateMutability":"view","type":"function"},{"inputs":[{"internalType":"uint256","name":"runId","type":"uint256"}],"name":"getLogIdsByRun","outputs":[{"internalType":"uint256[]","name":"","type":"uint256[]"}],"stateMutability":"view","type":"function"},{"inputs":[{"internalType":"uint256","name":"count","type":"uint256"}],"name":"getRecentLogs","outputs":[{"components":[{"internalType":"uint256","name":"logId","type":"uint256"},{"internalType":"uint256","name":"pipelineId","type":"uint256"},{"internalType":"uint256","name":"runId","type":"uint256"},{"internalType":"enum EventLogger.Stage","name":"stage","type":"uint8"},{"internalType":"bytes32","name":"configHash","type":"bytes32"},{"internalType":"string","name":"commitHash","type":"string"},{"internalType":"string","name":"actor","type":"string"},{"internalType":"string","name":"notes","type":"string"},{"internalType":"address","name":"loggedBy","type":"address"},{"internalType":"uint256","name":"timestamp","type":"uint256"}],"internalType":"struct EventLogger.LogEntry[]","name":"entries","type":"tuple[]"}],"stateMutability":"view","type":"function"},{"inputs":[],"name":"logCount","outputs":[{"internalType":"uint256","name":"","type":"uint256"}],"stateMutability":"view","type":"function"},{"inputs":[{"internalType":"uint256","name":"","type":"uint256"}],"name":"logEntries","outputs":[{"internalType":"uint256","name":"logId","type":"uint256"},{"internalType":"uint256","name":"pipelineId","type":"uint256"},{"internalType":"uint256","name":"runId","type":"uint256"},{"internalType":"enum EventLogger.Stage","name":"stage","type":"uint8"},{"internalType":"bytes32","name":"configHash","type":"bytes32"},{"internalType":"string","name":"commitHash","type":"string"},{"internalType":"string","name":"actor","type":"string"},{"internalType":"string","name":"notes","type":"string"},{"internalType":"address","name":"loggedBy","type":"address"},{"internalType":"uint256","name":"timestamp","type":"uint256"}],"stateMutability":"view","type":"function"},{"inputs":[{"internalType":"uint256","name":"pipelineId","type":"uint256"},{"internalType":"uint256","name":"runId","type":"uint256"},{"internalType":"enum EventLogger.Stage","name":"stage","type":"uint8"},{"internalType":"bytes32","name":"configHash","type":"bytes32"},{"internalType":"string","name":"commitHash","type":"string"},{"internalType":"string","name":"actor","type":"string"},{"internalType":"string","name":"notes","type":"string"}],"name":"logEvent","outputs":[{"internalType":"uint256","name":"logId","type":"uint256"}],"stateMutability":"nonpayable","type":"function"},{"inputs":[{"internalType":"uint256","name":"","type":"uint256"},{"internalType":"uint256","name":"","type":"uint256"}],"name":"logsByPipeline","outputs":[{"internalType":"uint256","name":"","type":"uint256"}],"stateMutability":"view","type":"function"},{"inputs":[{"internalType":"uint256","name":"","type":"uint256"},{"internalType":"uint256","name":"","type":"uint256"}],"name":"logsByRun","outputs":[{"internalType":"uint256","name":"","type":"uint256"}],"stateMutability":"view","type":"function"},{"inputs":[],"name":"owner","outputs":[{"internalType":"address","name":"","type":"address"}],"stateMutability":"view","type":"function"},{"inputs":[{"internalType":"address","name":"logger","type":"address"}],"name":"revokeLogger","outputs":[],"stateMutability":"nonpayable","type":"function"},{"inputs":[{"internalType":"address","name":"newOwner","type":"address"}],"name":"transferOwnership","outputs":[],"stateMutability":"nonpayable","type":"function"}],"evm":{"bytecode":{"linkReferences":{},"object":"6080806040523461006c573360018060a01b031960005416176000553360005260016020526040600020600160ff198254161790554281527fbaf50f1390d6561fe8e0e2a9e307d281ad65b2747cae40e6d2df01779fe4a10960203392a260405161144e90816100728239f35b600080fdfe608080604052600436101561001357600080fd5b60003560e01c90816323d1aca014610f2457508063448078a114610e9e5780635f7952db146106f25780637d578be91461067c57806388702ee91461059a5780638da5cb5b14610571578063a3f2e86a14610532578063a503898f14610514578063a6586066146104d4578063b16b1e2d1461045c578063c0a4c49d14610419578063d16ac0de146102e2578063e52e64f9146101105763f2fde38b146100b957600080fd5b3461010b57602036600319011261010b576004356001600160a01b038181169182900361010b576100f0600054918216331461123c565b6100fb821515611294565b6001600160a01b03191617600055005b600080fd5b3461010b5760208060031936011261010b5760043590603282116102d9575b6005918254908181116102d2575b610146816113ec565b91610154604051938461104a565b818352601f19610163836113ec565b018460005b8281106102bc5750505060005b8281106101da5750505060405191808301818452825180915281604082818701971b8601019301916000955b8287106101ae5785850386f35b9091929382806101ca600193603f198a820301865288516111a3565b96019201960195929190926101a1565b808203908282116102a6576102a191600052600280875260096040600020604051926102058461102d565b8154845260018201548a850152810154604084015261022e60ff600383015416606085016112ef565b600481015460808401526102438a820161106c565b60a08401526102546006820161106c565b60c08401526102656007820161106c565b60e084015260088101546001600160a01b031661010084015201546101208201526102908287611404565b5261029b8186611404565b506112e0565b610175565b634e487b7160e01b600052601160045260246000fd5b6102c461139d565b828288010152018590610168565b508061013d565b6032915061012f565b3461010b5760208060031936011261010b576004356102ff61139d565b508015158061040d575b156103c8576000526002815260406000209060096040519261032a8461102d565b805484526001810154838501526002810154604085015261035560ff600383015416606086016112ef565b6004810154608085015261036b6005820161106c565b60a085015261037c6006820161106c565b60c085015261038d6007820161106c565b60e085015260088101546001600160a01b031661010085015201546101208301526040518181529182916103c491908301906111a3565b0390f35b60405162461bcd60e51b815260048101839052601a60248201527f4576656e744c6f676765723a206c6f67206e6f7420666f756e640000000000006044820152606490fd5b50600554811115610309565b3461010b57602036600319011261010b576004356001600160a01b0381169081900361010b576000526001602052602060ff604060002054166040519015158152f35b3461010b57602036600319011261010b576004356001600160a01b038181169182900361010b576104929060005416331461123c565b806000526001602052604060002060ff1981541690557f61ebdf7d2e34941d6e71e43be46742e3467723acb642b06a0486f1a10a16dd066020604051428152a2005b3461010b576104e23661115f565b9060005260036020526040600020805482101561010b5760209161050591611175565b90549060031b1c604051908152f35b3461010b57600036600319011261010b576020600554604051908152f35b3461010b576105403661115f565b9060005260046020526040600020805482101561010b5760209161056391611175565b90546040519160031b1c8152f35b3461010b57600036600319011261010b576000546040516001600160a01b039091168152602090f35b3461010b57602036600319011261010b57600435600052600260205260206040600020805490600181015461066b600283015461065d60ff60038601541661064f60048701546105ec6005890161106c565b906106396105fc60068b0161106c565b9461060960078c0161106c565b9760098c600860018060a01b03910154169c01549a6040519e8f9e8f908152015260408d015260608c0190611112565b60808a01526101408060a08b015289019061111f565b9087820360c089015261111f565b9085820360e087015261111f565b916101008401526101208301520390f35b3461010b5760208060031936011261010b5760043560005260048152604060002090604051908181845491828152019360005281600020916000905b8282106106db576103c4856106cf8189038261104a565b60405191829182610f8a565b8354865294850194600193840193909101906106b8565b3461010b5760e036600319011261010b576044600c8135101561010b5760843567ffffffffffffffff811161010b5761072f903690600401610fc5565b9160a43567ffffffffffffffff811161010b57610750903690600401610fc5565b60c43567ffffffffffffffff811161010b57610770903690600401610fc5565b94909533600052600160205260ff604060002054168015610e8a575b15610e2e5760043515610dea5760243515610da6578015610d62578215610d1e576107b86005546112e0565b9586600555610820604051986107cd8a61102d565b888a5260043560208b015260243560408b01526107ee883560608c016112ef565b60643560808b01526108013685876112fb565b9260a08b0193845261081436888a6112fb565b60c08c015236916112fb565b60e089015233610100890152426101208901528660005260026020526040600020908851825560208901516001830155604089015160028301556003820160608a0151600c811015610d085760ff80198354169116179055608089015160048301555180519067ffffffffffffffff8211610b525781906108a46005850154610ff3565b601f8111610cb5575b50602090601f8311600114610c4357600092610c38575b50508160011b916000199060031b1c19161760058201555b60c088015180519067ffffffffffffffff8211610b525781906109026006850154610ff3565b601f8111610be5575b50602090601f8311600114610b7357600092610b68575b50508160011b916000199060031b1c19161760068201555b60e088015197885167ffffffffffffffff8111610b525761095e6007840154610ff3565b99601f8b11610b0b575b60209a508a90601f8311600114610a8c57610a31959383610a3f9a9998969460099461012094600092610a81575b50508160011b916000199060031b1c19161760078501555b6008840160018060a01b03610100830151166bffffffffffffffffffffffff60a01b8254161790550151910155600435600052600389526109f3886040600020611342565b60243560005260048952610a0b886040600020611342565b610a19604051809835611112565b6064358988015260c0604088015260c087019161137c565b91848303606086015261137c565b3360808301524260a0830152827f128c8134fb724412cda4ff9e76fd3a5399522f7899ac65f91d7f8fde00f55e716024359380600435940390a4604051908152f35b015190508f80610996565b90600785016000528b6000209160005b601f1985168110610af457509360018460099461012094610a319a98610a3f9e9d9c9a98601f19811610610adb575b505050811b0160078501556109ae565b015160001960f88460031b161c191690558f8080610acb565b91928d600181928685015181550194019201610a9c565b600784016000526020600020601f830160051c810160208410610b4b575b601f8d0160051c82018110610b3f575050610968565b60008155600101610b29565b5080610b29565b634e487b7160e01b600052604160045260246000fd5b015190508a80610922565b9250600684016000526020600020906000935b601f1984168510610bca576001945083601f19811610610bb1575b505050811b01600682015561093a565b015160001960f88460031b161c191690558a8080610ba1565b81810151835560209485019460019093019290910190610b86565b909150600684016000526020600020601f840160051c810160208510610c31575b90849392915b601f830160051c82018110610c2257505061090b565b60008155859450600101610c0c565b5080610c06565b015190508a806108c4565b9250600584016000526020600020906000935b601f1984168510610c9a576001945083601f19811610610c81575b505050811b0160058201556108dc565b015160001960f88460031b161c191690558a8080610c71565b81810151835560209485019460019093019290910190610c56565b909150600584016000526020600020601f840160051c810160208510610d01575b90849392915b601f830160051c82018110610cf25750506108ad565b60008155859450600101610cdc565b5080610cd6565b634e487b7160e01b600052602160045260246000fd5b60405162461bcd60e51b815260206004820152601b60248201527f4576656e744c6f676765723a206163746f72207265717569726564000000000081870152606490fd5b60405162461bcd60e51b815260206004820181905260248201527f4576656e744c6f676765723a20636f6d6d69744861736820726571756972656481870152606490fd5b60405162461bcd60e51b815260206004820152601a60248201527f4576656e744c6f676765723a20696e76616c69642072756e496400000000000081870152606490fd5b60405162461bcd60e51b815260206004820152601f60248201527f4576656e744c6f676765723a20696e76616c696420706970656c696e6549640081870152606490fd5b60405162461bcd60e51b815260206004820152602f60248201527f4576656e744c6f676765723a2063616c6c6572206973206e6f7420616e206175818701526e3a3437b934b9b2b2103637b3b3b2b960891b6064820152608490fd5b506000546001600160a01b0316331461078c565b3461010b57602036600319011261010b576004356001600160a01b038181169182900361010b57610ed49060005416331461123c565b610edf811515611294565b8060005260016020526040600020600160ff198254161790557fbaf50f1390d6561fe8e0e2a9e307d281ad65b2747cae40e6d2df01779fe4a1096020604051428152a2005b3461010b576020908160031936011261010b576004356000526003825260406000209182548083528183019360005281600020916000905b828210610f73576103c4856106cf8189038261104a565b835486529485019460019384019390910190610f5c565b6020908160408183019282815285518094520193019160005b828110610fb1575050505090565b835185529381019392810192600101610fa3565b9181601f8401121561010b5782359167ffffffffffffffff831161010b576020838186019501011161010b57565b90600182811c92168015611023575b602083101461100d57565b634e487b7160e01b600052602260045260246000fd5b91607f1691611002565b610140810190811067ffffffffffffffff821117610b5257604052565b90601f8019910116810190811067ffffffffffffffff821117610b5257604052565b906040519182600082549261108084610ff3565b9081845260019485811690816000146110ef57506001146110ac575b50506110aa9250038361104a565b565b9093915060005260209081600020936000915b8183106110d75750506110aa9350820101388061109c565b855488840185015294850194879450918301916110bf565b9150506110aa94506020925060ff191682840152151560051b820101388061109c565b90600c821015610d085752565b919082519283825260005b84811061114b575050826000602080949584010152601f8019910116010190565b60208183018101518483018201520161112a565b604090600319011261010b576004359060243590565b805482101561118d5760005260206000200190600090565b634e487b7160e01b600052603260045260246000fd5b908151815260208201516020820152604082015160408201526111ce60608301516060830190611112565b6080820151608082015261121b6112096111f760a08501516101408060a087015285019061111f565b60c085015184820360c086015261111f565b60e084015183820360e085015261111f565b9161010060018060a01b038183015116908301526101208091015191015290565b1561124357565b60405162461bcd60e51b8152602060048201526024808201527f4576656e744c6f676765723a2063616c6c6572206973206e6f7420746865206f6044820152633bb732b960e11b6064820152608490fd5b1561129b57565b60405162461bcd60e51b815260206004820152601960248201527f4576656e744c6f676765723a207a65726f2061646472657373000000000000006044820152606490fd5b60001981146102a65760010190565b600c821015610d085752565b92919267ffffffffffffffff8211610b525760405191611325601f8201601f19166020018461104a565b82948184528183011161010b578281602093846000960137010152565b805468010000000000000000811015610b525761136491600182018155611175565b819291549060031b91821b91600019901b1916179055565b908060209392818452848401376000828201840152601f01601f1916010190565b604051906113aa8261102d565b81610120600091828152826020820152826040820152826060820152826080820152606060a0820152606060c0820152606060e0820152826101008201520152565b67ffffffffffffffff8111610b525760051b60200190565b805182101561118d5760209160051b01019056fea26469706673582212201297e97b9a86972b1e92faa8d91dd3d08afd0e6650ea23c4c6d647114addce6c64736f6c63430008130033","opcodes":"PUSH1 0x80 DUP1 PUSH1 0x40 MSTORE CALLVALUE PUSH2 0x6C JUMPI CALLER PUSH1 0x1 DUP1 PUSH1 0xA0 SHL SUB NOT PUSH1 0x0 SLOAD AND OR PUSH1 0x0 SSTORE CALLER PUSH1 0x0 MSTORE PUSH1 0x1 PUSH1 0x20 MSTORE PUSH1 0x40 PUSH1 0x0 KECCAK256 PUSH1 0x1 PUSH1 0xFF NOT DUP3 SLOAD AND OR SWAP1 SSTORE TIMESTAMP DUP2 MSTORE PUSH32 0xBAF50F1390D6561FE8E0E2A9E307D281AD65B2747CAE40E6D2DF01779FE4A109 PUSH1 0x20 CALLER SWAP3 LOG2 PUSH1 0x40 MLOAD PUSH2 0x144E SWAP1 DUP2 PUSH2 0x72 DUP3 CODECOPY RETURN JUMPDEST PUSH1 0x0 DUP1 REVERT INVALID PUSH1 0x80 DUP1 PUSH1 0x40 MSTORE PUSH1 0x4 CALLDATASIZE LT ISZERO PUSH2 0x13 JUMPI PUSH1 0x0 DUP1 REVERT JUMPDEST PUSH1 0x0 CALLDATALOAD PUSH1 0xE0 SHR SWAP1 DUP2 PUSH4 0x23D1ACA0 EQ PUSH2 0xF24 JUMPI POP DUP1 PUSH4 0x448078A1 EQ PUSH2 0xE9E JUMPI DUP1 PUSH4 0x5F7952DB EQ PUSH2 0x6F2 JUMPI DUP1 PUSH4 0x7D578BE9 EQ PUSH2 0x67C JUMPI DUP1 PUSH4 0x88702EE9 EQ PUSH2 0x59A JUMPI DUP1 PUSH4 0x8DA5CB5B EQ PUSH2 0x571 JUMPI DUP1 PUSH4 0xA3F2E86A EQ PUSH2 0x532 JUMPI DUP1 PUSH4 0xA503898F EQ PUSH2 0x514 JUMPI DUP1 PUSH4 0xA6586066 EQ PUSH2 0x4D4 JUMPI DUP1 PUSH4 0xB16B1E2D EQ PUSH2 0x45C JUMPI DUP1 PUSH4 0xC0A4C49D EQ PUSH2 0x419 JUMPI DUP1 PUSH4 0xD16AC0DE EQ PUSH2 0x2E2 JUMPI DUP1 PUSH4 0xE52E64F9 EQ PUSH2 0x110 JUMPI PUSH4 0xF2FDE38B EQ PUSH2 0xB9 JUMPI PUSH1 0x0 DUP1 REVERT JUMPDEST CALLVALUE PUSH2 0x10B JUMPI PUSH1 0x20 CALLDATASIZE PUSH1 0x3 NOT ADD SLT PUSH2 0x10B JUMPI PUSH1 0x4 CALLDATALOAD PUSH1 0x1 PUSH1 0x1 PUSH1 0xA0 SHL SUB DUP2 DUP2 AND SWAP2 DUP3 SWAP1 SUB PUSH2 0x10B JUMPI PUSH2 0xF0 PUSH1 0x0 SLOAD SWAP2 DUP3 AND CALLER EQ PUSH2 0x123C JUMP JUMPDEST PUSH2 0xFB DUP3 ISZERO ISZERO PUSH2 0x1294 JUMP JUMPDEST PUSH1 0x1 PUSH1 0x1 PUSH1 0xA0 SHL SUB NOT AND OR PUSH1 0x0 SSTORE STOP JUMPDEST PUSH1 0x0 DUP1 REVERT JUMPDEST CALLVALUE PUSH2 0x10B JUMPI PUSH1 0x20 DUP1 PUSH1 0x3 NOT CALLDATASIZE ADD SLT PUSH2 0x10B JUMPI PUSH1 0x4 CALLDATALOAD SWAP1 PUSH1 0x32 DUP3 GT PUSH2 0x2D9 JUMPI JUMPDEST PUSH1 0x5 SWAP2 DUP3 SLOAD SWAP1 DUP2 DUP2 GT PUSH2 0x2D2 JUMPI JUMPDEST PUSH2 0x146 DUP2 PUSH2 0x13EC JUMP JUMPDEST SWAP2 PUSH2 0x154 PUSH1 0x40 MLOAD SWAP4 DUP5 PUSH2 0x104A JUMP JUMPDEST DUP2 DUP4 MSTORE PUSH1 0x1F NOT PUSH2 0x163 DUP4 PUSH2 0x13EC JUMP JUMPDEST ADD DUP5 PUSH1 0x0 JUMPDEST DUP3 DUP2 LT PUSH2 0x2BC JUMPI POP POP POP PUSH1 0x0 JUMPDEST DUP3 DUP2 LT PUSH2 0x1DA JUMPI POP POP POP PUSH1 0x40 MLOAD SWAP2 DUP1 DUP4 ADD DUP2 DUP5 MSTORE DUP3 MLOAD DUP1 SWAP2 MSTORE DUP2 PUSH1 0x40 DUP3 DUP2 DUP8 ADD SWAP8 SHL DUP7 ADD ADD SWAP4 ADD SWAP2 PUSH1 0x0 SWAP6 JUMPDEST DUP3 DUP8 LT PUSH2 0x1AE JUMPI DUP6 DUP6 SUB DUP7 RETURN JUMPDEST SWAP1 SWAP2 SWAP3 SWAP4 DUP3 DUP1 PUSH2 0x1CA PUSH1 0x1 SWAP4 PUSH1 0x3F NOT DUP11 DUP3 SUB ADD DUP7 MSTORE DUP9 MLOAD PUSH2 0x11A3 JUMP JUMPDEST SWAP7 ADD SWAP3 ADD SWAP7 ADD SWAP6 SWAP3 SWAP2 SWAP1 SWAP3 PUSH2 0x1A1 JUMP JUMPDEST DUP1 DUP3 SUB SWAP1 DUP3 DUP3 GT PUSH2 0x2A6 JUMPI PUSH2 0x2A1 SWAP2 PUSH1 0x0 MSTORE PUSH1 0x2 DUP1 DUP8 MSTORE PUSH1 0x9 PUSH1 0x40 PUSH1 0x0 KECCAK256 PUSH1 0x40 MLOAD SWAP3 PUSH2 0x205 DUP5 PUSH2 0x102D JUMP JUMPDEST DUP2 SLOAD DUP5 MSTORE PUSH1 0x1 DUP3 ADD SLOAD DUP11 DUP6 ADD MSTORE DUP2 ADD SLOAD PUSH1 0x40 DUP5 ADD MSTORE PUSH2 0x22E PUSH1 0xFF PUSH1 0x3 DUP4 ADD SLOAD AND PUSH1 0x60 DUP6 ADD PUSH2 0x12EF JUMP JUMPDEST PUSH1 0x4 DUP2 ADD SLOAD PUSH1 0x80 DUP5 ADD MSTORE PUSH2 0x243 DUP11 DUP3 ADD PUSH2 0x106C JUMP JUMPDEST PUSH1 0xA0 DUP5 ADD MSTORE PUSH2 0x254 PUSH1 0x6 DUP3 ADD PUSH2 0x106C JUMP JUMPDEST PUSH1 0xC0 DUP5 ADD MSTORE PUSH2 0x265 PUSH1 0x7 DUP3 ADD PUSH2 0x106C JUMP JUMPDEST PUSH1 0xE0 DUP5 ADD MSTORE PUSH1 0x8 DUP2 ADD SLOAD PUSH1 0x1 PUSH1 0x1 PUSH1 0xA0 SHL SUB AND PUSH2 0x100 DUP5 ADD MSTORE ADD SLOAD PUSH2 0x120 DUP3 ADD MSTORE PUSH2 0x290 DUP3 DUP8 PUSH2 0x1404 JUMP JUMPDEST MSTORE PUSH2 0x29B DUP2 DUP7 PUSH2 0x1404 JUMP JUMPDEST POP PUSH2 0x12E0 JUMP JUMPDEST PUSH2 0x175 JUMP JUMPDEST PUSH4 0x4E487B71 PUSH1 0xE0 SHL PUSH1 0x0 MSTORE PUSH1 0x11 PUSH1 0x4 MSTORE PUSH1 0x24 PUSH1 0x0 REVERT JUMPDEST PUSH2 0x2C4 PUSH2 0x139D JUMP JUMPDEST DUP3 DUP3 DUP9 ADD ADD MSTORE ADD DUP6 SWAP1 PUSH2 0x168 JUMP JUMPDEST POP DUP1 PUSH2 0x13D JUMP JUMPDEST PUSH1 0x32 SWAP2 POP PUSH2 0x12F JUMP JUMPDEST CALLVALUE PUSH2 0x10B JUMPI PUSH1 0x20 DUP1 PUSH1 0x3 NOT CALLDATASIZE ADD SLT PUSH2 0x10B JUMPI PUSH1 0x4 CALLDATALOAD PUSH2 0x2FF PUSH2 0x139D JUMP JUMPDEST POP DUP1 ISZERO ISZERO DUP1 PUSH2 0x40D JUMPI JUMPDEST ISZERO PUSH2 0x3C8 JUMPI PUSH1 0x0 MSTORE PUSH1 0x2 DUP2 MSTORE PUSH1 0x40 PUSH1 0x0 KECCAK256 SWAP1 PUSH1 0x9 PUSH1 0x40 MLOAD SWAP3 PUSH2 0x32A DUP5 PUSH2 0x102D JUMP JUMPDEST DUP1 SLOAD DUP5 MSTORE PUSH1 0x1 DUP2 ADD SLOAD DUP4 DUP6 ADD MSTORE PUSH1 0x2 DUP2 ADD SLOAD PUSH1 0x40 DUP6 ADD MSTORE PUSH2 0x355 PUSH1 0xFF PUSH1 0x3 DUP4 ADD SLOAD AND PUSH1 0x60 DUP7 ADD PUSH2 0x12EF JUMP JUMPDEST PUSH1 0x4 DUP2 ADD SLOAD PUSH1 0x80 DUP6 ADD MSTORE PUSH2 0x36B PUSH1 0x5 DUP3 ADD PUSH2 0x106C JUMP JUMPDEST PUSH1 0xA0 DUP6 ADD MSTORE PUSH2 0x37C PUSH1 0x6 DUP3 ADD PUSH2 0x106C JUMP JUMPDEST PUSH1 0xC0 DUP6 ADD MSTORE PUSH2 0x38D PUSH1 0x7 DUP3 ADD PUSH2 0x106C JUMP JUMPDEST PUSH1 0xE0 DUP6 ADD MSTORE PUSH1 0x8 DUP2 ADD SLOAD PUSH1 0x1 PUSH1 0x1 PUSH1 0xA0 SHL SUB AND PUSH2 0x100 DUP6 ADD MSTORE ADD SLOAD PUSH2 0x120 DUP4 ADD MSTORE PUSH1 0x40 MLOAD DUP2 DUP2 MSTORE SWAP2 DUP3 SWAP2 PUSH2 0x3C4 SWAP2 SWAP1 DUP4 ADD SWAP1 PUSH2 0x11A3 JUMP JUMPDEST SUB SWAP1 RETURN JUMPDEST PUSH1 0x40 MLOAD PUSH3 0x461BCD PUSH1 0xE5 SHL DUP2 MSTORE PUSH1 0x4 DUP2 ADD DUP4 SWAP1 MSTORE PUSH1 0x1A PUSH1 0x24 DUP3 ADD MSTORE PUSH32 0x4576656E744C6F676765723A206C6F67206E6F7420666F756E64000000000000 PUSH1 0x44 DUP3 ADD MSTORE PUSH1 0x64 SWAP1 REVERT JUMPDEST POP PUSH1 0x5 SLOAD DUP2 GT ISZERO PUSH2 0x309 JUMP JUMPDEST CALLVALUE PUSH2 0x10B JUMPI PUSH1 0x20 CALLDATASIZE PUSH1 0x3 NOT ADD SLT PUSH2 0x10B JUMPI PUSH1 0x4 CALLDATALOAD PUSH1 0x1 PUSH1 0x1 PUSH1 0xA0 SHL SUB DUP2 AND SWAP1 DUP2 SWAP1 SUB PUSH2 0x10B JUMPI PUSH1 0x0 MSTORE PUSH1 0x1 PUSH1 0x20 MSTORE PUSH1 0x20 PUSH1 0xFF PUSH1 0x40 PUSH1 0x0 KECCAK256 SLOAD AND PUSH1 0x40 MLOAD SWAP1 ISZERO ISZERO DUP2 MSTORE RETURN JUMPDEST CALLVALUE PUSH2 0x10B JUMPI PUSH1 0x20 CALLDATASIZE PUSH1 0x3 NOT ADD SLT PUSH2 0x10B JUMPI PUSH1 0x4 CALLDATALOAD PUSH1 0x1 PUSH1 0x1 PUSH1 0xA0 SHL SUB DUP2 DUP2 AND SWAP2 DUP3 SWAP1 SUB PUSH2 0x10B JUMPI PUSH2 0x492 SWAP1 PUSH1 0x0 SLOAD AND CALLER EQ PUSH2 0x123C JUMP JUMPDEST DUP1 PUSH1 0x0 MSTORE PUSH1 0x1 PUSH1 0x20 MSTORE PUSH1 0x40 PUSH1 0x0 KECCAK256 PUSH1 0xFF NOT DUP2 SLOAD AND SWAP1 SSTORE PUSH32 0x61EBDF7D2E34941D6E71E43BE46742E3467723ACB642B06A0486F1A10A16DD06 PUSH1 0x20 PUSH1 0x40 MLOAD TIMESTAMP DUP2 MSTORE LOG2 STOP JUMPDEST CALLVALUE PUSH2 0x10B JUMPI PUSH2 0x4E2 CALLDATASIZE PUSH2 0x115F JUMP JUMPDEST SWAP1 PUSH1 0x0 MSTORE PUSH1 0x3 PUSH1 0x20 MSTORE PUSH1 0x40 PUSH1 0x0 KECCAK256 DUP1 SLOAD DUP3 LT ISZERO PUSH2 0x10B JUMPI PUSH1 0x20 SWAP2 PUSH2 0x505 SWAP2 PUSH2 0x1175 JUMP JUMPDEST SWAP1 SLOAD SWAP1 PUSH1 0x3 SHL SHR PUSH1 0x40 MLOAD SWAP1 DUP2 MSTORE RETURN JUMPDEST CALLVALUE PUSH2 0x10B JUMPI PUSH1 0x0 CALLDATASIZE PUSH1 0x3 NOT ADD SLT PUSH2 0x10B JUMPI PUSH1 0x20 PUSH1 0x5 SLOAD PUSH1 0x40 MLOAD SWAP1 DUP2 MSTORE RETURN JUMPDEST CALLVALUE PUSH2 0x10B JUMPI PUSH2 0x540 CALLDATASIZE PUSH2 0x115F JUMP JUMPDEST SWAP1 PUSH1 0x0 MSTORE PUSH1 0x4 PUSH1 0x20 MSTORE PUSH1 0x40 PUSH1 0x0 KECCAK256 DUP1 SLOAD DUP3 LT ISZERO PUSH2 0x10B JUMPI PUSH1 0x20 SWAP2 PUSH2 0x563 SWAP2 PUSH2 0x1175 JUMP JUMPDEST SWAP1 SLOAD PUSH1 0x40 MLOAD SWAP2 PUSH1 0x3 SHL SHR DUP2 MSTORE RETURN JUMPDEST CALLVALUE PUSH2 0x10B JUMPI PUSH1 0x0 CALLDATASIZE PUSH1 0x3 NOT ADD SLT PUSH2 0x10B JUMPI PUSH1 0x0 SLOAD PUSH1 0x40 MLOAD PUSH1 0x1 PUSH1 0x1 PUSH1 0xA0 SHL SUB SWAP1 SWAP2 AND DUP2 MSTORE PUSH1 0x20 SWAP1 RETURN JUMPDEST CALLVALUE PUSH2 0x10B JUMPI PUSH1 0x20 CALLDATASIZE PUSH1 0x3 NOT ADD SLT PUSH2 0x10B JUMPI PUSH1 0x4 CALLDATALOAD PUSH1 0x0 MSTORE PUSH1 0x2 PUSH1 0x20 MSTORE PUSH1 0x20 PUSH1 0x40 PUSH1 0x0 KECCAK256 DUP1 SLOAD SWAP1 PUSH1 0x1 DUP2 ADD SLOAD PUSH2 0x66B PUSH1 0x2 DUP4 ADD SLOAD PUSH2 0x65D PUSH1 0xFF PUSH1 0x3 DUP7 ADD SLOAD AND PUSH2 0x64F PUSH1 0x4 DUP8 ADD SLOAD PUSH2 0x5EC PUSH1 0x5 DUP10 ADD PUSH2 0x106C JUMP JUMPDEST SWAP1 PUSH2 0x639 PUSH2 0x5FC PUSH1 0x6 DUP12 ADD PUSH2 0x106C JUMP JUMPDEST SWAP5 PUSH2 0x609 PUSH1 0x7 DUP13 ADD PUSH2 0x106C JUMP JUMPDEST SWAP8 PUSH1 0x9 DUP13 PUSH1 0x8 PUSH1 0x1 DUP1 PUSH1 0xA0 SHL SUB SWAP2 ADD SLOAD AND SWAP13 ADD SLOAD SWAP11 PUSH1 0x40 MLOAD SWAP15 DUP16 SWAP15 DUP16 SWAP1 DUP2 MSTORE ADD MSTORE PUSH1 0x40 DUP14 ADD MSTORE PUSH1 0x60 DUP13 ADD SWAP1 PUSH2 0x1112 JUMP JUMPDEST PUSH1 0x80 DUP11 ADD MSTORE PUSH2 0x140 DUP1 PUSH1 0xA0 DUP12 ADD MSTORE DUP10 ADD SWAP1 PUSH2 0x111F JUMP JUMPDEST SWAP1 DUP8 DUP3 SUB PUSH1 0xC0 DUP10 ADD MSTORE PUSH2 0x111F JUMP JUMPDEST SWAP1 DUP6 DUP3 SUB PUSH1 0xE0 DUP8 ADD MSTORE PUSH2 0x111F JUMP JUMPDEST SWAP2 PUSH2 0x100 DUP5 ADD MSTORE PUSH2 0x120 DUP4 ADD MSTORE SUB SWAP1 RETURN JUMPDEST CALLVALUE PUSH2 0x10B JUMPI PUSH1 0x20 DUP1 PUSH1 0x3 NOT CALLDATASIZE ADD SLT PUSH2 0x10B JUMPI PUSH1 0x4 CALLDATALOAD PUSH1 0x0 MSTORE PUSH1 0x4 DUP2 MSTORE PUSH1 0x40 PUSH1 0x0 KECCAK256 SWAP1 PUSH1 0x40 MLOAD SWAP1 DUP2 DUP2 DUP5 SLOAD SWAP2 DUP3 DUP2 MSTORE ADD SWAP4 PUSH1 0x0 MSTORE DUP2 PUSH1 0x0 KECCAK256 SWAP2 PUSH1 0x0 SWAP1 JUMPDEST DUP3 DUP3 LT PUSH2 0x6DB JUMPI PUSH2 0x3C4 DUP6 PUSH2 0x6CF DUP2 DUP10 SUB DUP3 PUSH2 0x104A JUMP JUMPDEST PUSH1 0x40 MLOAD SWAP2 DUP3 SWAP2 DUP3 PUSH2 0xF8A JUMP JUMPDEST DUP4 SLOAD DUP7 MSTORE SWAP5 DUP6 ADD SWAP5 PUSH1 0x1 SWAP4 DUP5 ADD SWAP4 SWAP1 SWAP2 ADD SWAP1 PUSH2 0x6B8 JUMP JUMPDEST CALLVALUE PUSH2 0x10B JUMPI PUSH1 0xE0 CALLDATASIZE PUSH1 0x3 NOT ADD SLT PUSH2 0x10B JUMPI PUSH1 0x44 PUSH1 0xC DUP2 CALLDATALOAD LT ISZERO PUSH2 0x10B JUMPI PUSH1 0x84 CALLDATALOAD PUSH8 0xFFFFFFFFFFFFFFFF DUP2 GT PUSH2 0x10B JUMPI PUSH2 0x72F SWAP1 CALLDATASIZE SWAP1 PUSH1 0x4 ADD PUSH2 0xFC5 JUMP JUMPDEST SWAP2 PUSH1 0xA4 CALLDATALOAD PUSH8 0xFFFFFFFFFFFFFFFF DUP2 GT PUSH2 0x10B JUMPI PUSH2 0x750 SWAP1 CALLDATASIZE SWAP1 PUSH1 0x4 ADD PUSH2 0xFC5 JUMP JUMPDEST PUSH1 0xC4 CALLDATALOAD PUSH8 0xFFFFFFFFFFFFFFFF DUP2 GT PUSH2 0x10B JUMPI PUSH2 0x770 SWAP1 CALLDATASIZE SWAP1 PUSH1 0x4 ADD PUSH2 0xFC5 JUMP JUMPDEST SWAP5 SWAP1 SWAP6 CALLER PUSH1 0x0 MSTORE PUSH1 0x1 PUSH1 0x20 MSTORE PUSH1 0xFF PUSH1 0x40 PUSH1 0x0 KECCAK256 SLOAD AND DUP1 ISZERO PUSH2 0xE8A JUMPI JUMPDEST ISZERO PUSH2 0xE2E JUMPI PUSH1 0x4 CALLDATALOAD ISZERO PUSH2 0xDEA JUMPI PUSH1 0x24 CALLDATALOAD ISZERO PUSH2 0xDA6 JUMPI DUP1 ISZERO PUSH2 0xD62 JUMPI DUP3 ISZERO PUSH2 0xD1E JUMPI PUSH2 0x7B8 PUSH1 0x5 SLOAD PUSH2 0x12E0 JUMP JUMPDEST SWAP6 DUP7 PUSH1 0x5 SSTORE PUSH2 0x820 PUSH1 0x40 MLOAD SWAP9 PUSH2 0x7CD DUP11 PUSH2 0x102D JUMP JUMPDEST DUP9 DUP11 MSTORE PUSH1 0x4 CALLDATALOAD PUSH1 0x20 DUP12 ADD MSTORE PUSH1 0x24 CALLDATALOAD PUSH1 0x40 DUP12 ADD MSTORE PUSH2 0x7EE DUP9 CALLDATALOAD PUSH1 0x60 DUP13 ADD PUSH2 0x12EF JUMP JUMPDEST PUSH1 0x64 CALLDATALOAD PUSH1 0x80 DUP12 ADD MSTORE PUSH2 0x801 CALLDATASIZE DUP6 DUP8 PUSH2 0x12FB JUMP JUMPDEST SWAP3 PUSH1 0xA0 DUP12 ADD SWAP4 DUP5 MSTORE PUSH2 0x814 CALLDATASIZE DUP9 DUP11 PUSH2 0x12FB JUMP JUMPDEST PUSH1 0xC0 DUP13 ADD MSTORE CALLDATASIZE SWAP2 PUSH2 0x12FB JUMP JUMPDEST PUSH1 0xE0 DUP10 ADD MSTORE CALLER PUSH2 0x100 DUP10 ADD MSTORE TIMESTAMP PUSH2 0x120 DUP10 ADD MSTORE DUP7 PUSH1 0x0 MSTORE PUSH1 0x2 PUSH1 0x20 MSTORE PUSH1 0x40 PUSH1 0x0 KECCAK256 SWAP1 DUP9 MLOAD DUP3 SSTORE PUSH1 0x20 DUP10 ADD MLOAD PUSH1 0x1 DUP4 ADD SSTORE PUSH1 0x40 DUP10 ADD MLOAD PUSH1 0x2 DUP4 ADD SSTORE PUSH1 0x3 DUP3 ADD PUSH1 0x60 DUP11 ADD MLOAD PUSH1 0xC DUP2 LT ISZERO PUSH2 0xD08 JUMPI PUSH1 0xFF DUP1 NOT DUP4 SLOAD AND SWAP2 AND OR SWAP1 SSTORE PUSH1 0x80 DUP10 ADD MLOAD PUSH1 0x4 DUP4 ADD SSTORE MLOAD DUP1 MLOAD SWAP1 PUSH8 0xFFFFFFFFFFFFFFFF DUP3 GT PUSH2 0xB52 JUMPI DUP2 SWAP1 PUSH2 0x8A4 PUSH1 0x5 DUP6 ADD SLOAD PUSH2 0xFF3 JUMP JUMPDEST PUSH1 0x1F DUP2 GT PUSH2 0xCB5 JUMPI JUMPDEST POP PUSH1 0x20 SWAP1 PUSH1 0x1F DUP4 GT PUSH1 0x1 EQ PUSH2 0xC43 JUMPI PUSH1 0x0 SWAP3 PUSH2 0xC38 JUMPI JUMPDEST POP POP DUP2 PUSH1 0x1 SHL SWAP2 PUSH1 0x0 NOT SWAP1 PUSH1 0x3 SHL SHR NOT AND OR PUSH1 0x5 DUP3 ADD SSTORE JUMPDEST PUSH1 0xC0 DUP9 ADD MLOAD DUP1 MLOAD SWAP1 PUSH8 0xFFFFFFFFFFFFFFFF DUP3 GT PUSH2 0xB52 JUMPI DUP2 SWAP1 PUSH2 0x902 PUSH1 0x6 DUP6 ADD SLOAD PUSH2 0xFF3 JUMP JUMPDEST PUSH1 0x1F DUP2 GT PUSH2 0xBE5 JUMPI JUMPDEST POP PUSH1 0x20 SWAP1 PUSH1 0x1F DUP4 GT PUSH1 0x1 EQ PUSH2 0xB73 JUMPI PUSH1 0x0 SWAP3 PUSH2 0xB68 JUMPI JUMPDEST POP POP DUP2 PUSH1 0x1 SHL SWAP2 PUSH1 0x0 NOT SWAP1 PUSH1 0x3 SHL SHR NOT AND OR PUSH1 0x6 DUP3 ADD SSTORE JUMPDEST PUSH1 0xE0 DUP9 ADD MLOAD SWAP8 DUP9 MLOAD PUSH8 0xFFFFFFFFFFFFFFFF DUP2 GT PUSH2 0xB52 JUMPI PUSH2 0x95E PUSH1 0x7 DUP5 ADD SLOAD PUSH2 0xFF3 JUMP JUMPDEST SWAP10 PUSH1 0x1F DUP12 GT PUSH2 0xB0B JUMPI JUMPDEST PUSH1 0x20 SWAP11 POP DUP11 SWAP1 PUSH1 0x1F DUP4 GT PUSH1 0x1 EQ PUSH2 0xA8C JUMPI PUSH2 0xA31 SWAP6 SWAP4 DUP4 PUSH2 0xA3F SWAP11 SWAP10 SWAP9 SWAP7 SWAP5 PUSH1 0x9 SWAP5 PUSH2 0x120 SWAP5 PUSH1 0x0 SWAP3 PUSH2 0xA81 JUMPI JUMPDEST POP POP DUP2 PUSH1 0x1 SHL SWAP2 PUSH1 0x0 NOT SWAP1 PUSH1 0x3 SHL SHR NOT AND OR PUSH1 0x7 DUP6 ADD SSTORE JUMPDEST PUSH1 0x8 DUP5 ADD PUSH1 0x1 DUP1 PUSH1 0xA0 SHL SUB PUSH2 0x100 DUP4 ADD MLOAD AND PUSH12 0xFFFFFFFFFFFFFFFFFFFFFFFF PUSH1 0xA0 SHL DUP3 SLOAD AND OR SWAP1 SSTORE ADD MLOAD SWAP2 ADD SSTORE PUSH1 0x4 CALLDATALOAD PUSH1 0x0 MSTORE PUSH1 0x3 DUP10 MSTORE PUSH2 0x9F3 DUP9 PUSH1 0x40 PUSH1 0x0 KECCAK256 PUSH2 0x1342 JUMP JUMPDEST PUSH1 0x24 CALLDATALOAD PUSH1 0x0 MSTORE PUSH1 0x4 DUP10 MSTORE PUSH2 0xA0B DUP9 PUSH1 0x40 PUSH1 0x0 KECCAK256 PUSH2 0x1342 JUMP JUMPDEST PUSH2 0xA19 PUSH1 0x40 MLOAD DUP1 SWAP9 CALLDATALOAD PUSH2 0x1112 JUMP JUMPDEST PUSH1 0x64 CALLDATALOAD DUP10 DUP9 ADD MSTORE PUSH1 0xC0 PUSH1 0x40 DUP9 ADD MSTORE PUSH1 0xC0 DUP8 ADD SWAP2 PUSH2 0x137C JUMP JUMPDEST SWAP2 DUP5 DUP4 SUB PUSH1 0x60 DUP7 ADD MSTORE PUSH2 0x137C JUMP JUMPDEST CALLER PUSH1 0x80 DUP4 ADD MSTORE TIMESTAMP PUSH1 0xA0 DUP4 ADD MSTORE DUP3 PUSH32 0x128C8134FB724412CDA4FF9E76FD3A5399522F7899AC65F91D7F8FDE00F55E71 PUSH1 0x24 CALLDATALOAD SWAP4 DUP1 PUSH1 0x4 CALLDATALOAD SWAP5 SUB SWAP1 LOG4 PUSH1 0x40 MLOAD SWAP1 DUP2 MSTORE RETURN JUMPDEST ADD MLOAD SWAP1 POP DUP16 DUP1 PUSH2 0x996 JUMP JUMPDEST SWAP1 PUSH1 0x7 DUP6 ADD PUSH1 0x0 MSTORE DUP12 PUSH1 0x0 KECCAK256 SWAP2 PUSH1 0x0 JUMPDEST PUSH1 0x1F NOT DUP6 AND DUP2 LT PUSH2 0xAF4 JUMPI POP SWAP4 PUSH1 0x1 DUP5 PUSH1 0x9 SWAP5 PUSH2 0x120 SWAP5 PUSH2 0xA31 SWAP11 SWAP9 PUSH2 0xA3F SWAP15 SWAP14 SWAP13 SWAP11 SWAP9 PUSH1 0x1F NOT DUP2 AND LT PUSH2 0xADB JUMPI JUMPDEST POP POP POP DUP2 SHL ADD PUSH1 0x7 DUP6 ADD SSTORE PUSH2 0x9AE JUMP JUMPDEST ADD MLOAD PUSH1 0x0 NOT PUSH1 0xF8 DUP5 PUSH1 0x3 SHL AND SHR NOT AND SWAP1 SSTORE DUP16 DUP1 DUP1 PUSH2 0xACB JUMP JUMPDEST SWAP2 SWAP3 DUP14 PUSH1 0x1 DUP2 SWAP3 DUP7 DUP6 ADD MLOAD DUP2 SSTORE ADD SWAP5 ADD SWAP3 ADD PUSH2 0xA9C JUMP JUMPDEST PUSH1 0x7 DUP5 ADD PUSH1 0x0 MSTORE PUSH1 0x20 PUSH1 0x0 KECCAK256 PUSH1 0x1F DUP4 ADD PUSH1 0x5 SHR DUP2 ADD PUSH1 0x20 DUP5 LT PUSH2 0xB4B JUMPI JUMPDEST PUSH1 0x1F DUP14 ADD PUSH1 0x5 SHR DUP3 ADD DUP2 LT PUSH2 0xB3F JUMPI POP POP PUSH2 0x968 JUMP JUMPDEST PUSH1 0x0 DUP2 SSTORE PUSH1 0x1 ADD PUSH2 0xB29 JUMP JUMPDEST POP DUP1 PUSH2 0xB29 JUMP JUMPDEST PUSH4 0x4E487B71 PUSH1 0xE0 SHL PUSH1 0x0 MSTORE PUSH1 0x41 PUSH1 0x4 MSTORE PUSH1 0x24 PUSH1 0x0 REVERT JUMPDEST ADD MLOAD SWAP1 POP DUP11 DUP1 PUSH2 0x922 JUMP JUMPDEST SWAP3 POP PUSH1 0x6 DUP5 ADD PUSH1 0x0 MSTORE PUSH1 0x20 PUSH1 0x0 KECCAK256 SWAP1 PUSH1 0x0 SWAP4 JUMPDEST PUSH1 0x1F NOT DUP5 AND DUP6 LT PUSH2 0xBCA JUMPI PUSH1 0x1 SWAP5 POP DUP4 PUSH1 0x1F NOT DUP2 AND LT PUSH2 0xBB1 JUMPI JUMPDEST POP POP POP DUP2 SHL ADD PUSH1 0x6 DUP3 ADD SSTORE PUSH2 0x93A JUMP JUMPDEST ADD MLOAD PUSH1 0x0 NOT PUSH1 0xF8 DUP5 PUSH1 0x3 SHL AND SHR NOT AND SWAP1 SSTORE DUP11 DUP1 DUP1 PUSH2 0xBA1 JUMP JUMPDEST DUP2 DUP2 ADD MLOAD DUP4 SSTORE PUSH1 0x20 SWAP5 DUP6 ADD SWAP5 PUSH1 0x1 SWAP1 SWAP4 ADD SWAP3 SWAP1 SWAP2 ADD SWAP1 PUSH2 0xB86 JUMP JUMPDEST SWAP1 SWAP2 POP PUSH1 0x6 DUP5 ADD PUSH1 0x0 MSTORE PUSH1 0x20 PUSH1 0x0 KECCAK256 PUSH1 0x1F DUP5 ADD PUSH1 0x5 SHR DUP2 ADD PUSH1 0x20 DUP6 LT PUSH2 0xC31 JUMPI JUMPDEST SWAP1 DUP5 SWAP4 SWAP3 SWAP2 JUMPDEST PUSH1 0x1F DUP4 ADD PUSH1 0x5 SHR DUP3 ADD DUP2 LT PUSH2 0xC22 JUMPI POP POP PUSH2 0x90B JUMP JUMPDEST PUSH1 0x0 DUP2 SSTORE DUP6 SWAP5 POP PUSH1 0x1 ADD PUSH2 0xC0C JUMP JUMPDEST POP DUP1 PUSH2 0xC06 JUMP JUMPDEST ADD MLOAD SWAP1 POP DUP11 DUP1 PUSH2 0x8C4 JUMP JUMPDEST SWAP3 POP PUSH1 0x5 DUP5 ADD PUSH1 0x0 MSTORE PUSH1 0x20 PUSH1 0x0 KECCAK256 SWAP1 PUSH1 0x0 SWAP4 JUMPDEST PUSH1 0x1F NOT DUP5 AND DUP6 LT PUSH2 0xC9A JUMPI PUSH1 0x1 SWAP5 POP DUP4 PUSH1 0x1F NOT DUP2 AND LT PUSH2 0xC81 JUMPI JUMPDEST POP POP POP DUP2 SHL ADD PUSH1 0x5 DUP3 ADD SSTORE PUSH2 0x8DC JUMP JUMPDEST ADD MLOAD PUSH1 0x0 NOT PUSH1 0xF8 DUP5 PUSH1 0x3 SHL AND SHR NOT AND SWAP1 SSTORE DUP11 DUP1 DUP1 PUSH2 0xC71 JUMP JUMPDEST DUP2 DUP2 ADD MLOAD DUP4 SSTORE PUSH1 0x20 SWAP5 DUP6 ADD SWAP5 PUSH1 0x1 SWAP1 SWAP4 ADD SWAP3 SWAP1 SWAP2 ADD SWAP1 PUSH2 0xC56 JUMP JUMPDEST SWAP1 SWAP2 POP PUSH1 0x5 DUP5 ADD PUSH1 0x0 MSTORE PUSH1 0x20 PUSH1 0x0 KECCAK256 PUSH1 0x1F DUP5 ADD PUSH1 0x5 SHR DUP2 ADD PUSH1 0x20 DUP6 LT PUSH2 0xD01 JUMPI JUMPDEST SWAP1 DUP5 SWAP4 SWAP3 SWAP2 JUMPDEST PUSH1 0x1F DUP4 ADD PUSH1 0x5 SHR DUP3 ADD DUP2 LT PUSH2 0xCF2 JUMPI POP POP PUSH2 0x8AD JUMP JUMPDEST PUSH1 0x0 DUP2 SSTORE DUP6 SWAP5 POP PUSH1 0x1 ADD PUSH2 0xCDC JUMP JUMPDEST POP DUP1 PUSH2 0xCD6 JUMP JUMPDEST PUSH4 0x4E487B71 PUSH1 0xE0 SHL PUSH1 0x0 MSTORE PUSH1 0x21 PUSH1 0x4 MSTORE PUSH1 0x24 PUSH1 0x0 REVERT JUMPDEST PUSH1 0x40 MLOAD PUSH3 0x461BCD PUSH1 0xE5 SHL DUP2 MSTORE PUSH1 0x20 PUSH1 0x4 DUP3 ADD MSTORE PUSH1 0x1B PUSH1 0x24 DUP3 ADD MSTORE PUSH32 0x4576656E744C6F676765723A206163746F722072657175697265640000000000 DUP2 DUP8 ADD MSTORE PUSH1 0x64 SWAP1 REVERT JUMPDEST PUSH1 0x40 MLOAD PUSH3 0x461BCD PUSH1 0xE5 SHL DUP2 MSTORE PUSH1 0x20 PUSH1 0x4 DUP3 ADD DUP2 SWAP1 MSTORE PUSH1 0x24 DUP3 ADD MSTORE PUSH32 0x4576656E744C6F676765723A20636F6D6D697448617368207265717569726564 DUP2 DUP8 ADD MSTORE PUSH1 0x64 SWAP1 REVERT JUMPDEST PUSH1 0x40 MLOAD PUSH3 0x461BCD PUSH1 0xE5 SHL DUP2 MSTORE PUSH1 0x20 PUSH1 0x4 DUP3 ADD MSTORE PUSH1 0x1A PUSH1 0x24 DUP3 ADD MSTORE PUSH32 0x4576656E744C6F676765723A20696E76616C69642072756E4964000000000000 DUP2 DUP8 ADD MSTORE PUSH1 0x64 SWAP1 REVERT JUMPDEST PUSH1 0x40 MLOAD PUSH3 0x461BCD PUSH1 0xE5 SHL DUP2 MSTORE PUSH1 0x20 PUSH1 0x4 DUP3 ADD MSTORE PUSH1 0x1F PUSH1 0x24 DUP3 ADD MSTORE PUSH32 0x4576656E744C6F676765723A20696E76616C696420706970656C696E65496400 DUP2 DUP8 ADD MSTORE PUSH1 0x64 SWAP1 REVERT JUMPDEST PUSH1 0x40 MLOAD PUSH3 0x461BCD PUSH1 0xE5 SHL DUP2 MSTORE PUSH1 0x20 PUSH1 0x4 DUP3 ADD MSTORE PUSH1 0x2F PUSH1 0x24 DUP3 ADD MSTORE PUSH32 0x4576656E744C6F676765723A2063616C6C6572206973206E6F7420616E206175 DUP2 DUP8 ADD MSTORE PUSH15 0x3A3437B934B9B2B2103637B3B3B2B9 PUSH1 0x89 SHL PUSH1 0x64 DUP3 ADD MSTORE PUSH1 0x84 SWAP1 REVERT JUMPDEST POP PUSH1 0x0 SLOAD PUSH1 0x1 PUSH1 0x1 PUSH1 0xA0 SHL SUB AND CALLER EQ PUSH2 0x78C JUMP JUMPDEST CALLVALUE PUSH2 0x10B JUMPI PUSH1 0x20 CALLDATASIZE PUSH1 0x3 NOT ADD SLT PUSH2 0x10B JUMPI PUSH1 0x4 CALLDATALOAD PUSH1 0x1 PUSH1 0x1 PUSH1 0xA0 SHL SUB DUP2 DUP2 AND SWAP2 DUP3 SWAP1 SUB PUSH2 0x10B JUMPI PUSH2 0xED4 SWAP1 PUSH1 0x0 SLOAD AND CALLER EQ PUSH2 0x123C JUMP JUMPDEST PUSH2 0xEDF DUP2 ISZERO ISZERO PUSH2 0x1294 JUMP JUMPDEST DUP1 PUSH1 0x0 MSTORE PUSH1 0x1 PUSH1 0x20 MSTORE PUSH1 0x40 PUSH1 0x0 KECCAK256 PUSH1 0x1 PUSH1 0xFF NOT DUP3 SLOAD AND OR SWAP1 SSTORE PUSH32 0xBAF50F1390D6561FE8E0E2A9E307D281AD65B2747CAE40E6D2DF01779FE4A109 PUSH1 0x20 PUSH1 0x40 MLOAD TIMESTAMP DUP2 MSTORE LOG2 STOP JUMPDEST CALLVALUE PUSH2 0x10B JUMPI PUSH1 0x20 SWAP1 DUP2 PUSH1 0x3 NOT CALLDATASIZE ADD SLT PUSH2 0x10B JUMPI PUSH1 0x4 CALLDATALOAD PUSH1 0x0 MSTORE PUSH1 0x3 DUP3 MSTORE PUSH1 0x40 PUSH1 0x0 KECCAK256 SWAP2 DUP3 SLOAD DUP1 DUP4 MSTORE DUP2 DUP4 ADD SWAP4 PUSH1 0x0 MSTORE DUP2 PUSH1 0x0 KECCAK256 SWAP2 PUSH1 0x0 SWAP1 JUMPDEST DUP3 DUP3 LT PUSH2 0xF73 JUMPI PUSH2 0x3C4 DUP6 PUSH2 0x6CF DUP2 DUP10 SUB DUP3 PUSH2 0x104A JUMP JUMPDEST DUP4 SLOAD DUP7 MSTORE SWAP5 DUP6 ADD SWAP5 PUSH1 0x1 SWAP4 DUP5 ADD SWAP4 SWAP1 SWAP2 ADD SWAP1 PUSH2 0xF5C JUMP JUMPDEST PUSH1 0x20 SWAP1 DUP2 PUSH1 0x40 DUP2 DUP4 ADD SWAP3 DUP3 DUP2 MSTORE DUP6 MLOAD DUP1 SWAP5 MSTORE ADD SWAP4 ADD SWAP2 PUSH1 0x0 JUMPDEST DUP3 DUP2 LT PUSH2 0xFB1 JUMPI POP POP POP POP SWAP1 JUMP JUMPDEST DUP4 MLOAD DUP6 MSTORE SWAP4 DUP2 ADD SWAP4 SWAP3 DUP2 ADD SWAP3 PUSH1 0x1 ADD PUSH2 0xFA3 JUMP JUMPDEST SWAP2 DUP2 PUSH1 0x1F DUP5 ADD SLT ISZERO PUSH2 0x10B JUMPI DUP3 CALLDATALOAD SWAP2 PUSH8 0xFFFFFFFFFFFFFFFF DUP4 GT PUSH2 0x10B JUMPI PUSH1 0x20 DUP4 DUP2 DUP7 ADD SWAP6 ADD ADD GT PUSH2 0x10B JUMPI JUMP JUMPDEST SWAP1 PUSH1 0x1 DUP3 DUP2 SHR SWAP3 AND DUP1 ISZERO PUSH2 0x1023 JUMPI JUMPDEST PUSH1 0x20 DUP4 LT EQ PUSH2 0x100D JUMPI JUMP JUMPDEST PUSH4 0x4E487B71 PUSH1 0xE0 SHL PUSH1 0x0 MSTORE PUSH1 0x22 PUSH1 0x4 MSTORE PUSH1 0x24 PUSH1 0x0 REVERT JUMPDEST SWAP2 PUSH1 0x7F AND SWAP2 PUSH2 0x1002 JUMP JUMPDEST PUSH2 0x140 DUP2 ADD SWAP1 DUP2 LT PUSH8 0xFFFFFFFFFFFFFFFF DUP3 GT OR PUSH2 0xB52 JUMPI PUSH1 0x40 MSTORE JUMP JUMPDEST SWAP1 PUSH1 0x1F DUP1 NOT SWAP2 ADD AND DUP2 ADD SWAP1 DUP2 LT PUSH8 0xFFFFFFFFFFFFFFFF DUP3 GT OR PUSH2 0xB52 JUMPI PUSH1 0x40 MSTORE JUMP JUMPDEST SWAP1 PUSH1 0x40 MLOAD SWAP2 DUP3 PUSH1 0x0 DUP3 SLOAD SWAP3 PUSH2 0x1080 DUP5 PUSH2 0xFF3 JUMP JUMPDEST SWAP1 DUP2 DUP5 MSTORE PUSH1 0x1 SWAP5 DUP6 DUP2 AND SWAP1 DUP2 PUSH1 0x0 EQ PUSH2 0x10EF JUMPI POP PUSH1 0x1 EQ PUSH2 0x10AC JUMPI JUMPDEST POP POP PUSH2 0x10AA SWAP3 POP SUB DUP4 PUSH2 0x104A JUMP JUMPDEST JUMP JUMPDEST SWAP1 SWAP4 SWAP2 POP PUSH1 0x0 MSTORE PUSH1 0x20 SWAP1 DUP2 PUSH1 0x0 KECCAK256 SWAP4 PUSH1 0x0 SWAP2 JUMPDEST DUP2 DUP4 LT PUSH2 0x10D7 JUMPI POP POP PUSH2 0x10AA SWAP4 POP DUP3 ADD ADD CODESIZE DUP1 PUSH2 0x109C JUMP JUMPDEST DUP6 SLOAD DUP9 DUP5 ADD DUP6 ADD MSTORE SWAP5 DUP6 ADD SWAP5 DUP8 SWAP5 POP SWAP2 DUP4 ADD SWAP2 PUSH2 0x10BF JUMP JUMPDEST SWAP2 POP POP PUSH2 0x10AA SWAP5 POP PUSH1 0x20 SWAP3 POP PUSH1 0xFF NOT AND DUP3 DUP5 ADD MSTORE ISZERO ISZERO PUSH1 0x5 SHL DUP3 ADD ADD CODESIZE DUP1 PUSH2 0x109C JUMP JUMPDEST SWAP1 PUSH1 0xC DUP3 LT ISZERO PUSH2 0xD08 JUMPI MSTORE JUMP JUMPDEST SWAP2 SWAP1 DUP3 MLOAD SWAP3 DUP4 DUP3 MSTORE PUSH1 0x0 JUMPDEST DUP5 DUP2 LT PUSH2 0x114B JUMPI POP POP DUP3 PUSH1 0x0 PUSH1 0x20 DUP1 SWAP5 SWAP6 DUP5 ADD ADD MSTORE PUSH1 0x1F DUP1 NOT SWAP2 ADD AND ADD ADD SWAP1 JUMP JUMPDEST PUSH1 0x20 DUP2 DUP4 ADD DUP2 ADD MLOAD DUP5 DUP4 ADD DUP3 ADD MSTORE ADD PUSH2 0x112A JUMP JUMPDEST PUSH1 0x40 SWAP1 PUSH1 0x3 NOT ADD SLT PUSH2 0x10B JUMPI PUSH1 0x4 CALLDATALOAD SWAP1 PUSH1 0x24 CALLDATALOAD SWAP1 JUMP JUMPDEST DUP1 SLOAD DUP3 LT ISZERO PUSH2 0x118D JUMPI PUSH1 0x0 MSTORE PUSH1 0x20 PUSH1 0x0 KECCAK256 ADD SWAP1 PUSH1 0x0 SWAP1 JUMP JUMPDEST PUSH4 0x4E487B71 PUSH1 0xE0 SHL PUSH1 0x0 MSTORE PUSH1 0x32 PUSH1 0x4 MSTORE PUSH1 0x24 PUSH1 0x0 REVERT JUMPDEST SWAP1 DUP2 MLOAD DUP2 MSTORE PUSH1 0x20 DUP3 ADD MLOAD PUSH1 0x20 DUP3 ADD MSTORE PUSH1 0x40 DUP3 ADD MLOAD PUSH1 0x40 DUP3 ADD MSTORE PUSH2 0x11CE PUSH1 0x60 DUP4 ADD MLOAD PUSH1 0x60 DUP4 ADD SWAP1 PUSH2 0x1112 JUMP JUMPDEST PUSH1 0x80 DUP3 ADD MLOAD PUSH1 0x80 DUP3 ADD MSTORE PUSH2 0x121B PUSH2 0x1209 PUSH2 0x11F7 PUSH1 0xA0 DUP6 ADD MLOAD PUSH2 0x140 DUP1 PUSH1 0xA0 DUP8 ADD MSTORE DUP6 ADD SWAP1 PUSH2 0x111F JUMP JUMPDEST PUSH1 0xC0 DUP6 ADD MLOAD DUP5 DUP3 SUB PUSH1 0xC0 DUP7 ADD MSTORE PUSH2 0x111F JUMP JUMPDEST PUSH1 0xE0 DUP5 ADD MLOAD DUP4 DUP3 SUB PUSH1 0xE0 DUP6 ADD MSTORE PUSH2 0x111F JUMP JUMPDEST SWAP2 PUSH2 0x100 PUSH1 0x1 DUP1 PUSH1 0xA0 SHL SUB DUP2 DUP4 ADD MLOAD AND SWAP1 DUP4 ADD MSTORE PUSH2 0x120 DUP1 SWAP2 ADD MLOAD SWAP2 ADD MSTORE SWAP1 JUMP JUMPDEST ISZERO PUSH2 0x1243 JUMPI JUMP JUMPDEST PUSH1 0x40 MLOAD PUSH3 0x461BCD PUSH1 0xE5 SHL DUP2 MSTORE PUSH1 0x20 PUSH1 0x4 DUP3 ADD MSTORE PUSH1 0x24 DUP1 DUP3 ADD MSTORE PUSH32 0x4576656E744C6F676765723A2063616C6C6572206973206E6F7420746865206F PUSH1 0x44 DUP3 ADD MSTORE PUSH4 0x3BB732B9 PUSH1 0xE1 SHL PUSH1 0x64 DUP3 ADD MSTORE PUSH1 0x84 SWAP1 REVERT JUMPDEST ISZERO PUSH2 0x129B JUMPI JUMP JUMPDEST PUSH1 0x40 MLOAD PUSH3 0x461BCD PUSH1 0xE5 SHL DUP2 MSTORE PUSH1 0x20 PUSH1 0x4 DUP3 ADD MSTORE PUSH1 0x19 PUSH1 0x24 DUP3 ADD MSTORE PUSH32 0x4576656E744C6F676765723A207A65726F206164647265737300000000000000 PUSH1 0x44 DUP3 ADD MSTORE PUSH1 0x64 SWAP1 REVERT JUMPDEST PUSH1 0x0 NOT DUP2 EQ PUSH2 0x2A6 JUMPI PUSH1 0x1 ADD SWAP1 JUMP JUMPDEST PUSH1 0xC DUP3 LT ISZERO PUSH2 0xD08 JUMPI MSTORE JUMP JUMPDEST SWAP3 SWAP2 SWAP3 PUSH8 0xFFFFFFFFFFFFFFFF DUP3 GT PUSH2 0xB52 JUMPI PUSH1 0x40 MLOAD SWAP2 PUSH2 0x1325 PUSH1 0x1F DUP3 ADD PUSH1 0x1F NOT AND PUSH1 0x20 ADD DUP5 PUSH2 0x104A JUMP JUMPDEST DUP3 SWAP5 DUP2 DUP5 MSTORE DUP2 DUP4 ADD GT PUSH2 0x10B JUMPI DUP3 DUP2 PUSH1 0x20 SWAP4 DUP5 PUSH1 0x0 SWAP7 ADD CALLDATACOPY ADD ADD MSTORE JUMP JUMPDEST DUP1 SLOAD PUSH9 0x10000000000000000 DUP2 LT ISZERO PUSH2 0xB52 JUMPI PUSH2 0x1364 SWAP2 PUSH1 0x1 DUP3 ADD DUP2 SSTORE PUSH2 0x1175 JUMP JUMPDEST DUP2 SWAP3 SWAP2 SLOAD SWAP1 PUSH1 0x3 SHL SWAP2 DUP3 SHL SWAP2 PUSH1 0x0 NOT SWAP1 SHL NOT AND OR SWAP1 SSTORE JUMP JUMPDEST SWAP1 DUP1 PUSH1 0x20 SWAP4 SWAP3 DUP2 DUP5 MSTORE DUP5 DUP5 ADD CALLDATACOPY PUSH1 0x0 DUP3 DUP3 ADD DUP5 ADD MSTORE PUSH1 0x1F ADD PUSH1 0x1F NOT AND ADD ADD SWAP1 JUMP JUMPDEST PUSH1 0x40 MLOAD SWAP1 PUSH2 0x13AA DUP3 PUSH2 0x102D JUMP JUMPDEST DUP2 PUSH2 0x120 PUSH1 0x0 SWAP2 DUP3 DUP2 MSTORE DUP3 PUSH1 0x20 DUP3 ADD MSTORE DUP3 PUSH1 0x40 DUP3 ADD MSTORE DUP3 PUSH1 0x60 DUP3 ADD MSTORE DUP3 PUSH1 0x80 DUP3 ADD MSTORE PUSH1 0x60 PUSH1 0xA0 DUP3 ADD MSTORE PUSH1 0x60 PUSH1 0xC0 DUP3 ADD MSTORE PUSH1 0x60 PUSH1 0xE0 DUP3 ADD MSTORE DUP3 PUSH2 0x100 DUP3 ADD MSTORE ADD MSTORE JUMP JUMPDEST PUSH8 0xFFFFFFFFFFFFFFFF DUP2 GT PUSH2 0xB52 JUMPI PUSH1 0x5 SHL PUSH1 0x20 ADD SWAP1 JUMP JUMPDEST DUP1 MLOAD DUP3 LT ISZERO PUSH2 0x118D JUMPI PUSH1 0x20 SWAP2 PUSH1 0x5 SHL ADD ADD SWAP1 JUMP INVALID LOG2 PUSH5 0x6970667358 0x22 SLT KECCAK256 SLT SWAP8 0xE9 PUSH28 0x9A86972B1E92FAA8D91DD3D08AFD0E6650EA23C4C6D647114ADDCE6C PUSH5 0x736F6C6343 STOP ADDMOD SGT STOP CALLER "},"methodIdentifiers":{"authoriseLogger(address)":"448078a1","authorisedLoggers(address)":"c0a4c49d","getLogEntry(uint256)":"d16ac0de","getLogIdsByPipeline(uint256)":"23d1aca0","getLogIdsByRun(uint256)":"7d578be9","getRecentLogs(uint256)":"e52e64f9","logCount()":"a503898f","logEntries(uint256)":"88702ee9","logEvent(uint256,uint256,uint8,bytes32,string,string,string)":"5f7952db","logsByPipeline(uint256,uint256)":"a6586066","logsByRun(uint256,uint256)":"a3f2e86a","owner()":"8da5cb5b","revokeLogger(address)":"b16b1e2d","transferOwnership(address)":"f2fde38b"}}}}}