{"contracts/PipelineRegistry.sol":{"PipelineRegistry":{"abi":[{"inputs":[],"stateMutability":"nonpayable","type":"constructor"},{"anonymous":false,"inputs":[{"indexed":true,"internalType":"uint256","name":"pipelineId","type":"uint256"},{"indexed":false,"internalType":"bytes32","name":"oldHash","type":"bytes32"},{"indexed":false,"internalType":"bytes32","name":"newHash","type":"bytes32"},{"indexed":true,"internalType":"address","name":"updatedBy","type":"address"},{"indexed":false,"internalType":"uint256","name":"timestamp","type":"uint256"}],"name":"PipelineHashUpdated","type":"event"},{"anonymous":false,"inputs":[{"indexed":true,"internalType":"uint256","name":"pipelineId","type":"uint256"},{"indexed":false,"internalType":"string","name":"name","type":"string"},{"indexed":false,"internalType":"bytes32","name":"configHash","type":"bytes32"},{"indexed":true,"internalType":"address","name":"registeredBy","type":"address"},{"indexed":false,"internalType":"uint256","name":"timestamp","type":"uint256"}],"name":"PipelineRegistered","type":"event"},{"anonymous":false,"inputs":[{"indexed":true,"internalType":"uint256","name":"pipelineId","type":"uint256"},{"indexed":true,"internalType":"address","name":"revokedBy","type":"address"},{"indexed":false,"internalType":"uint256","name":"timestamp","type":"uint256"}],"name":"PipelineRevoked","type":"event"},{"inputs":[{"internalType":"uint256","name":"","type":"uint256"}],"name":"approvedHashes","outputs":[{"internalType":"bytes32","name":"","type":"bytes32"}],"stateMutability":"view","type":"function"},{"inputs":[{"internalType":"uint256","name":"pipelineId","type":"uint256"}],"name":"getPipeline","outputs":[{"internalType":"string","name":"name","type":"string"},{"internalType":"bytes32","name":"configHash","type":"bytes32"},{"internalType":"bool","name":"registered","type":"bool"},{"internalType":"bool","name":"revoked","type":"bool"}],"stateMutability":"view","type":"function"},{"inputs":[{"internalType":"uint256","name":"","type":"uint256"}],"name":"isRegistered","outputs":[{"internalType":"bool","name":"","type":"bool"}],"stateMutability":"view","type":"function"},{"inputs":[{"internalType":"uint256","name":"","type":"uint256"}],"name":"isRevoked","outputs":[{"internalType":"bool","name":"","type":"bool"}],"stateMutability":"view","type":"function"},{"inputs":[],"name":"owner","outputs":[{"internalType":"address","name":"","type":"address"}],"stateMutability":"view","type":"function"},{"inputs":[],"name":"pipelineCount","outputs":[{"internalType":"uint256","name":"","type":"uint256"}],"stateMutability":"view","type":"function"},{"inputs":[{"internalType":"uint256","name":"","type":"uint256"}],"name":"pipelineNames","outputs":[{"internalType":"string","name":"","type":"string"}],"stateMutability":"view","type":"function"},{"inputs":[{"internalType":"string","name":"name","type":"string"},{"internalType":"bytes32","name":"configHash","type":"bytes32"}],"name":"registerPipeline","outputs":[{"internalType":"uint256","name":"pipelineId","type":"uint256"}],"stateMutability":"nonpayable","type":"function"},{"inputs":[{"internalType":"uint256","name":"pipelineId","type":"uint256"}],"name":"revokePipeline","outputs":[],"stateMutability":"nonpayable","type":"function"},{"inputs":[{"internalType":"address","name":"newOwner","type":"address"}],"name":"transferOwnership","outputs":[],"stateMutability":"nonpayable","type":"function"},{"inputs":[{"internalType":"uint256","name":"pipelineId","type":"uint256"},{"internalType":"bytes32","name":"newHash","type":"bytes32"}],"name":"updateApprovedHash","outputs":[],"stateMutability":"nonpayable","type":"function"},{"inputs":[{"internalType":"uint256","name":"pipelineId","type":"uint256"},{"internalType":"bytes32","name":"candidateHash","type":"bytes32"}],"name":"verifyHash","outputs":[{"internalType":"bool","name":"isValid","type":"bool"}],"stateMutability":"view","type":"function"}],"evm":{"bytecode":{"linkReferences":{},"object":"6080806040523461002857600080546001600160a01b03191633179055610a66908161002e8239f35b600080fdfe60406080815260048036101561001457600080fd5b600091823560e01c80631a344200146106ea5780631ad94bd2146106515780632ab4d70a14610632578063579a6988146106055780635c67ee801461055d5780635ccc561e146105315780638d81b0c5146102405780638da5cb5b14610218578063d5b26c7f146101a4578063e29aaf521461017c578063ec06d73b146101535763f2fde38b146100a457600080fd5b3461014f57602036600319011261014f576001600160a01b0382358181169391929084900361014b576100dc8554938416331461088b565b83156100f45750506001600160a01b03191617815580f35b906020608492519162461bcd60e51b8352820152602b60248201527f506970656c696e6552656769737472793a206e6577206f776e6572206973207a60448201526a65726f206164647265737360a81b6064820152fd5b8480fd5b8280fd5b8382346101785760209061016f61016936610870565b906109f5565b90519015158152f35b5080fd5b50903461014f57602036600319011261014f5760209282913581526002845220549051908152f35b50919034610178576020908160031936011261014f5761020393813584526001835280842091600284526101ef60ff8380882054976003885282828220541694885220541693610765565b948251968796608088526080880190610830565b94860152151590840152151560608301520390f35b838234610178578160031936011261017857905490516001600160a01b039091168152602090f35b5082903461017857806003193601126101785782359167ffffffffffffffff9081841161052e573660238501121561052e578385013591821161052e5760249336858483010111610178578435906102a260018060a01b03845416331461088b565b83156104dd576102b38215156108e9565b60055491600019938484146104cb578560018095019889958660055586845260209b8c98828a528b8620906102e8825461072b565b601f8111610452575b50869a601f87116001146103ae575085857f8f82f10a15e459ea39525acdaadc1980bd98aadb84512d0a10cf131d1dddd0a19b9c89926103a1575b505086851b918760031b1c19161790555b88855260028d52858b86205560038d528a852060ff1992838254161790558c5289842090815416905588519460608652826060870152016080850137608086840101528782015242858201526080813395601f80199101168101030190a351908152f35b8b0101359050853861032c565b909a601f1987168389528289209289905b82821061041e5750507f8f82f10a15e459ea39525acdaadc1980bd98aadb84512d0a10cf131d1dddd0a19b9c88889210610404575b505050508285811b01905561033d565b60f88960031b161c19918b0101351690558e8085816103f4565b9296889b9d508392948d9f96998493989b5089839d9f01013581550196019401918f9b9996939c9a9895928e9895926103bf565b91949799509295979991945083885281882090601f8c0160051c8201928c106104c1575b928b95928f9b999794928f9b999693601f0160051c01905b81811061049b57506102f1565b889a9c508598919497508092959396999b505501928d999795928b95928e9a989561048e565b9091508190610476565b634e487b7160e01b8152601189528790fd5b845162461bcd60e51b81526020818901526026818801527f506970656c696e6552656769737472793a206e616d652063616e6e6f7420626560448201526520656d70747960d01b6064820152608490fd5b80fd5b50903461014f57602036600319011261014f57816020938260ff93358252855220541690519015158152f35b50903461014f5761056d36610870565b92909161058460018060a01b03865416331461088b565b828552600360205261059b60ff8387205416610943565b8285526020526105b160ff82862054161561099b565b6105bc8315156108e9565b81845260026020528084209280845494558151938452602084015242908301527f334a39b855bd75e8ed251c329d5a258a9df9776f4dfa938f9243f10d0c9a3f9460603393a380f35b50903461014f57602036600319011261014f578160209360ff923581526003855220541690519015158152f35b8382346101785781600319360112610178576020906005549051908152f35b503461014f57602036600319011261014f5781359161067a60018060a01b03855416331461088b565b828452600360205261069160ff8386205416610943565b828452806020526106a860ff83862054161561099b565b828452602052808320600160ff1982541617905551904282527f229306e0e9410f55a7429f597d3a1348ccd6cde05a04020175113b51f651023460203393a380f35b50903461014f57602036600319011261014f57816107279361071492358152600160205220610765565b9051918291602083526020830190610830565b0390f35b90600182811c9216801561075b575b602083101461074557565b634e487b7160e01b600052602260045260246000fd5b91607f169161073a565b90604051916000908054906107798261072b565b90818652600192838116908160001461080f57506001146107d2575b505050829003601f01601f1916820167ffffffffffffffff8111838210176107bc57604052565b634e487b7160e01b600052604160045260246000fd5b9092506000526020918260002091836000935b8385106107fb5750505050830101388080610795565b8054888601830152930192849082016107e5565b92935050506020925060ff191682850152151560051b830101388080610795565b919082519283825260005b84811061085c575050826000602080949584010152601f8019910116010190565b60208183018101518483018201520161083b565b6040906003190112610886576004359060243590565b600080fd5b1561089257565b60405162461bcd60e51b815260206004820152602960248201527f506970656c696e6552656769737472793a2063616c6c6572206973206e6f74206044820152683a34329037bbb732b960b91b6064820152608490fd5b156108f057565b60405162461bcd60e51b815260206004820152602560248201527f506970656c696e6552656769737472793a20686173682063616e6e6f74206265604482015264207a65726f60d81b6064820152608490fd5b1561094a57565b60405162461bcd60e51b8152602060048201526024808201527f506970656c696e6552656769737472793a20706970656c696e65206e6f7420666044820152631bdd5b9960e21b6064820152608490fd5b156109a257565b60405162461bcd60e51b815260206004820152602560248201527f506970656c696e6552656769737472793a20706970656c696e652069732072656044820152641d9bdad95960da1b6064820152608490fd5b6000908152600360205260ff60408220541615610a2b57600460205260ff604082205416610a2b57604090600260205220541490565b90509056fea26469706673582212201dff78d4f9d056a3ad5fe4ea18ac0ab6923bea0cd36b0afa5582661fba5d68c464736f6c63430008130033","opcodes":"PUSH1 0x80 DUP1 PUSH1 0x40 MSTORE CALLVALUE PUSH2 0x28 JUMPI PUSH1 0x0 DUP1 SLOAD PUSH1 0x1 PUSH1 0x1 PUSH1 0xA0 SHL SUB NOT AND CALLER OR SWAP1 SSTORE PUSH2 0xA66 SWAP1 DUP2 PUSH2 0x2E DUP3 CODECOPY RETURN JUMPDEST PUSH1 0x0 DUP1 REVERT INVALID PUSH1 0x40 PUSH1 0x80 DUP2 MSTORE PUSH1 0x4 DUP1 CALLDATASIZE LT ISZERO PUSH2 0x14 JUMPI PUSH1 0x0 DUP1 REVERT JUMPDEST PUSH1 0x0 SWAP2 DUP3 CALLDATALOAD PUSH1 0xE0 SHR DUP1 PUSH4 0x1A344200 EQ PUSH2 0x6EA JUMPI DUP1 PUSH4 0x1AD94BD2 EQ PUSH2 0x651 JUMPI DUP1 PUSH4 0x2AB4D70A EQ PUSH2 0x632 JUMPI DUP1 PUSH4 0x579A6988 EQ PUSH2 0x605 JUMPI DUP1 PUSH4 0x5C67EE80 EQ PUSH2 0x55D JUMPI DUP1 PUSH4 0x5CCC561E EQ PUSH2 0x531 JUMPI DUP1 PUSH4 0x8D81B0C5 EQ PUSH2 0x240 JUMPI DUP1 PUSH4 0x8DA5CB5B EQ PUSH2 0x218 JUMPI DUP1 PUSH4 0xD5B26C7F EQ PUSH2 0x1A4 JUMPI DUP1 PUSH4 0xE29AAF52 EQ PUSH2 0x17C JUMPI DUP1 PUSH4 0xEC06D73B EQ PUSH2 0x153 JUMPI PUSH4 0xF2FDE38B EQ PUSH2 0xA4 JUMPI PUSH1 0x0 DUP1 REVERT JUMPDEST CALLVALUE PUSH2 0x14F JUMPI PUSH1 0x20 CALLDATASIZE PUSH1 0x3 NOT ADD SLT PUSH2 0x14F JUMPI PUSH1 0x1 PUSH1 0x1 PUSH1 0xA0 SHL SUB DUP3 CALLDATALOAD DUP2 DUP2 AND SWAP4 SWAP2 SWAP3 SWAP1 DUP5 SWAP1 SUB PUSH2 0x14B JUMPI PUSH2 0xDC DUP6 SLOAD SWAP4 DUP5 AND CALLER EQ PUSH2 0x88B JUMP JUMPDEST DUP4 ISZERO PUSH2 0xF4 JUMPI POP POP PUSH1 0x1 PUSH1 0x1 PUSH1 0xA0 SHL SUB NOT AND OR DUP2 SSTORE DUP1 RETURN JUMPDEST SWAP1 PUSH1 0x20 PUSH1 0x84 SWAP3 MLOAD SWAP2 PUSH3 0x461BCD PUSH1 0xE5 SHL DUP4 MSTORE DUP3 ADD MSTORE PUSH1 0x2B PUSH1 0x24 DUP3 ADD MSTORE PUSH32 0x506970656C696E6552656769737472793A206E6577206F776E6572206973207A PUSH1 0x44 DUP3 ADD MSTORE PUSH11 0x65726F2061646472657373 PUSH1 0xA8 SHL PUSH1 0x64 DUP3 ADD MSTORE REVERT JUMPDEST DUP5 DUP1 REVERT JUMPDEST DUP3 DUP1 REVERT JUMPDEST DUP4 DUP3 CALLVALUE PUSH2 0x178 JUMPI PUSH1 0x20 SWAP1 PUSH2 0x16F PUSH2 0x169 CALLDATASIZE PUSH2 0x870 JUMP JUMPDEST SWAP1 PUSH2 0x9F5 JUMP JUMPDEST SWAP1 MLOAD SWAP1 ISZERO ISZERO DUP2 MSTORE RETURN JUMPDEST POP DUP1 REVERT JUMPDEST POP SWAP1 CALLVALUE PUSH2 0x14F JUMPI PUSH1 0x20 CALLDATASIZE PUSH1 0x3 NOT ADD SLT PUSH2 0x14F JUMPI PUSH1 0x20 SWAP3 DUP3 SWAP2 CALLDATALOAD DUP2 MSTORE PUSH1 0x2 DUP5 MSTORE KECCAK256 SLOAD SWAP1 MLOAD SWAP1 DUP2 MSTORE RETURN JUMPDEST POP SWAP2 SWAP1 CALLVALUE PUSH2 0x178 JUMPI PUSH1 0x20 SWAP1 DUP2 PUSH1 0x3 NOT CALLDATASIZE ADD SLT PUSH2 0x14F JUMPI PUSH2 0x203 SWAP4 DUP2 CALLDATALOAD DUP5 MSTORE PUSH1 0x1 DUP4 MSTORE DUP1 DUP5 KECCAK256 SWAP2 PUSH1 0x2 DUP5 MSTORE PUSH2 0x1EF PUSH1 0xFF DUP4 DUP1 DUP9 KECCAK256 SLOAD SWAP8 PUSH1 0x3 DUP9 MSTORE DUP3 DUP3 DUP3 KECCAK256 SLOAD AND SWAP5 DUP9 MSTORE KECCAK256 SLOAD AND SWAP4 PUSH2 0x765 JUMP JUMPDEST SWAP5 DUP3 MLOAD SWAP7 DUP8 SWAP7 PUSH1 0x80 DUP9 MSTORE PUSH1 0x80 DUP9 ADD SWAP1 PUSH2 0x830 JUMP JUMPDEST SWAP5 DUP7 ADD MSTORE ISZERO ISZERO SWAP1 DUP5 ADD MSTORE ISZERO ISZERO PUSH1 0x60 DUP4 ADD MSTORE SUB SWAP1 RETURN JUMPDEST DUP4 DUP3 CALLVALUE PUSH2 0x178 JUMPI DUP2 PUSH1 0x3 NOT CALLDATASIZE ADD SLT PUSH2 0x178 JUMPI SWAP1 SLOAD SWAP1 MLOAD PUSH1 0x1 PUSH1 0x1 PUSH1 0xA0 SHL SUB SWAP1 SWAP2 AND DUP2 MSTORE PUSH1 0x20 SWAP1 RETURN JUMPDEST POP DUP3 SWAP1 CALLVALUE PUSH2 0x178 JUMPI DUP1 PUSH1 0x3 NOT CALLDATASIZE ADD SLT PUSH2 0x178 JUMPI DUP3 CALLDATALOAD SWAP2 PUSH8 0xFFFFFFFFFFFFFFFF SWAP1 DUP2 DUP5 GT PUSH2 0x52E JUMPI CALLDATASIZE PUSH1 0x23 DUP6 ADD SLT ISZERO PUSH2 0x52E JUMPI DUP4 DUP6 ADD CALLDATALOAD SWAP2 DUP3 GT PUSH2 0x52E JUMPI PUSH1 0x24 SWAP4 CALLDATASIZE DUP6 DUP5 DUP4 ADD ADD GT PUSH2 0x178 JUMPI DUP5 CALLDATALOAD SWAP1 PUSH2 0x2A2 PUSH1 0x1 DUP1 PUSH1 0xA0 SHL SUB DUP5 SLOAD AND CALLER EQ PUSH2 0x88B JUMP JUMPDEST DUP4 ISZERO PUSH2 0x4DD JUMPI PUSH2 0x2B3 DUP3 ISZERO ISZERO PUSH2 0x8E9 JUMP JUMPDEST PUSH1 0x5 SLOAD SWAP2 PUSH1 0x0 NOT SWAP4 DUP5 DUP5 EQ PUSH2 0x4CB JUMPI DUP6 PUSH1 0x1 DUP1 SWAP6 ADD SWAP9 DUP10 SWAP6 DUP7 PUSH1 0x5 SSTORE DUP7 DUP5 MSTORE PUSH1 0x20 SWAP12 DUP13 SWAP9 DUP3 DUP11 MSTORE DUP12 DUP7 KECCAK256 SWAP1 PUSH2 0x2E8 DUP3 SLOAD PUSH2 0x72B JUMP JUMPDEST PUSH1 0x1F DUP2 GT PUSH2 0x452 JUMPI JUMPDEST POP DUP7 SWAP11 PUSH1 0x1F DUP8 GT PUSH1 0x1 EQ PUSH2 0x3AE JUMPI POP DUP6 DUP6 PUSH32 0x8F82F10A15E459EA39525ACDAADC1980BD98AADB84512D0A10CF131D1DDDD0A1 SWAP12 SWAP13 DUP10 SWAP3 PUSH2 0x3A1 JUMPI JUMPDEST POP POP DUP7 DUP6 SHL SWAP2 DUP8 PUSH1 0x3 SHL SHR NOT AND OR SWAP1 SSTORE JUMPDEST DUP9 DUP6 MSTORE PUSH1 0x2 DUP14 MSTORE DUP6 DUP12 DUP7 KECCAK256 SSTORE PUSH1 0x3 DUP14 MSTORE DUP11 DUP6 KECCAK256 PUSH1 0xFF NOT SWAP3 DUP4 DUP3 SLOAD AND OR SWAP1 SSTORE DUP13 MSTORE DUP10 DUP5 KECCAK256 SWAP1 DUP2 SLOAD AND SWAP1 SSTORE DUP9 MLOAD SWAP5 PUSH1 0x60 DUP7 MSTORE DUP3 PUSH1 0x60 DUP8 ADD MSTORE ADD PUSH1 0x80 DUP6 ADD CALLDATACOPY PUSH1 0x80 DUP7 DUP5 ADD ADD MSTORE DUP8 DUP3 ADD MSTORE TIMESTAMP DUP6 DUP3 ADD MSTORE PUSH1 0x80 DUP2 CALLER SWAP6 PUSH1 0x1F DUP1 NOT SWAP2 ADD AND DUP2 ADD SUB ADD SWAP1 LOG3 MLOAD SWAP1 DUP2 MSTORE RETURN JUMPDEST DUP12 ADD ADD CALLDATALOAD SWAP1 POP DUP6 CODESIZE PUSH2 0x32C JUMP JUMPDEST SWAP1 SWAP11 PUSH1 0x1F NOT DUP8 AND DUP4 DUP10 MSTORE DUP3 DUP10 KECCAK256 SWAP3 DUP10 SWAP1 JUMPDEST DUP3 DUP3 LT PUSH2 0x41E JUMPI POP POP PUSH32 0x8F82F10A15E459EA39525ACDAADC1980BD98AADB84512D0A10CF131D1DDDD0A1 SWAP12 SWAP13 DUP9 DUP9 SWAP3 LT PUSH2 0x404 JUMPI JUMPDEST POP POP POP POP DUP3 DUP6 DUP2 SHL ADD SWAP1 SSTORE PUSH2 0x33D JUMP JUMPDEST PUSH1 0xF8 DUP10 PUSH1 0x3 SHL AND SHR NOT SWAP2 DUP12 ADD ADD CALLDATALOAD AND SWAP1 SSTORE DUP15 DUP1 DUP6 DUP2 PUSH2 0x3F4 JUMP JUMPDEST SWAP3 SWAP7 DUP9 SWAP12 SWAP14 POP DUP4 SWAP3 SWAP5 DUP14 SWAP16 SWAP7 SWAP10 DUP5 SWAP4 SWAP9 SWAP12 POP DUP10 DUP4 SWAP14 SWAP16 ADD ADD CALLDATALOAD DUP2 SSTORE ADD SWAP7 ADD SWAP5 ADD SWAP2 DUP16 SWAP12 SWAP10 SWAP7 SWAP4 SWAP13 SWAP11 SWAP9 SWAP6 SWAP3 DUP15 SWAP9 SWAP6 SWAP3 PUSH2 0x3BF JUMP JUMPDEST SWAP2 SWAP5 SWAP8 SWAP10 POP SWAP3 SWAP6 SWAP8 SWAP10 SWAP2 SWAP5 POP DUP4 DUP9 MSTORE DUP2 DUP9 KECCAK256 SWAP1 PUSH1 0x1F DUP13 ADD PUSH1 0x5 SHR DUP3 ADD SWAP3 DUP13 LT PUSH2 0x4C1 JUMPI JUMPDEST SWAP3 DUP12 SWAP6 SWAP3 DUP16 SWAP12 SWAP10 SWAP8 SWAP5 SWAP3 DUP16 SWAP12 SWAP10 SWAP7 SWAP4 PUSH1 0x1F ADD PUSH1 0x5 SHR ADD SWAP1 JUMPDEST DUP2 DUP2 LT PUSH2 0x49B JUMPI POP PUSH2 0x2F1 JUMP JUMPDEST DUP9 SWAP11 SWAP13 POP DUP6 SWAP9 SWAP2 SWAP5 SWAP8 POP DUP1 SWAP3 SWAP6 SWAP4 SWAP7 SWAP10 SWAP12 POP SSTORE ADD SWAP3 DUP14 SWAP10 SWAP8 SWAP6 SWAP3 DUP12 SWAP6 SWAP3 DUP15 SWAP11 SWAP9 SWAP6 PUSH2 0x48E JUMP JUMPDEST SWAP1 SWAP2 POP DUP2 SWAP1 PUSH2 0x476 JUMP JUMPDEST PUSH4 0x4E487B71 PUSH1 0xE0 SHL DUP2 MSTORE PUSH1 0x11 DUP10 MSTORE DUP8 SWAP1 REVERT JUMPDEST DUP5 MLOAD PUSH3 0x461BCD PUSH1 0xE5 SHL DUP2 MSTORE PUSH1 0x20 DUP2 DUP10 ADD MSTORE PUSH1 0x26 DUP2 DUP9 ADD MSTORE PUSH32 0x506970656C696E6552656769737472793A206E616D652063616E6E6F74206265 PUSH1 0x44 DUP3 ADD MSTORE PUSH6 0x20656D707479 PUSH1 0xD0 SHL PUSH1 0x64 DUP3 ADD MSTORE PUSH1 0x84 SWAP1 REVERT JUMPDEST DUP1 REVERT JUMPDEST POP SWAP1 CALLVALUE PUSH2 0x14F JUMPI PUSH1 0x20 CALLDATASIZE PUSH1 0x3 NOT ADD SLT PUSH2 0x14F JUMPI DUP2 PUSH1 0x20 SWAP4 DUP3 PUSH1 0xFF SWAP4 CALLDATALOAD DUP3 MSTORE DUP6 MSTORE KECCAK256 SLOAD AND SWAP1 MLOAD SWAP1 ISZERO ISZERO DUP2 MSTORE RETURN JUMPDEST POP SWAP1 CALLVALUE PUSH2 0x14F JUMPI PUSH2 0x56D CALLDATASIZE PUSH2 0x870 JUMP JUMPDEST SWAP3 SWAP1 SWAP2 PUSH2 0x584 PUSH1 0x1 DUP1 PUSH1 0xA0 SHL SUB DUP7 SLOAD AND CALLER EQ PUSH2 0x88B JUMP JUMPDEST DUP3 DUP6 MSTORE PUSH1 0x3 PUSH1 0x20 MSTORE PUSH2 0x59B PUSH1 0xFF DUP4 DUP8 KECCAK256 SLOAD AND PUSH2 0x943 JUMP JUMPDEST DUP3 DUP6 MSTORE PUSH1 0x20 MSTORE PUSH2 0x5B1 PUSH1 0xFF DUP3 DUP7 KECCAK256 SLOAD AND ISZERO PUSH2 0x99B JUMP JUMPDEST PUSH2 0x5BC DUP4 ISZERO ISZERO PUSH2 0x8E9 JUMP JUMPDEST DUP2 DUP5 MSTORE PUSH1 0x2 PUSH1 0x20 MSTORE DUP1 DUP5 KECCAK256 SWAP3 DUP1 DUP5 SLOAD SWAP5 SSTORE DUP2 MLOAD SWAP4 DUP5 MSTORE PUSH1 0x20 DUP5 ADD MSTORE TIMESTAMP SWAP1 DUP4 ADD MSTORE PUSH32 0x334A39B855BD75E8ED251C329D5A258A9DF9776F4DFA938F9243F10D0C9A3F94 PUSH1 0x60 CALLER SWAP4 LOG3 DUP1 RETURN JUMPDEST POP SWAP1 CALLVALUE PUSH2 0x14F JUMPI PUSH1 0x20 CALLDATASIZE PUSH1 0x3 NOT ADD SLT PUSH2 0x14F JUMPI DUP2 PUSH1 0x20 SWAP4 PUSH1 0xFF SWAP3 CALLDATALOAD DUP2 MSTORE PUSH1 0x3 DUP6 MSTORE KECCAK256 SLOAD AND SWAP1 MLOAD SWAP1 ISZERO ISZERO DUP2 MSTORE RETURN JUMPDEST DUP4 DUP3 CALLVALUE PUSH2 0x178 JUMPI DUP2 PUSH1 0x3 NOT CALLDATASIZE ADD SLT PUSH2 0x178 JUMPI PUSH1 0x20 SWAP1 PUSH1 0x5 SLOAD SWAP1 MLOAD SWAP1 DUP2 MSTORE RETURN JUMPDEST POP CALLVALUE PUSH2 0x14F JUMPI PUSH1 0x20 CALLDATASIZE PUSH1 0x3 NOT ADD SLT PUSH2 0x14F JUMPI DUP2 CALLDATALOAD SWAP2 PUSH2 0x67A PUSH1 0x1 DUP1 PUSH1 0xA0 SHL SUB DUP6 SLOAD AND CALLER EQ PUSH2 0x88B JUMP JUMPDEST DUP3 DUP5 MSTORE PUSH1 0x3 PUSH1 0x20 MSTORE PUSH2 0x691 PUSH1 0xFF DUP4 DUP7 KECCAK256 SLOAD AND PUSH2 0x943 JUMP JUMPDEST DUP3 DUP5 MSTORE DUP1 PUSH1 0x20 MSTORE PUSH2 0x6A8 PUSH1 0xFF DUP4 DUP7 KECCAK256 SLOAD AND ISZERO PUSH2 0x99B JUMP JUMPDEST DUP3 DUP5 MSTORE PUSH1 0x20 MSTORE DUP1 DUP4 KECCAK256 PUSH1 0x1 PUSH1 0xFF NOT DUP3 SLOAD AND OR SWAP1 SSTORE MLOAD SWAP1 TIMESTAMP DUP3 MSTORE PUSH32 0x229306E0E9410F55A7429F597D3A1348CCD6CDE05A04020175113B51F6510234 PUSH1 0x20 CALLER SWAP4 LOG3 DUP1 RETURN JUMPDEST POP SWAP1 CALLVALUE PUSH2 0x14F JUMPI PUSH1 0x20 CALLDATASIZE PUSH1 0x3 NOT ADD SLT PUSH2 0x14F JUMPI DUP2 PUSH2 0x727 SWAP4 PUSH2 0x714 SWAP3 CALLDATALOAD DUP2 MSTORE PUSH1 0x1 PUSH1 0x20 MSTORE KECCAK256 PUSH2 0x765 JUMP JUMPDEST SWAP1 MLOAD SWAP2 DUP3 SWAP2 PUSH1 0x20 DUP4 MSTORE PUSH1 0x20 DUP4 ADD SWAP1 PUSH2 0x830 JUMP JUMPDEST SUB SWAP1 RETURN JUMPDEST SWAP1 PUSH1 0x1 DUP3 DUP2 SHR SWAP3 AND DUP1 ISZERO PUSH2 0x75B JUMPI JUMPDEST PUSH1 0x20 DUP4 LT EQ PUSH2 0x745 JUMPI JUMP JUMPDEST PUSH4 0x4E487B71 PUSH1 0xE0 SHL PUSH1 0x0 MSTORE PUSH1 0x22 PUSH1 0x4 MSTORE PUSH1 0x24 PUSH1 0x0 REVERT JUMPDEST SWAP2 PUSH1 0x7F AND SWAP2 PUSH2 0x73A JUMP JUMPDEST SWAP1 PUSH1 0x40 MLOAD SWAP2 PUSH1 0x0 SWAP1 DUP1 SLOAD SWAP1 PUSH2 0x779 DUP3 PUSH2 0x72B JUMP JUMPDEST SWAP1 DUP2 DUP7 MSTORE PUSH1 0x1 SWAP3 DUP4 DUP2 AND SWAP1 DUP2 PUSH1 0x0 EQ PUSH2 0x80F JUMPI POP PUSH1 0x1 EQ PUSH2 0x7D2 JUMPI JUMPDEST POP POP POP DUP3 SWAP1 SUB PUSH1 0x1F ADD PUSH1 0x1F NOT AND DUP3 ADD PUSH8 0xFFFFFFFFFFFFFFFF DUP2 GT DUP4 DUP3 LT OR PUSH2 0x7BC JUMPI PUSH1 0x40 MSTORE JUMP JUMPDEST PUSH4 0x4E487B71 PUSH1 0xE0 SHL PUSH1 0x0 MSTORE PUSH1 0x41 PUSH1 0x4 MSTORE PUSH1 0x24 PUSH1 0x0 REVERT JUMPDEST SWAP1 SWAP3 POP PUSH1 0x0 MSTORE PUSH1 0x20 SWAP2 DUP3 PUSH1 0x0 KECCAK256 SWAP2 DUP4 PUSH1 0x0 SWAP4 JUMPDEST DUP4 DUP6 LT PUSH2 0x7FB JUMPI POP POP POP POP DUP4 ADD ADD CODESIZE DUP1 DUP1 PUSH2 0x795 JUMP JUMPDEST DUP1 SLOAD DUP9 DUP7 ADD DUP4 ADD MSTORE SWAP4 ADD SWAP3 DUP5 SWAP1 DUP3 ADD PUSH2 0x7E5 JUMP JUMPDEST SWAP3 SWAP4 POP POP POP PUSH1 0x20 SWAP3 POP PUSH1 0xFF NOT AND DUP3 DUP6 ADD MSTORE ISZERO ISZERO PUSH1 0x5 SHL DUP4 ADD ADD CODESIZE DUP1 DUP1 PUSH2 0x795 JUMP JUMPDEST SWAP2 SWAP1 DUP3 MLOAD SWAP3 DUP4 DUP3 MSTORE PUSH1 0x0 JUMPDEST DUP5 DUP2 LT PUSH2 0x85C JUMPI POP POP DUP3 PUSH1 0x0 PUSH1 0x20 DUP1 SWAP5 SWAP6 DUP5 ADD ADD MSTORE PUSH1 0x1F DUP1 NOT SWAP2 ADD AND ADD ADD SWAP1 JUMP JUMPDEST PUSH1 0x20 DUP2 DUP4 ADD DUP2 ADD MLOAD DUP5 DUP4 ADD DUP3 ADD MSTORE ADD PUSH2 0x83B JUMP JUMPDEST PUSH1 0x40 SWAP1 PUSH1 0x3 NOT ADD SLT PUSH2 0x886 JUMPI PUSH1 0x4 CALLDATALOAD SWAP1 PUSH1 0x24 CALLDATALOAD SWAP1 JUMP JUMPDEST PUSH1 0x0 DUP1 REVERT JUMPDEST ISZERO PUSH2 0x892 JUMPI JUMP JUMPDEST PUSH1 0x40 MLOAD PUSH3 0x461BCD PUSH1 0xE5 SHL DUP2 MSTORE PUSH1 0x20 PUSH1 0x4 DUP3 ADD MSTORE PUSH1 0x29 PUSH1 0x24 DUP3 ADD MSTORE PUSH32 0x506970656C696E6552656769737472793A2063616C6C6572206973206E6F7420 PUSH1 0x44 DUP3 ADD MSTORE PUSH9 0x3A34329037BBB732B9 PUSH1 0xB9 SHL PUSH1 0x64 DUP3 ADD MSTORE PUSH1 0x84 SWAP1 REVERT JUMPDEST ISZERO PUSH2 0x8F0 JUMPI JUMP JUMPDEST PUSH1 0x40 MLOAD PUSH3 0x461BCD PUSH1 0xE5 SHL DUP2 MSTORE PUSH1 0x20 PUSH1 0x4 DUP3 ADD MSTORE PUSH1 0x25 PUSH1 0x24 DUP3 ADD MSTORE PUSH32 0x506970656C696E6552656769737472793A20686173682063616E6E6F74206265 PUSH1 0x44 DUP3 ADD MSTORE PUSH5 0x207A65726F PUSH1 0xD8 SHL PUSH1 0x64 DUP3 ADD MSTORE PUSH1 0x84 SWAP1 REVERT JUMPDEST ISZERO PUSH2 0x94A JUMPI JUMP JUMPDEST PUSH1 0x40 MLOAD PUSH3 0x461BCD PUSH1 0xE5 SHL DUP2 MSTORE PUSH1 0x20 PUSH1 0x4 DUP3 ADD MSTORE PUSH1 0x24 DUP1 DUP3 ADD MSTORE PUSH32 0x506970656C696E6552656769737472793A20706970656C696E65206E6F742066 PUSH1 0x44 DUP3 ADD MSTORE PUSH4 0x1BDD5B99 PUSH1 0xE2 SHL PUSH1 0x64 DUP3 ADD MSTORE PUSH1 0x84 SWAP1 REVERT JUMPDEST ISZERO PUSH2 0x9A2 JUMPI JUMP JUMPDEST PUSH1 0x40 MLOAD PUSH3 0x461BCD PUSH1 0xE5 SHL DUP2 MSTORE PUSH1 0x20 PUSH1 0x4 DUP3 ADD MSTORE PUSH1 0x25 PUSH1 0x24 DUP3 ADD MSTORE PUSH32 0x506970656C696E6552656769737472793A20706970656C696E65206973207265 PUSH1 0x44 DUP3 ADD MSTORE PUSH5 0x1D9BDAD959 PUSH1 0xDA SHL PUSH1 0x64 DUP3 ADD MSTORE PUSH1 0x84 SWAP1 REVERT JUMPDEST PUSH1 0x0 SWAP1 DUP2 MSTORE PUSH1 0x3 PUSH1 0x20 MSTORE PUSH1 0xFF PUSH1 0x40 DUP3 KECCAK256 SLOAD AND ISZERO PUSH2 0xA2B JUMPI PUSH1 0x4 PUSH1 0x20 MSTORE PUSH1 0xFF PUSH1 0x40 DUP3 KECCAK256 SLOAD AND PUSH2 0xA2B JUMPI PUSH1 0x40 SWAP1 PUSH1 0x2 PUSH1 0x20 MSTORE KECCAK256 SLOAD EQ SWAP1 JUMP JUMPDEST SWAP1 POP SWAP1 JUMP INVALID LOG2 PUSH5 0x6970667358 0x22 SLT KECCAK256 SAR SELFDESTRUCT PUSH25 0xD4F9D056A3AD5FE4EA18AC0AB6923BEA0CD36B0AFA5582661F 0xBA 0x5D PUSH9 0xC464736F6C63430008 SGT STOP CALLER "},"methodIdentifiers":{"approvedHashes(uint256)":"e29aaf52","getPipeline(uint256)":"d5b26c7f","isRegistered(uint256)":"579a6988","isRevoked(uint256)":"5ccc561e","owner()":"8da5cb5b","pipelineCount()":"2ab4d70a","pipelineNames(uint256)":"1a344200","registerPipeline(string,bytes32)":"8d81b0c5","revokePipeline(uint256)":"1ad94bd2","transferOwnership(address)":"f2fde38b","updateApprovedHash(uint256,bytes32)":"5c67ee80","verifyHash(uint256,bytes32)":"ec06d73b"}}}}}