{"contracts/Verifier.sol":{"Verifier":{"abi":[{"inputs":[{"internalType":"address","name":"registryAddress","type":"address"},{"internalType":"address","name":"loggerAddress","type":"address"}],"stateMutability":"nonpayable","type":"constructor"},{"anonymous":false,"inputs":[{"indexed":true,"internalType":"address","name":"caller","type":"address"},{"indexed":false,"internalType":"uint256","name":"timestamp","type":"uint256"}],"name":"CallerAuthorised","type":"event"},{"anonymous":false,"inputs":[{"indexed":true,"internalType":"address","name":"caller","type":"address"},{"indexed":false,"internalType":"uint256","name":"timestamp","type":"uint256"}],"name":"CallerRevoked","type":"event"},{"anonymous":false,"inputs":[{"indexed":true,"internalType":"uint256","name":"pipelineId","type":"uint256"},{"indexed":true,"internalType":"uint256","name":"runId","type":"uint256"},{"indexed":false,"internalType":"bytes32","name":"candidateHash","type":"bytes32"},{"indexed":false,"internalType":"bytes32","name":"approvedHash","type":"bytes32"},{"indexed":false,"internalType":"string","name":"actor","type":"string"},{"indexed":false,"internalType":"uint256","name":"timestamp","type":"uint256"}],"name":"TamperDetected","type":"event"},{"anonymous":false,"inputs":[{"indexed":true,"internalType":"uint256","name":"verificationId","type":"uint256"},{"indexed":true,"internalType":"uint256","name":"pipelineId","type":"uint256"},{"indexed":true,"internalType":"uint256","name":"runId","type":"uint256"},{"indexed":false,"internalType":"bytes32","name":"candidateHash","type":"bytes32"},{"indexed":false,"internalType":"bytes32","name":"approvedHash","type":"bytes32"},{"indexed":false,"internalType":"bool","name":"passed","type":"bool"},{"indexed":false,"internalType":"string","name":"actor","type":"string"},{"indexed":false,"internalType":"uint256","name":"timestamp","type":"uint256"}],"name":"VerificationResult","type":"event"},{"inputs":[{"internalType":"address","name":"caller","type":"address"}],"name":"authoriseCaller","outputs":[],"stateMutability":"nonpayable","type":"function"},{"inputs":[{"internalType":"address","name":"","type":"address"}],"name":"authorisedCallers","outputs":[{"internalType":"bool","name":"","type":"bool"}],"stateMutability":"view","type":"function"},{"inputs":[{"internalType":"uint256","name":"pipelineId","type":"uint256"},{"internalType":"bytes32","name":"candidateHash","type":"bytes32"}],"name":"checkOnly","outputs":[{"internalType":"bool","name":"","type":"bool"}],"stateMutability":"view","type":"function"},{"inputs":[],"name":"failureCount","outputs":[{"internalType":"uint256","name":"","type":"uint256"}],"stateMutability":"view","type":"function"},{"inputs":[],"name":"getStats","outputs":[{"internalType":"uint256","name":"total","type":"uint256"},{"internalType":"uint256","name":"failures","type":"uint256"},{"internalType":"uint256","name":"passes","type":"uint256"}],"stateMutability":"view","type":"function"},{"inputs":[{"internalType":"uint256","name":"verificationId","type":"uint256"}],"name":"getVerification","outputs":[{"components":[{"internalType":"uint256","name":"verificationId","type":"uint256"},{"internalType":"uint256","name":"pipelineId","type":"uint256"},{"internalType":"uint256","name":"runId","type":"uint256"},{"internalType":"bytes32","name":"candidateHash","type":"bytes32"},{"internalType":"bytes32","name":"approvedHash","type":"bytes32"},{"internalType":"bool","name":"passed","type":"bool"},{"internalType":"string","name":"commitHash","type":"string"},{"internalType":"string","name":"actor","type":"string"},{"internalType":"address","name":"checkedBy","type":"address"},{"internalType":"uint256","name":"timestamp","type":"uint256"}],"internalType":"struct Verifier.VerificationRecord","name":"","type":"tuple"}],"stateMutability":"view","type":"function"},{"inputs":[{"internalType":"uint256","name":"pipelineId","type":"uint256"}],"name":"getVerificationsByPipeline","outputs":[{"internalType":"uint256[]","name":"","type":"uint256[]"}],"stateMutability":"view","type":"function"},{"inputs":[],"name":"logger","outputs":[{"internalType":"contract IEventLogger","name":"","type":"address"}],"stateMutability":"view","type":"function"},{"inputs":[],"name":"owner","outputs":[{"internalType":"address","name":"","type":"address"}],"stateMutability":"view","type":"function"},{"inputs":[],"name":"registry","outputs":[{"internalType":"contract IPipelineRegistry","name":"","type":"address"}],"stateMutability":"view","type":"function"},{"inputs":[{"internalType":"address","name":"caller","type":"address"}],"name":"revokeCaller","outputs":[],"stateMutability":"nonpayable","type":"function"},{"inputs":[{"internalType":"address","name":"newOwner","type":"address"}],"name":"transferOwnership","outputs":[],"stateMutability":"nonpayable","type":"function"},{"inputs":[],"name":"verificationCount","outputs":[{"internalType":"uint256","name":"","type":"uint256"}],"stateMutability":"view","type":"function"},{"inputs":[{"internalType":"uint256","name":"","type":"uint256"}],"name":"verifications","outputs":[{"internalType":"uint256","name":"verificationId","type":"uint256"},{"internalType":"uint256","name":"pipelineId","type":"uint256"},{"internalType":"uint256","name":"runId","type":"uint256"},{"internalType":"bytes32","name":"candidateHash","type":"bytes32"},{"internalType":"bytes32","name":"approvedHash","type":"bytes32"},{"internalType":"bool","name":"passed","type":"bool"},{"internalType":"string","name":"commitHash","type":"string"},{"internalType":"string","name":"actor","type":"string"},{"internalType":"address","name":"checkedBy","type":"address"},{"internalType":"uint256","name":"timestamp","type":"uint256"}],"stateMutability":"view","type":"function"},{"inputs":[{"internalType":"uint256","name":"","type":"uint256"},{"internalType":"uint256","name":"","type":"uint256"}],"name":"verificationsByPipeline","outputs":[{"internalType":"uint256","name":"","type":"uint256"}],"stateMutability":"view","type":"function"},{"inputs":[{"internalType":"uint256","name":"pipelineId","type":"uint256"},{"internalType":"uint256","name":"runId","type":"uint256"},{"internalType":"bytes32","name":"candidateHash","type":"bytes32"},{"internalType":"string","name":"commitHash","type":"string"},{"internalType":"string","name":"actor","type":"string"}],"name":"verify","outputs":[{"internalType":"bool","name":"passed","type":"bool"},{"internalType":"uint256","name":"verificationId","type":"uint256"}],"stateMutability":"nonpayable","type":"function"}],"evm":{"bytecode":{"linkReferences":{},"object":"60c03461018e5761168b90601f38839003908101601f19168201906001600160401b03821183831017610193578083916040958694855283398101031261018e57610049816101a9565b61005660208093016101a9565b6001600160a01b039182169190821561013f57169081156100fd5760805260a0523360018060a01b03196000541617600055336000526001815281600020600160ff198254161790557f25959ad9f50e7d00f36137dcf207138e49f759a94043ecac1b21ef7f31dfe6bb8251914283523392a2516114cd90816101be823960805181818161021f01528181610e940152610ef9015260a05181818161013c01526105b50152f35b60648385519062461bcd60e51b825280600483015260248201527f56657269666965723a20696e76616c6964206c6f6767657220616464726573736044820152fd5b845162461bcd60e51b815260048101859052602260248201527f56657269666965723a20696e76616c6964207265676973747279206164647265604482015261737360f01b6064820152608490fd5b600080fd5b634e487b7160e01b600052604160045260246000fd5b51906001600160a01b038216820361018e5756fe608080604052600436101561001357600080fd5b60003560e01c9081630830e22e14611181575080631a6d1d571461116357806358937cc814610f7757806358bd784a14610ec35780637b10399914610e7e5780637deeee0114610e375780638c2f218514610db15780638da5cb5b14610d88578063944fd18014610d45578063b774353014610ccd578063b90b0a1014610c07578063c59d484714610bd0578063c8f0f3d214610b2a578063d74ee9621461016b578063f24ccbfe146101265763f2fde38b146100cf57600080fd5b34610121576020366003190112610121576004356001600160a01b038181169182900361012157610106600054918216331461137b565b6101118215156113d1565b6001600160a01b03191617600055005b600080fd5b34610121576000366003190112610121576040517f00000000000000000000000000000000000000000000000000000000000000006001600160a01b03168152602090f35b346101215760a03660031901126101215760643567ffffffffffffffff81116101215761019c90369060040161134d565b9060843567ffffffffffffffff8111610121576101bd90369060040161134d565b929033600052600160205260ff604060002054168015610b16575b15610ac65760043515610a815760243515610a3c57604435156109f85781156109b357831561096e5760405163d5b26c7f60e01b81526004803590820152936000856024817f00000000000000000000000000000000000000000000000000000000000000006001600160a01b03165afa8015610962576000956000906000926108be575b50159081156108b6575b50156108ab576000935b60025495600019871461089557600187016002556040516102918161124c565b60018801815260043560208201526024356040820152604435606082015281608082015286151560a08201526102c836878561143f565b9060c081019182526102db36868861143f565b60e0820152336101008201524261012082015260018901600052600460205260406000209181518355602082015160018401556040820151600284015560608201516003840155608082015160048401556005830160a0830151151560ff801983541691161790555180519067ffffffffffffffff82116106e75781906103656006860154611212565b601f8111610842575b50602090601f83116001146107d0576000926107c5575b50508160011b916000199060031b1c19161760068301555b60e081015180519067ffffffffffffffff82116106e7576103c16007850154611212565b601f811161077e575b50602090601f831160011461070857918060099492610120946000926106fd575b50508160011b916000199060031b1c19161760078501555b6008840160018060a01b03610100830151166bffffffffffffffffffffffff60a01b8254161790550151910155600435600052600560205260406000208054680100000000000000008110156106e757610462916001820181556111e4565b81549060031b9060018a01821b91600019901b191617905585156106d9575b6040516044358152816020820152861515604082015260a060608201526104ac60a082018587611476565b90426080820152602435917f2726e5c8448f039a33c3478cf4cc2c270f03311b4f9f21d81d0a7180a874530a600435928060018d01930390a4851561067d575b508415610675576007905b851561063a5760405161050981611269565b601c81527f48617368206d61746368656420617070726f76656420636f6e6669670000000060208201525b60405195635f7952db60e01b875260043560048801526024356024880152600c84101561062457602095879561058b6105af9561059d94899860448a015260443560648a015260e060848a015260e4890191611476565b8681036003190160a488015291611476565b8381036003190160c4850152906111bf565b038160007f00000000000000000000000000000000000000000000000000000000000000006001600160a01b03165af16105f9575b50600160409283519215158352016020820152f35b602090813d831161061d575b61060f8183611285565b8101031261012157826105e4565b503d610605565b634e487b7160e01b600052602160045260246000fd5b60405161064681611269565b601e81527f54414d5045522044455445435445443a2068617368206d69736d6174636800006020820152610534565b6008906104f7565b6040519060443582526020820152608060408201526106a0608082018486611476565b4260608301527f63d09bb81feb41955958529adc1ad8d9d276399f4b796302267a0b93cc3f79316024359280600435930390a3866104ec565b600160035401600355610481565b634e487b7160e01b600052604160045260246000fd5b015190508d806103eb565b906007850160005260206000209160005b601f1985168110610766575092600994926001926101209583601f1981161061074d575b505050811b016007850155610403565b015160001960f88460031b161c191690558d808061073d565b91926020600181928685015181550194019201610719565b600785016000526020600020601f840160051c8101602085106107be575b601f830160051c820181106107b25750506103ca565b6000815560010161079c565b508061079c565b015190508b80610385565b9250600685016000526020600020906000935b601f1984168510610827576001945083601f1981161061080e575b505050811b01600683015561039d565b015160001960f88460031b161c191690558b80806107fe565b818101518355602094850194600190930192909101906107e3565b909150600685016000526020600020601f840160051c81016020851061088e575b90849392915b601f830160051c8201811061087f57505061036e565b60008155859450600101610869565b5080610863565b634e487b7160e01b600052601160045260246000fd5b604435851493610271565b905086610267565b965050503d806000873e6108d28187611285565b608086828101031261012157855167ffffffffffffffff811161012157818701601f82890101121561012157808701519061090c82611416565b9261091a6040519485611285565b8284528801602083838b010101116101215760208061093d94019189010161119c565b602085015161095a606061095360408901611432565b9701611432565b90958761025d565b6040513d6000823e3d90fd5b60405162461bcd60e51b815260206004820152601860248201527f56657269666965723a206163746f7220726571756972656400000000000000006044820152606490fd5b60405162461bcd60e51b815260206004820152601d60248201527f56657269666965723a20636f6d6d6974486173682072657175697265640000006044820152606490fd5b606460405162461bcd60e51b815260206004820152602060248201527f56657269666965723a2063616e646964617465486173682072657175697265646044820152fd5b60405162461bcd60e51b815260206004820152601760248201527f56657269666965723a20696e76616c69642072756e49640000000000000000006044820152606490fd5b60405162461bcd60e51b815260206004820152601c60248201527f56657269666965723a20696e76616c696420706970656c696e654964000000006044820152606490fd5b60405162461bcd60e51b815260206004820152602260248201527f56657269666965723a2063616c6c6572206973206e6f7420617574686f726973604482015261195960f21b6064820152608490fd5b506000546001600160a01b031633146101d8565b34610121576020806003193601126101215760043560005260058152604060002060405190818382549182815201908192600052846000209060005b86828210610bbc578686610b7c82880383611285565b604051928392818401908285525180915260408401929160005b828110610ba557505050500390f35b835185528695509381019392810192600101610b96565b835485529093019260019283019201610b66565b3461012157600036600319011261012157600254600354908181038181116108955760609260405192835260208301526040820152f35b34610121576020366003190112610121576004356000526004602052604060002080546001820154916002810154610cbc6003830154610cae600485015460ff600587015416610c59600688016112a7565b91610c66600789016112a7565b94600960018060a01b0360088b015416990154976040519b8c9b8c5260208c015260408b015260608a01526080890152151560a08801526101408060c08901528701906111bf565b9085820360e08701526111bf565b916101008401526101208301520390f35b34610121576020366003190112610121576004356001600160a01b038181169182900361012157610d039060005416331461137b565b806000526001602052604060002060ff1981541690557fd362d30ffb2dd7b0c32dd96b9e07e094cf94c06185ed44ca80a984b4698f58b56020604051428152a2005b34610121576020366003190112610121576004356001600160a01b03811690819003610121576000526001602052602060ff604060002054166040519015158152f35b34610121576000366003190112610121576000546040516001600160a01b039091168152602090f35b34610121576020366003190112610121576004356001600160a01b038181169182900361012157610de79060005416331461137b565b610df28115156113d1565b8060005260016020526040600020600160ff198254161790557f25959ad9f50e7d00f36137dcf207138e49f759a94043ecac1b21ef7f31dfe6bb6020604051428152a2005b346101215760403660031901126101215760243560043560005260056020526040600020805482101561012157602091610e70916111e4565b90546040519160031b1c8152f35b34610121576000366003190112610121576040517f00000000000000000000000000000000000000000000000000000000000000006001600160a01b03168152602090f35b346101215760403660031901126101215760405163ec06d73b60e01b8152600480359082015260248035908201526020816044817f00000000000000000000000000000000000000000000000000000000000000006001600160a01b03165afa801561096257600090610f3e575b6020906040519015158152f35b506020813d8211610f6f575b81610f5760209383611285565b8101031261012157610f6a602091611432565b610f31565b3d9150610f4a565b34610121576020366003190112610121576004356000610120604051610f9c8161124c565b8281528260208201528260408201528260608201528260808201528260a0820152606060c0820152606060e082015282610100820152015280151580611157575b156111125760005260046020526040600020600960405191610ffe8361124c565b805483526001810154602084015260028101546040840152600381015460608401526004810154608084015260ff600582015416151560a0840152611045600682016112a7565b60c0840152611056600782016112a7565b60e084015260018060a01b03600882015416610100840152015461012082015260405180916020825280516020830152602081015160408301526040810151606083015260608101516080830152608081015160a083015260a0810151151560c083015260c08101516101206110f46110dd610140938460e08801526101608701906111bf565b60e0850151868203601f19016101008801526111bf565b6101008401516001600160a01b031685830152920151908301520390f35b60405162461bcd60e51b815260206004820152601a60248201527f56657269666965723a207265636f7264206e6f7420666f756e640000000000006044820152606490fd5b50600254811115610fdd565b34610121576000366003190112610121576020600354604051908152f35b34610121576000366003190112610121576020906002548152f35b60005b8381106111af5750506000910152565b818101518382015260200161119f565b906020916111d88151809281855285808601910161119c565b601f01601f1916010190565b80548210156111fc5760005260206000200190600090565b634e487b7160e01b600052603260045260246000fd5b90600182811c92168015611242575b602083101461122c57565b634e487b7160e01b600052602260045260246000fd5b91607f1691611221565b610140810190811067ffffffffffffffff8211176106e757604052565b6040810190811067ffffffffffffffff8211176106e757604052565b90601f8019910116810190811067ffffffffffffffff8211176106e757604052565b90604051918260008254926112bb84611212565b90818452600194858116908160001461132a57506001146112e7575b50506112e592500383611285565b565b9093915060005260209081600020936000915b8183106113125750506112e5935082010138806112d7565b855488840185015294850194879450918301916112fa565b9150506112e594506020925060ff191682840152151560051b82010138806112d7565b9181601f840112156101215782359167ffffffffffffffff8311610121576020838186019501011161012157565b1561138257565b60405162461bcd60e51b815260206004820152602160248201527f56657269666965723a2063616c6c6572206973206e6f7420746865206f776e656044820152603960f91b6064820152608490fd5b156113d857565b60405162461bcd60e51b815260206004820152601660248201527556657269666965723a207a65726f206164647265737360501b6044820152606490fd5b67ffffffffffffffff81116106e757601f01601f191660200190565b5190811515820361012157565b92919261144b82611416565b916114596040519384611285565b829481845281830111610121578281602093846000960137010152565b908060209392818452848401376000828201840152601f01601f191601019056fea26469706673582212201ebb0109f044913698fc98cde8998526dd7805d8a9d6c738a31bbba1b10140eb64736f6c63430008130033","opcodes":"PUSH1 0xC0 CALLVALUE PUSH2 0x18E JUMPI PUSH2 0x168B SWAP1 PUSH1 0x1F CODESIZE DUP4 SWAP1 SUB SWAP1 DUP2 ADD PUSH1 0x1F NOT AND DUP3 ADD SWAP1 PUSH1 0x1 PUSH1 0x1 PUSH1 0x40 SHL SUB DUP3 GT DUP4 DUP4 LT OR PUSH2 0x193 JUMPI DUP1 DUP4 SWAP2 PUSH1 0x40 SWAP6 DUP7 SWAP5 DUP6 MSTORE DUP4 CODECOPY DUP2 ADD SUB SLT PUSH2 0x18E JUMPI PUSH2 0x49 DUP2 PUSH2 0x1A9 JUMP JUMPDEST PUSH2 0x56 PUSH1 0x20 DUP1 SWAP4 ADD PUSH2 0x1A9 JUMP JUMPDEST PUSH1 0x1 PUSH1 0x1 PUSH1 0xA0 SHL SUB SWAP2 DUP3 AND SWAP2 SWAP1 DUP3 ISZERO PUSH2 0x13F JUMPI AND SWAP1 DUP2 ISZERO PUSH2 0xFD JUMPI PUSH1 0x80 MSTORE PUSH1 0xA0 MSTORE CALLER PUSH1 0x1 DUP1 PUSH1 0xA0 SHL SUB NOT PUSH1 0x0 SLOAD AND OR PUSH1 0x0 SSTORE CALLER PUSH1 0x0 MSTORE PUSH1 0x1 DUP2 MSTORE DUP2 PUSH1 0x0 KECCAK256 PUSH1 0x1 PUSH1 0xFF NOT DUP3 SLOAD AND OR SWAP1 SSTORE PUSH32 0x25959AD9F50E7D00F36137DCF207138E49F759A94043ECAC1B21EF7F31DFE6BB DUP3 MLOAD SWAP2 TIMESTAMP DUP4 MSTORE CALLER SWAP3 LOG2 MLOAD PUSH2 0x14CD SWAP1 DUP2 PUSH2 0x1BE DUP3 CODECOPY PUSH1 0x80 MLOAD DUP2 DUP2 DUP2 PUSH2 0x21F ADD MSTORE DUP2 DUP2 PUSH2 0xE94 ADD MSTORE PUSH2 0xEF9 ADD MSTORE PUSH1 0xA0 MLOAD DUP2 DUP2 DUP2 PUSH2 0x13C ADD MSTORE PUSH2 0x5B5 ADD MSTORE RETURN JUMPDEST PUSH1 0x64 DUP4 DUP6 MLOAD SWAP1 PUSH3 0x461BCD PUSH1 0xE5 SHL DUP3 MSTORE DUP1 PUSH1 0x4 DUP4 ADD MSTORE PUSH1 0x24 DUP3 ADD MSTORE PUSH32 0x56657269666965723A20696E76616C6964206C6F676765722061646472657373 PUSH1 0x44 DUP3 ADD MSTORE REVERT JUMPDEST DUP5 MLOAD PUSH3 0x461BCD PUSH1 0xE5 SHL DUP2 MSTORE PUSH1 0x4 DUP2 ADD DUP6 SWAP1 MSTORE PUSH1 0x22 PUSH1 0x24 DUP3 ADD MSTORE PUSH32 0x56657269666965723A20696E76616C6964207265676973747279206164647265 PUSH1 0x44 DUP3 ADD MSTORE PUSH2 0x7373 PUSH1 0xF0 SHL PUSH1 0x64 DUP3 ADD MSTORE PUSH1 0x84 SWAP1 REVERT JUMPDEST PUSH1 0x0 DUP1 REVERT JUMPDEST PUSH4 0x4E487B71 PUSH1 0xE0 SHL PUSH1 0x0 MSTORE PUSH1 0x41 PUSH1 0x4 MSTORE PUSH1 0x24 PUSH1 0x0 REVERT JUMPDEST MLOAD SWAP1 PUSH1 0x1 PUSH1 0x1 PUSH1 0xA0 SHL SUB DUP3 AND DUP3 SUB PUSH2 0x18E JUMPI JUMP INVALID PUSH1 0x80 DUP1 PUSH1 0x40 MSTORE PUSH1 0x4 CALLDATASIZE LT ISZERO PUSH2 0x13 JUMPI PUSH1 0x0 DUP1 REVERT JUMPDEST PUSH1 0x0 CALLDATALOAD PUSH1 0xE0 SHR SWAP1 DUP2 PUSH4 0x830E22E EQ PUSH2 0x1181 JUMPI POP DUP1 PUSH4 0x1A6D1D57 EQ PUSH2 0x1163 JUMPI DUP1 PUSH4 0x58937CC8 EQ PUSH2 0xF77 JUMPI DUP1 PUSH4 0x58BD784A EQ PUSH2 0xEC3 JUMPI DUP1 PUSH4 0x7B103999 EQ PUSH2 0xE7E JUMPI DUP1 PUSH4 0x7DEEEE01 EQ PUSH2 0xE37 JUMPI DUP1 PUSH4 0x8C2F2185 EQ PUSH2 0xDB1 JUMPI DUP1 PUSH4 0x8DA5CB5B EQ PUSH2 0xD88 JUMPI DUP1 PUSH4 0x944FD180 EQ PUSH2 0xD45 JUMPI DUP1 PUSH4 0xB7743530 EQ PUSH2 0xCCD JUMPI DUP1 PUSH4 0xB90B0A10 EQ PUSH2 0xC07 JUMPI DUP1 PUSH4 0xC59D4847 EQ PUSH2 0xBD0 JUMPI DUP1 PUSH4 0xC8F0F3D2 EQ PUSH2 0xB2A JUMPI DUP1 PUSH4 0xD74EE962 EQ PUSH2 0x16B JUMPI DUP1 PUSH4 0xF24CCBFE EQ PUSH2 0x126 JUMPI PUSH4 0xF2FDE38B EQ PUSH2 0xCF JUMPI PUSH1 0x0 DUP1 REVERT JUMPDEST CALLVALUE PUSH2 0x121 JUMPI PUSH1 0x20 CALLDATASIZE PUSH1 0x3 NOT ADD SLT PUSH2 0x121 JUMPI PUSH1 0x4 CALLDATALOAD PUSH1 0x1 PUSH1 0x1 PUSH1 0xA0 SHL SUB DUP2 DUP2 AND SWAP2 DUP3 SWAP1 SUB PUSH2 0x121 JUMPI PUSH2 0x106 PUSH1 0x0 SLOAD SWAP2 DUP3 AND CALLER EQ PUSH2 0x137B JUMP JUMPDEST PUSH2 0x111 DUP3 ISZERO ISZERO PUSH2 0x13D1 JUMP JUMPDEST PUSH1 0x1 PUSH1 0x1 PUSH1 0xA0 SHL SUB NOT AND OR PUSH1 0x0 SSTORE STOP JUMPDEST PUSH1 0x0 DUP1 REVERT JUMPDEST CALLVALUE PUSH2 0x121 JUMPI PUSH1 0x0 CALLDATASIZE PUSH1 0x3 NOT ADD SLT PUSH2 0x121 JUMPI PUSH1 0x40 MLOAD PUSH32 0x0 PUSH1 0x1 PUSH1 0x1 PUSH1 0xA0 SHL SUB AND DUP2 MSTORE PUSH1 0x20 SWAP1 RETURN JUMPDEST CALLVALUE PUSH2 0x121 JUMPI PUSH1 0xA0 CALLDATASIZE PUSH1 0x3 NOT ADD SLT PUSH2 0x121 JUMPI PUSH1 0x64 CALLDATALOAD PUSH8 0xFFFFFFFFFFFFFFFF DUP2 GT PUSH2 0x121 JUMPI PUSH2 0x19C SWAP1 CALLDATASIZE SWAP1 PUSH1 0x4 ADD PUSH2 0x134D JUMP JUMPDEST SWAP1 PUSH1 0x84 CALLDATALOAD PUSH8 0xFFFFFFFFFFFFFFFF DUP2 GT PUSH2 0x121 JUMPI PUSH2 0x1BD SWAP1 CALLDATASIZE SWAP1 PUSH1 0x4 ADD PUSH2 0x134D JUMP JUMPDEST SWAP3 SWAP1 CALLER PUSH1 0x0 MSTORE PUSH1 0x1 PUSH1 0x20 MSTORE PUSH1 0xFF PUSH1 0x40 PUSH1 0x0 KECCAK256 SLOAD AND DUP1 ISZERO PUSH2 0xB16 JUMPI JUMPDEST ISZERO PUSH2 0xAC6 JUMPI PUSH1 0x4 CALLDATALOAD ISZERO PUSH2 0xA81 JUMPI PUSH1 0x24 CALLDATALOAD ISZERO PUSH2 0xA3C JUMPI PUSH1 0x44 CALLDATALOAD ISZERO PUSH2 0x9F8 JUMPI DUP2 ISZERO PUSH2 0x9B3 JUMPI DUP4 ISZERO PUSH2 0x96E JUMPI PUSH1 0x40 MLOAD PUSH4 0xD5B26C7F PUSH1 0xE0 SHL DUP2 MSTORE PUSH1 0x4 DUP1 CALLDATALOAD SWAP1 DUP3 ADD MSTORE SWAP4 PUSH1 0x0 DUP6 PUSH1 0x24 DUP2 PUSH32 0x0 PUSH1 0x1 PUSH1 0x1 PUSH1 0xA0 SHL SUB AND GAS STATICCALL DUP1 ISZERO PUSH2 0x962 JUMPI PUSH1 0x0 SWAP6 PUSH1 0x0 SWAP1 PUSH1 0x0 SWAP3 PUSH2 0x8BE JUMPI JUMPDEST POP ISZERO SWAP1 DUP2 ISZERO PUSH2 0x8B6 JUMPI JUMPDEST POP ISZERO PUSH2 0x8AB JUMPI PUSH1 0x0 SWAP4 JUMPDEST PUSH1 0x2 SLOAD SWAP6 PUSH1 0x0 NOT DUP8 EQ PUSH2 0x895 JUMPI PUSH1 0x1 DUP8 ADD PUSH1 0x2 SSTORE PUSH1 0x40 MLOAD PUSH2 0x291 DUP2 PUSH2 0x124C JUMP JUMPDEST PUSH1 0x1 DUP9 ADD DUP2 MSTORE PUSH1 0x4 CALLDATALOAD PUSH1 0x20 DUP3 ADD MSTORE PUSH1 0x24 CALLDATALOAD PUSH1 0x40 DUP3 ADD MSTORE PUSH1 0x44 CALLDATALOAD PUSH1 0x60 DUP3 ADD MSTORE DUP2 PUSH1 0x80 DUP3 ADD MSTORE DUP7 ISZERO ISZERO PUSH1 0xA0 DUP3 ADD MSTORE PUSH2 0x2C8 CALLDATASIZE DUP8 DUP6 PUSH2 0x143F JUMP JUMPDEST SWAP1 PUSH1 0xC0 DUP2 ADD SWAP2 DUP3 MSTORE PUSH2 0x2DB CALLDATASIZE DUP7 DUP9 PUSH2 0x143F JUMP JUMPDEST PUSH1 0xE0 DUP3 ADD MSTORE CALLER PUSH2 0x100 DUP3 ADD MSTORE TIMESTAMP PUSH2 0x120 DUP3 ADD MSTORE PUSH1 0x1 DUP10 ADD PUSH1 0x0 MSTORE PUSH1 0x4 PUSH1 0x20 MSTORE PUSH1 0x40 PUSH1 0x0 KECCAK256 SWAP2 DUP2 MLOAD DUP4 SSTORE PUSH1 0x20 DUP3 ADD MLOAD PUSH1 0x1 DUP5 ADD SSTORE PUSH1 0x40 DUP3 ADD MLOAD PUSH1 0x2 DUP5 ADD SSTORE PUSH1 0x60 DUP3 ADD MLOAD PUSH1 0x3 DUP5 ADD SSTORE PUSH1 0x80 DUP3 ADD MLOAD PUSH1 0x4 DUP5 ADD SSTORE PUSH1 0x5 DUP4 ADD PUSH1 0xA0 DUP4 ADD MLOAD ISZERO ISZERO PUSH1 0xFF DUP1 NOT DUP4 SLOAD AND SWAP2 AND OR SWAP1 SSTORE MLOAD DUP1 MLOAD SWAP1 PUSH8 0xFFFFFFFFFFFFFFFF DUP3 GT PUSH2 0x6E7 JUMPI DUP2 SWAP1 PUSH2 0x365 PUSH1 0x6 DUP7 ADD SLOAD PUSH2 0x1212 JUMP JUMPDEST PUSH1 0x1F DUP2 GT PUSH2 0x842 JUMPI JUMPDEST POP PUSH1 0x20 SWAP1 PUSH1 0x1F DUP4 GT PUSH1 0x1 EQ PUSH2 0x7D0 JUMPI PUSH1 0x0 SWAP3 PUSH2 0x7C5 JUMPI JUMPDEST POP POP DUP2 PUSH1 0x1 SHL SWAP2 PUSH1 0x0 NOT SWAP1 PUSH1 0x3 SHL SHR NOT AND OR PUSH1 0x6 DUP4 ADD SSTORE JUMPDEST PUSH1 0xE0 DUP2 ADD MLOAD DUP1 MLOAD SWAP1 PUSH8 0xFFFFFFFFFFFFFFFF DUP3 GT PUSH2 0x6E7 JUMPI PUSH2 0x3C1 PUSH1 0x7 DUP6 ADD SLOAD PUSH2 0x1212 JUMP JUMPDEST PUSH1 0x1F DUP2 GT PUSH2 0x77E JUMPI JUMPDEST POP PUSH1 0x20 SWAP1 PUSH1 0x1F DUP4 GT PUSH1 0x1 EQ PUSH2 0x708 JUMPI SWAP2 DUP1 PUSH1 0x9 SWAP5 SWAP3 PUSH2 0x120 SWAP5 PUSH1 0x0 SWAP3 PUSH2 0x6FD JUMPI JUMPDEST POP POP DUP2 PUSH1 0x1 SHL SWAP2 PUSH1 0x0 NOT SWAP1 PUSH1 0x3 SHL SHR NOT AND OR PUSH1 0x7 DUP6 ADD SSTORE JUMPDEST PUSH1 0x8 DUP5 ADD PUSH1 0x1 DUP1 PUSH1 0xA0 SHL SUB PUSH2 0x100 DUP4 ADD MLOAD AND PUSH12 0xFFFFFFFFFFFFFFFFFFFFFFFF PUSH1 0xA0 SHL DUP3 SLOAD AND OR SWAP1 SSTORE ADD MLOAD SWAP2 ADD SSTORE PUSH1 0x4 CALLDATALOAD PUSH1 0x0 MSTORE PUSH1 0x5 PUSH1 0x20 MSTORE PUSH1 0x40 PUSH1 0x0 KECCAK256 DUP1 SLOAD PUSH9 0x10000000000000000 DUP2 LT ISZERO PUSH2 0x6E7 JUMPI PUSH2 0x462 SWAP2 PUSH1 0x1 DUP3 ADD DUP2 SSTORE PUSH2 0x11E4 JUMP JUMPDEST DUP2 SLOAD SWAP1 PUSH1 0x3 SHL SWAP1 PUSH1 0x1 DUP11 ADD DUP3 SHL SWAP2 PUSH1 0x0 NOT SWAP1 SHL NOT AND OR SWAP1 SSTORE DUP6 ISZERO PUSH2 0x6D9 JUMPI JUMPDEST PUSH1 0x40 MLOAD PUSH1 0x44 CALLDATALOAD DUP2 MSTORE DUP2 PUSH1 0x20 DUP3 ADD MSTORE DUP7 ISZERO ISZERO PUSH1 0x40 DUP3 ADD MSTORE PUSH1 0xA0 PUSH1 0x60 DUP3 ADD MSTORE PUSH2 0x4AC PUSH1 0xA0 DUP3 ADD DUP6 DUP8 PUSH2 0x1476 JUMP JUMPDEST SWAP1 TIMESTAMP PUSH1 0x80 DUP3 ADD MSTORE PUSH1 0x24 CALLDATALOAD SWAP2 PUSH32 0x2726E5C8448F039A33C3478CF4CC2C270F03311B4F9F21D81D0A7180A874530A PUSH1 0x4 CALLDATALOAD SWAP3 DUP1 PUSH1 0x1 DUP14 ADD SWAP4 SUB SWAP1 LOG4 DUP6 ISZERO PUSH2 0x67D JUMPI JUMPDEST POP DUP5 ISZERO PUSH2 0x675 JUMPI PUSH1 0x7 SWAP1 JUMPDEST DUP6 ISZERO PUSH2 0x63A JUMPI PUSH1 0x40 MLOAD PUSH2 0x509 DUP2 PUSH2 0x1269 JUMP JUMPDEST PUSH1 0x1C DUP2 MSTORE PUSH32 0x48617368206D61746368656420617070726F76656420636F6E66696700000000 PUSH1 0x20 DUP3 ADD MSTORE JUMPDEST PUSH1 0x40 MLOAD SWAP6 PUSH4 0x5F7952DB PUSH1 0xE0 SHL DUP8 MSTORE PUSH1 0x4 CALLDATALOAD PUSH1 0x4 DUP9 ADD MSTORE PUSH1 0x24 CALLDATALOAD PUSH1 0x24 DUP9 ADD MSTORE PUSH1 0xC DUP5 LT ISZERO PUSH2 0x624 JUMPI PUSH1 0x20 SWAP6 DUP8 SWAP6 PUSH2 0x58B PUSH2 0x5AF SWAP6 PUSH2 0x59D SWAP5 DUP10 SWAP9 PUSH1 0x44 DUP11 ADD MSTORE PUSH1 0x44 CALLDATALOAD PUSH1 0x64 DUP11 ADD MSTORE PUSH1 0xE0 PUSH1 0x84 DUP11 ADD MSTORE PUSH1 0xE4 DUP10 ADD SWAP2 PUSH2 0x1476 JUMP JUMPDEST DUP7 DUP2 SUB PUSH1 0x3 NOT ADD PUSH1 0xA4 DUP9 ADD MSTORE SWAP2 PUSH2 0x1476 JUMP JUMPDEST DUP4 DUP2 SUB PUSH1 0x3 NOT ADD PUSH1 0xC4 DUP6 ADD MSTORE SWAP1 PUSH2 0x11BF JUMP JUMPDEST SUB DUP2 PUSH1 0x0 PUSH32 0x0 PUSH1 0x1 PUSH1 0x1 PUSH1 0xA0 SHL SUB AND GAS CALL PUSH2 0x5F9 JUMPI JUMPDEST POP PUSH1 0x1 PUSH1 0x40 SWAP3 DUP4 MLOAD SWAP3 ISZERO ISZERO DUP4 MSTORE ADD PUSH1 0x20 DUP3 ADD MSTORE RETURN JUMPDEST PUSH1 0x20 SWAP1 DUP2 RETURNDATASIZE DUP4 GT PUSH2 0x61D JUMPI JUMPDEST PUSH2 0x60F DUP2 DUP4 PUSH2 0x1285 JUMP JUMPDEST DUP2 ADD SUB SLT PUSH2 0x121 JUMPI DUP3 PUSH2 0x5E4 JUMP JUMPDEST POP RETURNDATASIZE PUSH2 0x605 JUMP JUMPDEST PUSH4 0x4E487B71 PUSH1 0xE0 SHL PUSH1 0x0 MSTORE PUSH1 0x21 PUSH1 0x4 MSTORE PUSH1 0x24 PUSH1 0x0 REVERT JUMPDEST PUSH1 0x40 MLOAD PUSH2 0x646 DUP2 PUSH2 0x1269 JUMP JUMPDEST PUSH1 0x1E DUP2 MSTORE PUSH32 0x54414D5045522044455445435445443A2068617368206D69736D617463680000 PUSH1 0x20 DUP3 ADD MSTORE PUSH2 0x534 JUMP JUMPDEST PUSH1 0x8 SWAP1 PUSH2 0x4F7 JUMP JUMPDEST PUSH1 0x40 MLOAD SWAP1 PUSH1 0x44 CALLDATALOAD DUP3 MSTORE PUSH1 0x20 DUP3 ADD MSTORE PUSH1 0x80 PUSH1 0x40 DUP3 ADD MSTORE PUSH2 0x6A0 PUSH1 0x80 DUP3 ADD DUP5 DUP7 PUSH2 0x1476 JUMP JUMPDEST TIMESTAMP PUSH1 0x60 DUP4 ADD MSTORE PUSH32 0x63D09BB81FEB41955958529ADC1AD8D9D276399F4B796302267A0B93CC3F7931 PUSH1 0x24 CALLDATALOAD SWAP3 DUP1 PUSH1 0x4 CALLDATALOAD SWAP4 SUB SWAP1 LOG3 DUP7 PUSH2 0x4EC JUMP JUMPDEST PUSH1 0x1 PUSH1 0x3 SLOAD ADD PUSH1 0x3 SSTORE PUSH2 0x481 JUMP JUMPDEST PUSH4 0x4E487B71 PUSH1 0xE0 SHL PUSH1 0x0 MSTORE PUSH1 0x41 PUSH1 0x4 MSTORE PUSH1 0x24 PUSH1 0x0 REVERT JUMPDEST ADD MLOAD SWAP1 POP DUP14 DUP1 PUSH2 0x3EB JUMP JUMPDEST SWAP1 PUSH1 0x7 DUP6 ADD PUSH1 0x0 MSTORE PUSH1 0x20 PUSH1 0x0 KECCAK256 SWAP2 PUSH1 0x0 JUMPDEST PUSH1 0x1F NOT DUP6 AND DUP2 LT PUSH2 0x766 JUMPI POP SWAP3 PUSH1 0x9 SWAP5 SWAP3 PUSH1 0x1 SWAP3 PUSH2 0x120 SWAP6 DUP4 PUSH1 0x1F NOT DUP2 AND LT PUSH2 0x74D JUMPI JUMPDEST POP POP POP DUP2 SHL ADD PUSH1 0x7 DUP6 ADD SSTORE PUSH2 0x403 JUMP JUMPDEST ADD MLOAD PUSH1 0x0 NOT PUSH1 0xF8 DUP5 PUSH1 0x3 SHL AND SHR NOT AND SWAP1 SSTORE DUP14 DUP1 DUP1 PUSH2 0x73D JUMP JUMPDEST SWAP2 SWAP3 PUSH1 0x20 PUSH1 0x1 DUP2 SWAP3 DUP7 DUP6 ADD MLOAD DUP2 SSTORE ADD SWAP5 ADD SWAP3 ADD PUSH2 0x719 JUMP JUMPDEST PUSH1 0x7 DUP6 ADD PUSH1 0x0 MSTORE PUSH1 0x20 PUSH1 0x0 KECCAK256 PUSH1 0x1F DUP5 ADD PUSH1 0x5 SHR DUP2 ADD PUSH1 0x20 DUP6 LT PUSH2 0x7BE JUMPI JUMPDEST PUSH1 0x1F DUP4 ADD PUSH1 0x5 SHR DUP3 ADD DUP2 LT PUSH2 0x7B2 JUMPI POP POP PUSH2 0x3CA JUMP JUMPDEST PUSH1 0x0 DUP2 SSTORE PUSH1 0x1 ADD PUSH2 0x79C JUMP JUMPDEST POP DUP1 PUSH2 0x79C JUMP JUMPDEST ADD MLOAD SWAP1 POP DUP12 DUP1 PUSH2 0x385 JUMP JUMPDEST SWAP3 POP PUSH1 0x6 DUP6 ADD PUSH1 0x0 MSTORE PUSH1 0x20 PUSH1 0x0 KECCAK256 SWAP1 PUSH1 0x0 SWAP4 JUMPDEST PUSH1 0x1F NOT DUP5 AND DUP6 LT PUSH2 0x827 JUMPI PUSH1 0x1 SWAP5 POP DUP4 PUSH1 0x1F NOT DUP2 AND LT PUSH2 0x80E JUMPI JUMPDEST POP POP POP DUP2 SHL ADD PUSH1 0x6 DUP4 ADD SSTORE PUSH2 0x39D JUMP JUMPDEST ADD MLOAD PUSH1 0x0 NOT PUSH1 0xF8 DUP5 PUSH1 0x3 SHL AND SHR NOT AND SWAP1 SSTORE DUP12 DUP1 DUP1 PUSH2 0x7FE JUMP JUMPDEST DUP2 DUP2 ADD MLOAD DUP4 SSTORE PUSH1 0x20 SWAP5 DUP6 ADD SWAP5 PUSH1 0x1 SWAP1 SWAP4 ADD SWAP3 SWAP1 SWAP2 ADD SWAP1 PUSH2 0x7E3 JUMP JUMPDEST SWAP1 SWAP2 POP PUSH1 0x6 DUP6 ADD PUSH1 0x0 MSTORE PUSH1 0x20 PUSH1 0x0 KECCAK256 PUSH1 0x1F DUP5 ADD PUSH1 0x5 SHR DUP2 ADD PUSH1 0x20 DUP6 LT PUSH2 0x88E JUMPI JUMPDEST SWAP1 DUP5 SWAP4 SWAP3 SWAP2 JUMPDEST PUSH1 0x1F DUP4 ADD PUSH1 0x5 SHR DUP3 ADD DUP2 LT PUSH2 0x87F JUMPI POP POP PUSH2 0x36E JUMP JUMPDEST PUSH1 0x0 DUP2 SSTORE DUP6 SWAP5 POP PUSH1 0x1 ADD PUSH2 0x869 JUMP JUMPDEST POP DUP1 PUSH2 0x863 JUMP JUMPDEST PUSH4 0x4E487B71 PUSH1 0xE0 SHL PUSH1 0x0 MSTORE PUSH1 0x11 PUSH1 0x4 MSTORE PUSH1 0x24 PUSH1 0x0 REVERT JUMPDEST PUSH1 0x44 CALLDATALOAD DUP6 EQ SWAP4 PUSH2 0x271 JUMP JUMPDEST SWAP1 POP DUP7 PUSH2 0x267 JUMP JUMPDEST SWAP7 POP POP POP RETURNDATASIZE DUP1 PUSH1 0x0 DUP8 RETURNDATACOPY PUSH2 0x8D2 DUP2 DUP8 PUSH2 0x1285 JUMP JUMPDEST PUSH1 0x80 DUP7 DUP3 DUP2 ADD SUB SLT PUSH2 0x121 JUMPI DUP6 MLOAD PUSH8 0xFFFFFFFFFFFFFFFF DUP2 GT PUSH2 0x121 JUMPI DUP2 DUP8 ADD PUSH1 0x1F DUP3 DUP10 ADD ADD SLT ISZERO PUSH2 0x121 JUMPI DUP1 DUP8 ADD MLOAD SWAP1 PUSH2 0x90C DUP3 PUSH2 0x1416 JUMP JUMPDEST SWAP3 PUSH2 0x91A PUSH1 0x40 MLOAD SWAP5 DUP6 PUSH2 0x1285 JUMP JUMPDEST DUP3 DUP5 MSTORE DUP9 ADD PUSH1 0x20 DUP4 DUP4 DUP12 ADD ADD ADD GT PUSH2 0x121 JUMPI PUSH1 0x20 DUP1 PUSH2 0x93D SWAP5 ADD SWAP2 DUP10 ADD ADD PUSH2 0x119C JUMP JUMPDEST PUSH1 0x20 DUP6 ADD MLOAD PUSH2 0x95A PUSH1 0x60 PUSH2 0x953 PUSH1 0x40 DUP10 ADD PUSH2 0x1432 JUMP JUMPDEST SWAP8 ADD PUSH2 0x1432 JUMP JUMPDEST SWAP1 SWAP6 DUP8 PUSH2 0x25D JUMP JUMPDEST PUSH1 0x40 MLOAD RETURNDATASIZE PUSH1 0x0 DUP3 RETURNDATACOPY RETURNDATASIZE SWAP1 REVERT JUMPDEST PUSH1 0x40 MLOAD PUSH3 0x461BCD PUSH1 0xE5 SHL DUP2 MSTORE PUSH1 0x20 PUSH1 0x4 DUP3 ADD MSTORE PUSH1 0x18 PUSH1 0x24 DUP3 ADD MSTORE PUSH32 0x56657269666965723A206163746F722072657175697265640000000000000000 PUSH1 0x44 DUP3 ADD MSTORE PUSH1 0x64 SWAP1 REVERT JUMPDEST PUSH1 0x40 MLOAD PUSH3 0x461BCD PUSH1 0xE5 SHL DUP2 MSTORE PUSH1 0x20 PUSH1 0x4 DUP3 ADD MSTORE PUSH1 0x1D PUSH1 0x24 DUP3 ADD MSTORE PUSH32 0x56657269666965723A20636F6D6D697448617368207265717569726564000000 PUSH1 0x44 DUP3 ADD MSTORE PUSH1 0x64 SWAP1 REVERT JUMPDEST PUSH1 0x64 PUSH1 0x40 MLOAD PUSH3 0x461BCD PUSH1 0xE5 SHL DUP2 MSTORE PUSH1 0x20 PUSH1 0x4 DUP3 ADD MSTORE PUSH1 0x20 PUSH1 0x24 DUP3 ADD MSTORE PUSH32 0x56657269666965723A2063616E64696461746548617368207265717569726564 PUSH1 0x44 DUP3 ADD MSTORE REVERT JUMPDEST PUSH1 0x40 MLOAD PUSH3 0x461BCD PUSH1 0xE5 SHL DUP2 MSTORE PUSH1 0x20 PUSH1 0x4 DUP3 ADD MSTORE PUSH1 0x17 PUSH1 0x24 DUP3 ADD MSTORE PUSH32 0x56657269666965723A20696E76616C69642072756E4964000000000000000000 PUSH1 0x44 DUP3 ADD MSTORE PUSH1 0x64 SWAP1 REVERT JUMPDEST PUSH1 0x40 MLOAD PUSH3 0x461BCD PUSH1 0xE5 SHL DUP2 MSTORE PUSH1 0x20 PUSH1 0x4 DUP3 ADD MSTORE PUSH1 0x1C PUSH1 0x24 DUP3 ADD MSTORE PUSH32 0x56657269666965723A20696E76616C696420706970656C696E65496400000000 PUSH1 0x44 DUP3 ADD MSTORE PUSH1 0x64 SWAP1 REVERT JUMPDEST PUSH1 0x40 MLOAD PUSH3 0x461BCD PUSH1 0xE5 SHL DUP2 MSTORE PUSH1 0x20 PUSH1 0x4 DUP3 ADD MSTORE PUSH1 0x22 PUSH1 0x24 DUP3 ADD MSTORE PUSH32 0x56657269666965723A2063616C6C6572206973206E6F7420617574686F726973 PUSH1 0x44 DUP3 ADD MSTORE PUSH2 0x1959 PUSH1 0xF2 SHL PUSH1 0x64 DUP3 ADD MSTORE PUSH1 0x84 SWAP1 REVERT JUMPDEST POP PUSH1 0x0 SLOAD PUSH1 0x1 PUSH1 0x1 PUSH1 0xA0 SHL SUB AND CALLER EQ PUSH2 0x1D8 JUMP JUMPDEST CALLVALUE PUSH2 0x121 JUMPI PUSH1 0x20 DUP1 PUSH1 0x3 NOT CALLDATASIZE ADD SLT PUSH2 0x121 JUMPI PUSH1 0x4 CALLDATALOAD PUSH1 0x0 MSTORE PUSH1 0x5 DUP2 MSTORE PUSH1 0x40 PUSH1 0x0 KECCAK256 PUSH1 0x40 MLOAD SWAP1 DUP2 DUP4 DUP3 SLOAD SWAP2 DUP3 DUP2 MSTORE ADD SWAP1 DUP2 SWAP3 PUSH1 0x0 MSTORE DUP5 PUSH1 0x0 KECCAK256 SWAP1 PUSH1 0x0 JUMPDEST DUP7 DUP3 DUP3 LT PUSH2 0xBBC JUMPI DUP7 DUP7 PUSH2 0xB7C DUP3 DUP9 SUB DUP4 PUSH2 0x1285 JUMP JUMPDEST PUSH1 0x40 MLOAD SWAP3 DUP4 SWAP3 DUP2 DUP5 ADD SWAP1 DUP3 DUP6 MSTORE MLOAD DUP1 SWAP2 MSTORE PUSH1 0x40 DUP5 ADD SWAP3 SWAP2 PUSH1 0x0 JUMPDEST DUP3 DUP2 LT PUSH2 0xBA5 JUMPI POP POP POP POP SUB SWAP1 RETURN JUMPDEST DUP4 MLOAD DUP6 MSTORE DUP7 SWAP6 POP SWAP4 DUP2 ADD SWAP4 SWAP3 DUP2 ADD SWAP3 PUSH1 0x1 ADD PUSH2 0xB96 JUMP JUMPDEST DUP4 SLOAD DUP6 MSTORE SWAP1 SWAP4 ADD SWAP3 PUSH1 0x1 SWAP3 DUP4 ADD SWAP3 ADD PUSH2 0xB66 JUMP JUMPDEST CALLVALUE PUSH2 0x121 JUMPI PUSH1 0x0 CALLDATASIZE PUSH1 0x3 NOT ADD SLT PUSH2 0x121 JUMPI PUSH1 0x2 SLOAD PUSH1 0x3 SLOAD SWAP1 DUP2 DUP2 SUB DUP2 DUP2 GT PUSH2 0x895 JUMPI PUSH1 0x60 SWAP3 PUSH1 0x40 MLOAD SWAP3 DUP4 MSTORE PUSH1 0x20 DUP4 ADD MSTORE PUSH1 0x40 DUP3 ADD MSTORE RETURN JUMPDEST CALLVALUE PUSH2 0x121 JUMPI PUSH1 0x20 CALLDATASIZE PUSH1 0x3 NOT ADD SLT PUSH2 0x121 JUMPI PUSH1 0x4 CALLDATALOAD PUSH1 0x0 MSTORE PUSH1 0x4 PUSH1 0x20 MSTORE PUSH1 0x40 PUSH1 0x0 KECCAK256 DUP1 SLOAD PUSH1 0x1 DUP3 ADD SLOAD SWAP2 PUSH1 0x2 DUP2 ADD SLOAD PUSH2 0xCBC PUSH1 0x3 DUP4 ADD SLOAD PUSH2 0xCAE PUSH1 0x4 DUP6 ADD SLOAD PUSH1 0xFF PUSH1 0x5 DUP8 ADD SLOAD AND PUSH2 0xC59 PUSH1 0x6 DUP9 ADD PUSH2 0x12A7 JUMP JUMPDEST SWAP2 PUSH2 0xC66 PUSH1 0x7 DUP10 ADD PUSH2 0x12A7 JUMP JUMPDEST SWAP5 PUSH1 0x9 PUSH1 0x1 DUP1 PUSH1 0xA0 SHL SUB PUSH1 0x8 DUP12 ADD SLOAD AND SWAP10 ADD SLOAD SWAP8 PUSH1 0x40 MLOAD SWAP12 DUP13 SWAP12 DUP13 MSTORE PUSH1 0x20 DUP13 ADD MSTORE PUSH1 0x40 DUP12 ADD MSTORE PUSH1 0x60 DUP11 ADD MSTORE PUSH1 0x80 DUP10 ADD MSTORE ISZERO ISZERO PUSH1 0xA0 DUP9 ADD MSTORE PUSH2 0x140 DUP1 PUSH1 0xC0 DUP10 ADD MSTORE DUP8 ADD SWAP1 PUSH2 0x11BF JUMP JUMPDEST SWAP1 DUP6 DUP3 SUB PUSH1 0xE0 DUP8 ADD MSTORE PUSH2 0x11BF JUMP JUMPDEST SWAP2 PUSH2 0x100 DUP5 ADD MSTORE PUSH2 0x120 DUP4 ADD MSTORE SUB SWAP1 RETURN JUMPDEST CALLVALUE PUSH2 0x121 JUMPI PUSH1 0x20 CALLDATASIZE PUSH1 0x3 NOT ADD SLT PUSH2 0x121 JUMPI PUSH1 0x4 CALLDATALOAD PUSH1 0x1 PUSH1 0x1 PUSH1 0xA0 SHL SUB DUP2 DUP2 AND SWAP2 DUP3 SWAP1 SUB PUSH2 0x121 JUMPI PUSH2 0xD03 SWAP1 PUSH1 0x0 SLOAD AND CALLER EQ PUSH2 0x137B JUMP JUMPDEST DUP1 PUSH1 0x0 MSTORE PUSH1 0x1 PUSH1 0x20 MSTORE PUSH1 0x40 PUSH1 0x0 KECCAK256 PUSH1 0xFF NOT DUP2 SLOAD AND SWAP1 SSTORE PUSH32 0xD362D30FFB2DD7B0C32DD96B9E07E094CF94C06185ED44CA80A984B4698F58B5 PUSH1 0x20 PUSH1 0x40 MLOAD TIMESTAMP DUP2 MSTORE LOG2 STOP JUMPDEST CALLVALUE PUSH2 0x121 JUMPI PUSH1 0x20 CALLDATASIZE PUSH1 0x3 NOT ADD SLT PUSH2 0x121 JUMPI PUSH1 0x4 CALLDATALOAD PUSH1 0x1 PUSH1 0x1 PUSH1 0xA0 SHL SUB DUP2 AND SWAP1 DUP2 SWAP1 SUB PUSH2 0x121 JUMPI PUSH1 0x0 MSTORE PUSH1 0x1 PUSH1 0x20 MSTORE PUSH1 0x20 PUSH1 0xFF PUSH1 0x40 PUSH1 0x0 KECCAK256 SLOAD AND PUSH1 0x40 MLOAD SWAP1 ISZERO ISZERO DUP2 MSTORE RETURN JUMPDEST CALLVALUE PUSH2 0x121 JUMPI PUSH1 0x0 CALLDATASIZE PUSH1 0x3 NOT ADD SLT PUSH2 0x121 JUMPI PUSH1 0x0 SLOAD PUSH1 0x40 MLOAD PUSH1 0x1 PUSH1 0x1 PUSH1 0xA0 SHL SUB SWAP1 SWAP2 AND DUP2 MSTORE PUSH1 0x20 SWAP1 RETURN JUMPDEST CALLVALUE PUSH2 0x121 JUMPI PUSH1 0x20 CALLDATASIZE PUSH1 0x3 NOT ADD SLT PUSH2 0x121 JUMPI PUSH1 0x4 CALLDATALOAD PUSH1 0x1 PUSH1 0x1 PUSH1 0xA0 SHL SUB DUP2 DUP2 AND SWAP2 DUP3 SWAP1 SUB PUSH2 0x121 JUMPI PUSH2 0xDE7 SWAP1 PUSH1 0x0 SLOAD AND CALLER EQ PUSH2 0x137B JUMP JUMPDEST PUSH2 0xDF2 DUP2 ISZERO ISZERO PUSH2 0x13D1 JUMP JUMPDEST DUP1 PUSH1 0x0 MSTORE PUSH1 0x1 PUSH1 0x20 MSTORE PUSH1 0x40 PUSH1 0x0 KECCAK256 PUSH1 0x1 PUSH1 0xFF NOT DUP3 SLOAD AND OR SWAP1 SSTORE PUSH32 0x25959AD9F50E7D00F36137DCF207138E49F759A94043ECAC1B21EF7F31DFE6BB PUSH1 0x20 PUSH1 0x40 MLOAD TIMESTAMP DUP2 MSTORE LOG2 STOP JUMPDEST CALLVALUE PUSH2 0x121 JUMPI PUSH1 0x40 CALLDATASIZE PUSH1 0x3 NOT ADD SLT PUSH2 0x121 JUMPI PUSH1 0x24 CALLDATALOAD PUSH1 0x4 CALLDATALOAD PUSH1 0x0 MSTORE PUSH1 0x5 PUSH1 0x20 MSTORE PUSH1 0x40 PUSH1 0x0 KECCAK256 DUP1 SLOAD DUP3 LT ISZERO PUSH2 0x121 JUMPI PUSH1 0x20 SWAP2 PUSH2 0xE70 SWAP2 PUSH2 0x11E4 JUMP JUMPDEST SWAP1 SLOAD PUSH1 0x40 MLOAD SWAP2 PUSH1 0x3 SHL SHR DUP2 MSTORE RETURN JUMPDEST CALLVALUE PUSH2 0x121 JUMPI PUSH1 0x0 CALLDATASIZE PUSH1 0x3 NOT ADD SLT PUSH2 0x121 JUMPI PUSH1 0x40 MLOAD PUSH32 0x0 PUSH1 0x1 PUSH1 0x1 PUSH1 0xA0 SHL SUB AND DUP2 MSTORE PUSH1 0x20 SWAP1 RETURN JUMPDEST CALLVALUE PUSH2 0x121 JUMPI PUSH1 0x40 CALLDATASIZE PUSH1 0x3 NOT ADD SLT PUSH2 0x121 JUMPI PUSH1 0x40 MLOAD PUSH4 0xEC06D73B PUSH1 0xE0 SHL DUP2 MSTORE PUSH1 0x4 DUP1 CALLDATALOAD SWAP1 DUP3 ADD MSTORE PUSH1 0x24 DUP1 CALLDATALOAD SWAP1 DUP3 ADD MSTORE PUSH1 0x20 DUP2 PUSH1 0x44 DUP2 PUSH32 0x0 PUSH1 0x1 PUSH1 0x1 PUSH1 0xA0 SHL SUB AND GAS STATICCALL DUP1 ISZERO PUSH2 0x962 JUMPI PUSH1 0x0 SWAP1 PUSH2 0xF3E JUMPI JUMPDEST PUSH1 0x20 SWAP1 PUSH1 0x40 MLOAD SWAP1 ISZERO ISZERO DUP2 MSTORE RETURN JUMPDEST POP PUSH1 0x20 DUP2 RETURNDATASIZE DUP3 GT PUSH2 0xF6F JUMPI JUMPDEST DUP2 PUSH2 0xF57 PUSH1 0x20 SWAP4 DUP4 PUSH2 0x1285 JUMP JUMPDEST DUP2 ADD SUB SLT PUSH2 0x121 JUMPI PUSH2 0xF6A PUSH1 0x20 SWAP2 PUSH2 0x1432 JUMP JUMPDEST PUSH2 0xF31 JUMP JUMPDEST RETURNDATASIZE SWAP2 POP PUSH2 0xF4A JUMP JUMPDEST CALLVALUE PUSH2 0x121 JUMPI PUSH1 0x20 CALLDATASIZE PUSH1 0x3 NOT ADD SLT PUSH2 0x121 JUMPI PUSH1 0x4 CALLDATALOAD PUSH1 0x0 PUSH2 0x120 PUSH1 0x40 MLOAD PUSH2 0xF9C DUP2 PUSH2 0x124C JUMP JUMPDEST DUP3 DUP2 MSTORE DUP3 PUSH1 0x20 DUP3 ADD MSTORE DUP3 PUSH1 0x40 DUP3 ADD MSTORE DUP3 PUSH1 0x60 DUP3 ADD MSTORE DUP3 PUSH1 0x80 DUP3 ADD MSTORE DUP3 PUSH1 0xA0 DUP3 ADD MSTORE PUSH1 0x60 PUSH1 0xC0 DUP3 ADD MSTORE PUSH1 0x60 PUSH1 0xE0 DUP3 ADD MSTORE DUP3 PUSH2 0x100 DUP3 ADD MSTORE ADD MSTORE DUP1 ISZERO ISZERO DUP1 PUSH2 0x1157 JUMPI JUMPDEST ISZERO PUSH2 0x1112 JUMPI PUSH1 0x0 MSTORE PUSH1 0x4 PUSH1 0x20 MSTORE PUSH1 0x40 PUSH1 0x0 KECCAK256 PUSH1 0x9 PUSH1 0x40 MLOAD SWAP2 PUSH2 0xFFE DUP4 PUSH2 0x124C JUMP JUMPDEST DUP1 SLOAD DUP4 MSTORE PUSH1 0x1 DUP2 ADD SLOAD PUSH1 0x20 DUP5 ADD MSTORE PUSH1 0x2 DUP2 ADD SLOAD PUSH1 0x40 DUP5 ADD MSTORE PUSH1 0x3 DUP2 ADD SLOAD PUSH1 0x60 DUP5 ADD MSTORE PUSH1 0x4 DUP2 ADD SLOAD PUSH1 0x80 DUP5 ADD MSTORE PUSH1 0xFF PUSH1 0x5 DUP3 ADD SLOAD AND ISZERO ISZERO PUSH1 0xA0 DUP5 ADD MSTORE PUSH2 0x1045 PUSH1 0x6 DUP3 ADD PUSH2 0x12A7 JUMP JUMPDEST PUSH1 0xC0 DUP5 ADD MSTORE PUSH2 0x1056 PUSH1 0x7 DUP3 ADD PUSH2 0x12A7 JUMP JUMPDEST PUSH1 0xE0 DUP5 ADD MSTORE PUSH1 0x1 DUP1 PUSH1 0xA0 SHL SUB PUSH1 0x8 DUP3 ADD SLOAD AND PUSH2 0x100 DUP5 ADD MSTORE ADD SLOAD PUSH2 0x120 DUP3 ADD MSTORE PUSH1 0x40 MLOAD DUP1 SWAP2 PUSH1 0x20 DUP3 MSTORE DUP1 MLOAD PUSH1 0x20 DUP4 ADD MSTORE PUSH1 0x20 DUP2 ADD MLOAD PUSH1 0x40 DUP4 ADD MSTORE PUSH1 0x40 DUP2 ADD MLOAD PUSH1 0x60 DUP4 ADD MSTORE PUSH1 0x60 DUP2 ADD MLOAD PUSH1 0x80 DUP4 ADD MSTORE PUSH1 0x80 DUP2 ADD MLOAD PUSH1 0xA0 DUP4 ADD MSTORE PUSH1 0xA0 DUP2 ADD MLOAD ISZERO ISZERO PUSH1 0xC0 DUP4 ADD MSTORE PUSH1 0xC0 DUP2 ADD MLOAD PUSH2 0x120 PUSH2 0x10F4 PUSH2 0x10DD PUSH2 0x140 SWAP4 DUP5 PUSH1 0xE0 DUP9 ADD MSTORE PUSH2 0x160 DUP8 ADD SWAP1 PUSH2 0x11BF JUMP JUMPDEST PUSH1 0xE0 DUP6 ADD MLOAD DUP7 DUP3 SUB PUSH1 0x1F NOT ADD PUSH2 0x100 DUP9 ADD MSTORE PUSH2 0x11BF JUMP JUMPDEST PUSH2 0x100 DUP5 ADD MLOAD PUSH1 0x1 PUSH1 0x1 PUSH1 0xA0 SHL SUB AND DUP6 DUP4 ADD MSTORE SWAP3 ADD MLOAD SWAP1 DUP4 ADD MSTORE SUB SWAP1 RETURN JUMPDEST PUSH1 0x40 MLOAD PUSH3 0x461BCD PUSH1 0xE5 SHL DUP2 MSTORE PUSH1 0x20 PUSH1 0x4 DUP3 ADD MSTORE PUSH1 0x1A PUSH1 0x24 DUP3 ADD MSTORE PUSH32 0x56657269666965723A207265636F7264206E6F7420666F756E64000000000000 PUSH1 0x44 DUP3 ADD MSTORE PUSH1 0x64 SWAP1 REVERT JUMPDEST POP PUSH1 0x2 SLOAD DUP2 GT ISZERO PUSH2 0xFDD JUMP JUMPDEST CALLVALUE PUSH2 0x121 JUMPI PUSH1 0x0 CALLDATASIZE PUSH1 0x3 NOT ADD SLT PUSH2 0x121 JUMPI PUSH1 0x20 PUSH1 0x3 SLOAD PUSH1 0x40 MLOAD SWAP1 DUP2 MSTORE RETURN JUMPDEST CALLVALUE PUSH2 0x121 JUMPI PUSH1 0x0 CALLDATASIZE PUSH1 0x3 NOT ADD SLT PUSH2 0x121 JUMPI PUSH1 0x20 SWAP1 PUSH1 0x2 SLOAD DUP2 MSTORE RETURN JUMPDEST PUSH1 0x0 JUMPDEST DUP4 DUP2 LT PUSH2 0x11AF JUMPI POP POP PUSH1 0x0 SWAP2 ADD MSTORE JUMP JUMPDEST DUP2 DUP2 ADD MLOAD DUP4 DUP3 ADD MSTORE PUSH1 0x20 ADD PUSH2 0x119F JUMP JUMPDEST SWAP1 PUSH1 0x20 SWAP2 PUSH2 0x11D8 DUP2 MLOAD DUP1 SWAP3 DUP2 DUP6 MSTORE DUP6 DUP1 DUP7 ADD SWAP2 ADD PUSH2 0x119C JUMP JUMPDEST PUSH1 0x1F ADD PUSH1 0x1F NOT AND ADD ADD SWAP1 JUMP JUMPDEST DUP1 SLOAD DUP3 LT ISZERO PUSH2 0x11FC JUMPI PUSH1 0x0 MSTORE PUSH1 0x20 PUSH1 0x0 KECCAK256 ADD SWAP1 PUSH1 0x0 SWAP1 JUMP JUMPDEST PUSH4 0x4E487B71 PUSH1 0xE0 SHL PUSH1 0x0 MSTORE PUSH1 0x32 PUSH1 0x4 MSTORE PUSH1 0x24 PUSH1 0x0 REVERT JUMPDEST SWAP1 PUSH1 0x1 DUP3 DUP2 SHR SWAP3 AND DUP1 ISZERO PUSH2 0x1242 JUMPI JUMPDEST PUSH1 0x20 DUP4 LT EQ PUSH2 0x122C JUMPI JUMP JUMPDEST PUSH4 0x4E487B71 PUSH1 0xE0 SHL PUSH1 0x0 MSTORE PUSH1 0x22 PUSH1 0x4 MSTORE PUSH1 0x24 PUSH1 0x0 REVERT JUMPDEST SWAP2 PUSH1 0x7F AND SWAP2 PUSH2 0x1221 JUMP JUMPDEST PUSH2 0x140 DUP2 ADD SWAP1 DUP2 LT PUSH8 0xFFFFFFFFFFFFFFFF DUP3 GT OR PUSH2 0x6E7 JUMPI PUSH1 0x40 MSTORE JUMP JUMPDEST PUSH1 0x40 DUP2 ADD SWAP1 DUP2 LT PUSH8 0xFFFFFFFFFFFFFFFF DUP3 GT OR PUSH2 0x6E7 JUMPI PUSH1 0x40 MSTORE JUMP JUMPDEST SWAP1 PUSH1 0x1F DUP1 NOT SWAP2 ADD AND DUP2 ADD SWAP1 DUP2 LT PUSH8 0xFFFFFFFFFFFFFFFF DUP3 GT OR PUSH2 0x6E7 JUMPI PUSH1 0x40 MSTORE JUMP JUMPDEST SWAP1 PUSH1 0x40 MLOAD SWAP2 DUP3 PUSH1 0x0 DUP3 SLOAD SWAP3 PUSH2 0x12BB DUP5 PUSH2 0x1212 JUMP JUMPDEST SWAP1 DUP2 DUP5 MSTORE PUSH1 0x1 SWAP5 DUP6 DUP2 AND SWAP1 DUP2 PUSH1 0x0 EQ PUSH2 0x132A JUMPI POP PUSH1 0x1 EQ PUSH2 0x12E7 JUMPI JUMPDEST POP POP PUSH2 0x12E5 SWAP3 POP SUB DUP4 PUSH2 0x1285 JUMP JUMPDEST JUMP JUMPDEST SWAP1 SWAP4 SWAP2 POP PUSH1 0x0 MSTORE PUSH1 0x20 SWAP1 DUP2 PUSH1 0x0 KECCAK256 SWAP4 PUSH1 0x0 SWAP2 JUMPDEST DUP2 DUP4 LT PUSH2 0x1312 JUMPI POP POP PUSH2 0x12E5 SWAP4 POP DUP3 ADD ADD CODESIZE DUP1 PUSH2 0x12D7 JUMP JUMPDEST DUP6 SLOAD DUP9 DUP5 ADD DUP6 ADD MSTORE SWAP5 DUP6 ADD SWAP5 DUP8 SWAP5 POP SWAP2 DUP4 ADD SWAP2 PUSH2 0x12FA JUMP JUMPDEST SWAP2 POP POP PUSH2 0x12E5 SWAP5 POP PUSH1 0x20 SWAP3 POP PUSH1 0xFF NOT AND DUP3 DUP5 ADD MSTORE ISZERO ISZERO PUSH1 0x5 SHL DUP3 ADD ADD CODESIZE DUP1 PUSH2 0x12D7 JUMP JUMPDEST SWAP2 DUP2 PUSH1 0x1F DUP5 ADD SLT ISZERO PUSH2 0x121 JUMPI DUP3 CALLDATALOAD SWAP2 PUSH8 0xFFFFFFFFFFFFFFFF DUP4 GT PUSH2 0x121 JUMPI PUSH1 0x20 DUP4 DUP2 DUP7 ADD SWAP6 ADD ADD GT PUSH2 0x121 JUMPI JUMP JUMPDEST ISZERO PUSH2 0x1382 JUMPI JUMP JUMPDEST PUSH1 0x40 MLOAD PUSH3 0x461BCD PUSH1 0xE5 SHL DUP2 MSTORE PUSH1 0x20 PUSH1 0x4 DUP3 ADD MSTORE PUSH1 0x21 PUSH1 0x24 DUP3 ADD MSTORE PUSH32 0x56657269666965723A2063616C6C6572206973206E6F7420746865206F776E65 PUSH1 0x44 DUP3 ADD MSTORE PUSH1 0x39 PUSH1 0xF9 SHL PUSH1 0x64 DUP3 ADD MSTORE PUSH1 0x84 SWAP1 REVERT JUMPDEST ISZERO PUSH2 0x13D8 JUMPI JUMP JUMPDEST PUSH1 0x40 MLOAD PUSH3 0x461BCD PUSH1 0xE5 SHL DUP2 MSTORE PUSH1 0x20 PUSH1 0x4 DUP3 ADD MSTORE PUSH1 0x16 PUSH1 0x24 DUP3 ADD MSTORE PUSH22 0x56657269666965723A207A65726F2061646472657373 PUSH1 0x50 SHL PUSH1 0x44 DUP3 ADD MSTORE PUSH1 0x64 SWAP1 REVERT JUMPDEST PUSH8 0xFFFFFFFFFFFFFFFF DUP2 GT PUSH2 0x6E7 JUMPI PUSH1 0x1F ADD PUSH1 0x1F NOT AND PUSH1 0x20 ADD SWAP1 JUMP JUMPDEST MLOAD SWAP1 DUP2 ISZERO ISZERO DUP3 SUB PUSH2 0x121 JUMPI JUMP JUMPDEST SWAP3 SWAP2 SWAP3 PUSH2 0x144B DUP3 PUSH2 0x1416 JUMP JUMPDEST SWAP2 PUSH2 0x1459 PUSH1 0x40 MLOAD SWAP4 DUP5 PUSH2 0x1285 JUMP JUMPDEST DUP3 SWAP5 DUP2 DUP5 MSTORE DUP2 DUP4 ADD GT PUSH2 0x121 JUMPI DUP3 DUP2 PUSH1 0x20 SWAP4 DUP5 PUSH1 0x0 SWAP7 ADD CALLDATACOPY ADD ADD MSTORE JUMP JUMPDEST SWAP1 DUP1 PUSH1 0x20 SWAP4 SWAP3 DUP2 DUP5 MSTORE DUP5 DUP5 ADD CALLDATACOPY PUSH1 0x0 DUP3 DUP3 ADD DUP5 ADD MSTORE PUSH1 0x1F ADD PUSH1 0x1F NOT AND ADD ADD SWAP1 JUMP INVALID LOG2 PUSH5 0x6970667358 0x22 SLT KECCAK256 0x1E 0xBB ADD MULMOD CREATE PREVRANDAO SWAP2 CALLDATASIZE SWAP9 0xFC SWAP9 0xCD 0xE8 SWAP10 DUP6 0x26 0xDD PUSH25 0x5D8A9D6C738A31BBBA1B10140EB64736F6C63430008130033 "},"methodIdentifiers":{"authoriseCaller(address)":"8c2f2185","authorisedCallers(address)":"944fd180","checkOnly(uint256,bytes32)":"58bd784a","failureCount()":"1a6d1d57","getStats()":"c59d4847","getVerification(uint256)":"58937cc8","getVerificationsByPipeline(uint256)":"c8f0f3d2","logger()":"f24ccbfe","owner()":"8da5cb5b","registry()":"7b103999","revokeCaller(address)":"b7743530","transferOwnership(address)":"f2fde38b","verificationCount()":"0830e22e","verifications(uint256)":"b90b0a10","verificationsByPipeline(uint256,uint256)":"7deeee01","verify(uint256,uint256,bytes32,string,string)":"d74ee962"}}}}}