{
  "_format": "hh-sol-artifact-1",
  "contractName": "PipelineRegistry",
  "sourceName": "contracts/PipelineRegistry.sol",
  "abi": [
    {
      "inputs": [],
      "stateMutability": "nonpayable",
      "type": "constructor"
    },
    {
      "anonymous": false,
      "inputs": [
        {
          "indexed": true,
          "internalType": "uint256",
          "name": "pipelineId",
          "type": "uint256"
        },
        {
          "indexed": false,
          "internalType": "bytes32",
          "name": "oldHash",
          "type": "bytes32"
        },
        {
          "indexed": false,
          "internalType": "bytes32",
          "name": "newHash",
          "type": "bytes32"
        },
        {
          "indexed": true,
          "internalType": "address",
          "name": "updatedBy",
          "type": "address"
        },
        {
          "indexed": false,
          "internalType": "uint256",
          "name": "timestamp",
          "type": "uint256"
        }
      ],
      "name": "PipelineHashUpdated",
      "type": "event"
    },
    {
      "anonymous": false,
      "inputs": [
        {
          "indexed": true,
          "internalType": "uint256",
          "name": "pipelineId",
          "type": "uint256"
        },
        {
          "indexed": false,
          "internalType": "string",
          "name": "name",
          "type": "string"
        },
        {
          "indexed": false,
          "internalType": "bytes32",
          "name": "configHash",
          "type": "bytes32"
        },
        {
          "indexed": true,
          "internalType": "address",
          "name": "registeredBy",
          "type": "address"
        },
        {
          "indexed": false,
          "internalType": "uint256",
          "name": "timestamp",
          "type": "uint256"
        }
      ],
      "name": "PipelineRegistered",
      "type": "event"
    },
    {
      "anonymous": false,
      "inputs": [
        {
          "indexed": true,
          "internalType": "uint256",
          "name": "pipelineId",
          "type": "uint256"
        },
        {
          "indexed": true,
          "internalType": "address",
          "name": "revokedBy",
          "type": "address"
        },
        {
          "indexed": false,
          "internalType": "uint256",
          "name": "timestamp",
          "type": "uint256"
        }
      ],
      "name": "PipelineRevoked",
      "type": "event"
    },
    {
      "inputs": [
        {
          "internalType": "uint256",
          "name": "",
          "type": "uint256"
        }
      ],
      "name": "approvedHashes",
      "outputs": [
        {
          "internalType": "bytes32",
          "name": "",
          "type": "bytes32"
        }
      ],
      "stateMutability": "view",
      "type": "function"
    },
    {
      "inputs": [
        {
          "internalType": "uint256",
          "name": "pipelineId",
          "type": "uint256"
        }
      ],
      "name": "getPipeline",
      "outputs": [
        {
          "internalType": "string",
          "name": "name",
          "type": "string"
        },
        {
          "internalType": "bytes32",
          "name": "configHash",
          "type": "bytes32"
        },
        {
          "internalType": "bool",
          "name": "registered",
          "type": "bool"
        },
        {
          "internalType": "bool",
          "name": "revoked",
          "type": "bool"
        }
      ],
      "stateMutability": "view",
      "type": "function"
    },
    {
      "inputs": [
        {
          "internalType": "uint256",
          "name": "",
          "type": "uint256"
        }
      ],
      "name": "isRegistered",
      "outputs": [
        {
          "internalType": "bool",
          "name": "",
          "type": "bool"
        }
      ],
      "stateMutability": "view",
      "type": "function"
    },
    {
      "inputs": [
        {
          "internalType": "uint256",
          "name": "",
          "type": "uint256"
        }
      ],
      "name": "isRevoked",
      "outputs": [
        {
          "internalType": "bool",
          "name": "",
          "type": "bool"
        }
      ],
      "stateMutability": "view",
      "type": "function"
    },
    {
      "inputs": [],
      "name": "owner",
      "outputs": [
        {
          "internalType": "address",
          "name": "",
          "type": "address"
        }
      ],
      "stateMutability": "view",
      "type": "function"
    },
    {
      "inputs": [],
      "name": "pipelineCount",
      "outputs": [
        {
          "internalType": "uint256",
          "name": "",
          "type": "uint256"
        }
      ],
      "stateMutability": "view",
      "type": "function"
    },
    {
      "inputs": [
        {
          "internalType": "uint256",
          "name": "",
          "type": "uint256"
        }
      ],
      "name": "pipelineNames",
      "outputs": [
        {
          "internalType": "string",
          "name": "",
          "type": "string"
        }
      ],
      "stateMutability": "view",
      "type": "function"
    },
    {
      "inputs": [
        {
          "internalType": "string",
          "name": "name",
          "type": "string"
        },
        {
          "internalType": "bytes32",
          "name": "configHash",
          "type": "bytes32"
        }
      ],
      "name": "registerPipeline",
      "outputs": [
        {
          "internalType": "uint256",
          "name": "pipelineId",
          "type": "uint256"
        }
      ],
      "stateMutability": "nonpayable",
      "type": "function"
    },
    {
      "inputs": [
        {
          "internalType": "uint256",
          "name": "pipelineId",
          "type": "uint256"
        }
      ],
      "name": "revokePipeline",
      "outputs": [],
      "stateMutability": "nonpayable",
      "type": "function"
    },
    {
      "inputs": [
        {
          "internalType": "address",
          "name": "newOwner",
          "type": "address"
        }
      ],
      "name": "transferOwnership",
      "outputs": [],
      "stateMutability": "nonpayable",
      "type": "function"
    },
    {
      "inputs": [
        {
          "internalType": "uint256",
          "name": "pipelineId",
          "type": "uint256"
        },
        {
          "internalType": "bytes32",
          "name": "newHash",
          "type": "bytes32"
        }
      ],
      "name": "updateApprovedHash",
      "outputs": [],
      "stateMutability": "nonpayable",
      "type": "function"
    },
    {
      "inputs": [
        {
          "internalType": "uint256",
          "name": "pipelineId",
          "type": "uint256"
        },
        {
          "internalType": "bytes32",
          "name": "candidateHash",
          "type": "bytes32"
        }
      ],
      "name": "verifyHash",
      "outputs": [
        {
          "internalType": "bool",
          "name": "isValid",
          "type": "bool"
        }
      ],
      "stateMutability": "view",
      "type": "function"
    }
  ],
  "bytecode": "0x6080806040523461002857600080546001600160a01b03191633179055610a66908161002e8239f35b600080fdfe60406080815260048036101561001457600080fd5b600091823560e01c80631a344200146106ea5780631ad94bd2146106515780632ab4d70a14610632578063579a6988146106055780635c67ee801461055d5780635ccc561e146105315780638d81b0c5146102405780638da5cb5b14610218578063d5b26c7f146101a4578063e29aaf521461017c578063ec06d73b146101535763f2fde38b146100a457600080fd5b3461014f57602036600319011261014f576001600160a01b0382358181169391929084900361014b576100dc8554938416331461088b565b83156100f45750506001600160a01b03191617815580f35b906020608492519162461bcd60e51b8352820152602b60248201527f506970656c696e6552656769737472793a206e6577206f776e6572206973207a60448201526a65726f206164647265737360a81b6064820152fd5b8480fd5b8280fd5b8382346101785760209061016f61016936610870565b906109f5565b90519015158152f35b5080fd5b50903461014f57602036600319011261014f5760209282913581526002845220549051908152f35b50919034610178576020908160031936011261014f5761020393813584526001835280842091600284526101ef60ff8380882054976003885282828220541694885220541693610765565b948251968796608088526080880190610830565b94860152151590840152151560608301520390f35b838234610178578160031936011261017857905490516001600160a01b039091168152602090f35b5082903461017857806003193601126101785782359167ffffffffffffffff9081841161052e573660238501121561052e578385013591821161052e5760249336858483010111610178578435906102a260018060a01b03845416331461088b565b83156104dd576102b38215156108e9565b60055491600019938484146104cb578560018095019889958660055586845260209b8c98828a528b8620906102e8825461072b565b601f8111610452575b50869a601f87116001146103ae575085857f8f82f10a15e459ea39525acdaadc1980bd98aadb84512d0a10cf131d1dddd0a19b9c89926103a1575b505086851b918760031b1c19161790555b88855260028d52858b86205560038d528a852060ff1992838254161790558c5289842090815416905588519460608652826060870152016080850137608086840101528782015242858201526080813395601f80199101168101030190a351908152f35b8b0101359050853861032c565b909a601f1987168389528289209289905b82821061041e5750507f8f82f10a15e459ea39525acdaadc1980bd98aadb84512d0a10cf131d1dddd0a19b9c88889210610404575b505050508285811b01905561033d565b60f88960031b161c19918b0101351690558e8085816103f4565b9296889b9d508392948d9f96998493989b5089839d9f01013581550196019401918f9b9996939c9a9895928e9895926103bf565b91949799509295979991945083885281882090601f8c0160051c8201928c106104c1575b928b95928f9b999794928f9b999693601f0160051c01905b81811061049b57506102f1565b889a9c508598919497508092959396999b505501928d999795928b95928e9a989561048e565b9091508190610476565b634e487b7160e01b8152601189528790fd5b845162461bcd60e51b81526020818901526026818801527f506970656c696e6552656769737472793a206e616d652063616e6e6f7420626560448201526520656d70747960d01b6064820152608490fd5b80fd5b50903461014f57602036600319011261014f57816020938260ff93358252855220541690519015158152f35b50903461014f5761056d36610870565b92909161058460018060a01b03865416331461088b565b828552600360205261059b60ff8387205416610943565b8285526020526105b160ff82862054161561099b565b6105bc8315156108e9565b81845260026020528084209280845494558151938452602084015242908301527f334a39b855bd75e8ed251c329d5a258a9df9776f4dfa938f9243f10d0c9a3f9460603393a380f35b50903461014f57602036600319011261014f578160209360ff923581526003855220541690519015158152f35b8382346101785781600319360112610178576020906005549051908152f35b503461014f57602036600319011261014f5781359161067a60018060a01b03855416331461088b565b828452600360205261069160ff8386205416610943565b828452806020526106a860ff83862054161561099b565b828452602052808320600160ff1982541617905551904282527f229306e0e9410f55a7429f597d3a1348ccd6cde05a04020175113b51f651023460203393a380f35b50903461014f57602036600319011261014f57816107279361071492358152600160205220610765565b9051918291602083526020830190610830565b0390f35b90600182811c9216801561075b575b602083101461074557565b634e487b7160e01b600052602260045260246000fd5b91607f169161073a565b90604051916000908054906107798261072b565b90818652600192838116908160001461080f57506001146107d2575b505050829003601f01601f1916820167ffffffffffffffff8111838210176107bc57604052565b634e487b7160e01b600052604160045260246000fd5b9092506000526020918260002091836000935b8385106107fb5750505050830101388080610795565b8054888601830152930192849082016107e5565b92935050506020925060ff191682850152151560051b830101388080610795565b919082519283825260005b84811061085c575050826000602080949584010152601f8019910116010190565b60208183018101518483018201520161083b565b6040906003190112610886576004359060243590565b600080fd5b1561089257565b60405162461bcd60e51b815260206004820152602960248201527f506970656c696e6552656769737472793a2063616c6c6572206973206e6f74206044820152683a34329037bbb732b960b91b6064820152608490fd5b156108f057565b60405162461bcd60e51b815260206004820152602560248201527f506970656c696e6552656769737472793a20686173682063616e6e6f74206265604482015264207a65726f60d81b6064820152608490fd5b1561094a57565b60405162461bcd60e51b8152602060048201526024808201527f506970656c696e6552656769737472793a20706970656c696e65206e6f7420666044820152631bdd5b9960e21b6064820152608490fd5b156109a257565b60405162461bcd60e51b815260206004820152602560248201527f506970656c696e6552656769737472793a20706970656c696e652069732072656044820152641d9bdad95960da1b6064820152608490fd5b6000908152600360205260ff60408220541615610a2b57600460205260ff604082205416610a2b57604090600260205220541490565b90509056fea26469706673582212201dff78d4f9d056a3ad5fe4ea18ac0ab6923bea0cd36b0afa5582661fba5d68c464736f6c63430008130033",
  "linkReferences": {},
  "deployedLinkReferences": {}
}