{
  "_format": "hh-sol-artifact-1",
  "contractName": "Verifier",
  "sourceName": "contracts/Verifier.sol",
  "abi": [
    {
      "inputs": [
        {
          "internalType": "address",
          "name": "registryAddress",
          "type": "address"
        },
        {
          "internalType": "address",
          "name": "loggerAddress",
          "type": "address"
        }
      ],
      "stateMutability": "nonpayable",
      "type": "constructor"
    },
    {
      "anonymous": false,
      "inputs": [
        {
          "indexed": true,
          "internalType": "address",
          "name": "caller",
          "type": "address"
        },
        {
          "indexed": false,
          "internalType": "uint256",
          "name": "timestamp",
          "type": "uint256"
        }
      ],
      "name": "CallerAuthorised",
      "type": "event"
    },
    {
      "anonymous": false,
      "inputs": [
        {
          "indexed": true,
          "internalType": "address",
          "name": "caller",
          "type": "address"
        },
        {
          "indexed": false,
          "internalType": "uint256",
          "name": "timestamp",
          "type": "uint256"
        }
      ],
      "name": "CallerRevoked",
      "type": "event"
    },
    {
      "anonymous": false,
      "inputs": [
        {
          "indexed": true,
          "internalType": "uint256",
          "name": "pipelineId",
          "type": "uint256"
        },
        {
          "indexed": true,
          "internalType": "uint256",
          "name": "runId",
          "type": "uint256"
        },
        {
          "indexed": false,
          "internalType": "bytes32",
          "name": "candidateHash",
          "type": "bytes32"
        },
        {
          "indexed": false,
          "internalType": "bytes32",
          "name": "approvedHash",
          "type": "bytes32"
        },
        {
          "indexed": false,
          "internalType": "string",
          "name": "actor",
          "type": "string"
        },
        {
          "indexed": false,
          "internalType": "uint256",
          "name": "timestamp",
          "type": "uint256"
        }
      ],
      "name": "TamperDetected",
      "type": "event"
    },
    {
      "anonymous": false,
      "inputs": [
        {
          "indexed": true,
          "internalType": "uint256",
          "name": "verificationId",
          "type": "uint256"
        },
        {
          "indexed": true,
          "internalType": "uint256",
          "name": "pipelineId",
          "type": "uint256"
        },
        {
          "indexed": true,
          "internalType": "uint256",
          "name": "runId",
          "type": "uint256"
        },
        {
          "indexed": false,
          "internalType": "bytes32",
          "name": "candidateHash",
          "type": "bytes32"
        },
        {
          "indexed": false,
          "internalType": "bytes32",
          "name": "approvedHash",
          "type": "bytes32"
        },
        {
          "indexed": false,
          "internalType": "bool",
          "name": "passed",
          "type": "bool"
        },
        {
          "indexed": false,
          "internalType": "string",
          "name": "actor",
          "type": "string"
        },
        {
          "indexed": false,
          "internalType": "uint256",
          "name": "timestamp",
          "type": "uint256"
        }
      ],
      "name": "VerificationResult",
      "type": "event"
    },
    {
      "inputs": [
        {
          "internalType": "address",
          "name": "caller",
          "type": "address"
        }
      ],
      "name": "authoriseCaller",
      "outputs": [],
      "stateMutability": "nonpayable",
      "type": "function"
    },
    {
      "inputs": [
        {
          "internalType": "address",
          "name": "",
          "type": "address"
        }
      ],
      "name": "authorisedCallers",
      "outputs": [
        {
          "internalType": "bool",
          "name": "",
          "type": "bool"
        }
      ],
      "stateMutability": "view",
      "type": "function"
    },
    {
      "inputs": [
        {
          "internalType": "uint256",
          "name": "pipelineId",
          "type": "uint256"
        },
        {
          "internalType": "bytes32",
          "name": "candidateHash",
          "type": "bytes32"
        }
      ],
      "name": "checkOnly",
      "outputs": [
        {
          "internalType": "bool",
          "name": "",
          "type": "bool"
        }
      ],
      "stateMutability": "view",
      "type": "function"
    },
    {
      "inputs": [],
      "name": "failureCount",
      "outputs": [
        {
          "internalType": "uint256",
          "name": "",
          "type": "uint256"
        }
      ],
      "stateMutability": "view",
      "type": "function"
    },
    {
      "inputs": [],
      "name": "getStats",
      "outputs": [
        {
          "internalType": "uint256",
          "name": "total",
          "type": "uint256"
        },
        {
          "internalType": "uint256",
          "name": "failures",
          "type": "uint256"
        },
        {
          "internalType": "uint256",
          "name": "passes",
          "type": "uint256"
        }
      ],
      "stateMutability": "view",
      "type": "function"
    },
    {
      "inputs": [
        {
          "internalType": "uint256",
          "name": "verificationId",
          "type": "uint256"
        }
      ],
      "name": "getVerification",
      "outputs": [
        {
          "components": [
            {
              "internalType": "uint256",
              "name": "verificationId",
              "type": "uint256"
            },
            {
              "internalType": "uint256",
              "name": "pipelineId",
              "type": "uint256"
            },
            {
              "internalType": "uint256",
              "name": "runId",
              "type": "uint256"
            },
            {
              "internalType": "bytes32",
              "name": "candidateHash",
              "type": "bytes32"
            },
            {
              "internalType": "bytes32",
              "name": "approvedHash",
              "type": "bytes32"
            },
            {
              "internalType": "bool",
              "name": "passed",
              "type": "bool"
            },
            {
              "internalType": "string",
              "name": "commitHash",
              "type": "string"
            },
            {
              "internalType": "string",
              "name": "actor",
              "type": "string"
            },
            {
              "internalType": "address",
              "name": "checkedBy",
              "type": "address"
            },
            {
              "internalType": "uint256",
              "name": "timestamp",
              "type": "uint256"
            }
          ],
          "internalType": "struct Verifier.VerificationRecord",
          "name": "",
          "type": "tuple"
        }
      ],
      "stateMutability": "view",
      "type": "function"
    },
    {
      "inputs": [
        {
          "internalType": "uint256",
          "name": "pipelineId",
          "type": "uint256"
        }
      ],
      "name": "getVerificationsByPipeline",
      "outputs": [
        {
          "internalType": "uint256[]",
          "name": "",
          "type": "uint256[]"
        }
      ],
      "stateMutability": "view",
      "type": "function"
    },
    {
      "inputs": [],
      "name": "logger",
      "outputs": [
        {
          "internalType": "contract IEventLogger",
          "name": "",
          "type": "address"
        }
      ],
      "stateMutability": "view",
      "type": "function"
    },
    {
      "inputs": [],
      "name": "owner",
      "outputs": [
        {
          "internalType": "address",
          "name": "",
          "type": "address"
        }
      ],
      "stateMutability": "view",
      "type": "function"
    },
    {
      "inputs": [],
      "name": "registry",
      "outputs": [
        {
          "internalType": "contract IPipelineRegistry",
          "name": "",
          "type": "address"
        }
      ],
      "stateMutability": "view",
      "type": "function"
    },
    {
      "inputs": [
        {
          "internalType": "address",
          "name": "caller",
          "type": "address"
        }
      ],
      "name": "revokeCaller",
      "outputs": [],
      "stateMutability": "nonpayable",
      "type": "function"
    },
    {
      "inputs": [
        {
          "internalType": "address",
          "name": "newOwner",
          "type": "address"
        }
      ],
      "name": "transferOwnership",
      "outputs": [],
      "stateMutability": "nonpayable",
      "type": "function"
    },
    {
      "inputs": [],
      "name": "verificationCount",
      "outputs": [
        {
          "internalType": "uint256",
          "name": "",
          "type": "uint256"
        }
      ],
      "stateMutability": "view",
      "type": "function"
    },
    {
      "inputs": [
        {
          "internalType": "uint256",
          "name": "",
          "type": "uint256"
        }
      ],
      "name": "verifications",
      "outputs": [
        {
          "internalType": "uint256",
          "name": "verificationId",
          "type": "uint256"
        },
        {
          "internalType": "uint256",
          "name": "pipelineId",
          "type": "uint256"
        },
        {
          "internalType": "uint256",
          "name": "runId",
          "type": "uint256"
        },
        {
          "internalType": "bytes32",
          "name": "candidateHash",
          "type": "bytes32"
        },
        {
          "internalType": "bytes32",
          "name": "approvedHash",
          "type": "bytes32"
        },
        {
          "internalType": "bool",
          "name": "passed",
          "type": "bool"
        },
        {
          "internalType": "string",
          "name": "commitHash",
          "type": "string"
        },
        {
          "internalType": "string",
          "name": "actor",
          "type": "string"
        },
        {
          "internalType": "address",
          "name": "checkedBy",
          "type": "address"
        },
        {
          "internalType": "uint256",
          "name": "timestamp",
          "type": "uint256"
        }
      ],
      "stateMutability": "view",
      "type": "function"
    },
    {
      "inputs": [
        {
          "internalType": "uint256",
          "name": "",
          "type": "uint256"
        },
        {
          "internalType": "uint256",
          "name": "",
          "type": "uint256"
        }
      ],
      "name": "verificationsByPipeline",
      "outputs": [
        {
          "internalType": "uint256",
          "name": "",
          "type": "uint256"
        }
      ],
      "stateMutability": "view",
      "type": "function"
    },
    {
      "inputs": [
        {
          "internalType": "uint256",
          "name": "pipelineId",
          "type": "uint256"
        },
        {
          "internalType": "uint256",
          "name": "runId",
          "type": "uint256"
        },
        {
          "internalType": "bytes32",
          "name": "candidateHash",
          "type": "bytes32"
        },
        {
          "internalType": "string",
          "name": "commitHash",
          "type": "string"
        },
        {
          "internalType": "string",
          "name": "actor",
          "type": "string"
        }
      ],
      "name": "verify",
      "outputs": [
        {
          "internalType": "bool",
          "name": "passed",
          "type": "bool"
        },
        {
          "internalType": "uint256",
          "name": "verificationId",
          "type": "uint256"
        }
      ],
      "stateMutability": "nonpayable",
      "type": "function"
    }
  ],
  "bytecode": "0x60c03461018e5761168b90601f38839003908101601f19168201906001600160401b03821183831017610193578083916040958694855283398101031261018e57610049816101a9565b61005660208093016101a9565b6001600160a01b039182169190821561013f57169081156100fd5760805260a0523360018060a01b03196000541617600055336000526001815281600020600160ff198254161790557f25959ad9f50e7d00f36137dcf207138e49f759a94043ecac1b21ef7f31dfe6bb8251914283523392a2516114cd90816101be823960805181818161021f01528181610e940152610ef9015260a05181818161013c01526105b50152f35b60648385519062461bcd60e51b825280600483015260248201527f56657269666965723a20696e76616c6964206c6f6767657220616464726573736044820152fd5b845162461bcd60e51b815260048101859052602260248201527f56657269666965723a20696e76616c6964207265676973747279206164647265604482015261737360f01b6064820152608490fd5b600080fd5b634e487b7160e01b600052604160045260246000fd5b51906001600160a01b038216820361018e5756fe608080604052600436101561001357600080fd5b60003560e01c9081630830e22e14611181575080631a6d1d571461116357806358937cc814610f7757806358bd784a14610ec35780637b10399914610e7e5780637deeee0114610e375780638c2f218514610db15780638da5cb5b14610d88578063944fd18014610d45578063b774353014610ccd578063b90b0a1014610c07578063c59d484714610bd0578063c8f0f3d214610b2a578063d74ee9621461016b578063f24ccbfe146101265763f2fde38b146100cf57600080fd5b34610121576020366003190112610121576004356001600160a01b038181169182900361012157610106600054918216331461137b565b6101118215156113d1565b6001600160a01b03191617600055005b600080fd5b34610121576000366003190112610121576040517f00000000000000000000000000000000000000000000000000000000000000006001600160a01b03168152602090f35b346101215760a03660031901126101215760643567ffffffffffffffff81116101215761019c90369060040161134d565b9060843567ffffffffffffffff8111610121576101bd90369060040161134d565b929033600052600160205260ff604060002054168015610b16575b15610ac65760043515610a815760243515610a3c57604435156109f85781156109b357831561096e5760405163d5b26c7f60e01b81526004803590820152936000856024817f00000000000000000000000000000000000000000000000000000000000000006001600160a01b03165afa8015610962576000956000906000926108be575b50159081156108b6575b50156108ab576000935b60025495600019871461089557600187016002556040516102918161124c565b60018801815260043560208201526024356040820152604435606082015281608082015286151560a08201526102c836878561143f565b9060c081019182526102db36868861143f565b60e0820152336101008201524261012082015260018901600052600460205260406000209181518355602082015160018401556040820151600284015560608201516003840155608082015160048401556005830160a0830151151560ff801983541691161790555180519067ffffffffffffffff82116106e75781906103656006860154611212565b601f8111610842575b50602090601f83116001146107d0576000926107c5575b50508160011b916000199060031b1c19161760068301555b60e081015180519067ffffffffffffffff82116106e7576103c16007850154611212565b601f811161077e575b50602090601f831160011461070857918060099492610120946000926106fd575b50508160011b916000199060031b1c19161760078501555b6008840160018060a01b03610100830151166bffffffffffffffffffffffff60a01b8254161790550151910155600435600052600560205260406000208054680100000000000000008110156106e757610462916001820181556111e4565b81549060031b9060018a01821b91600019901b191617905585156106d9575b6040516044358152816020820152861515604082015260a060608201526104ac60a082018587611476565b90426080820152602435917f2726e5c8448f039a33c3478cf4cc2c270f03311b4f9f21d81d0a7180a874530a600435928060018d01930390a4851561067d575b508415610675576007905b851561063a5760405161050981611269565b601c81527f48617368206d61746368656420617070726f76656420636f6e6669670000000060208201525b60405195635f7952db60e01b875260043560048801526024356024880152600c84101561062457602095879561058b6105af9561059d94899860448a015260443560648a015260e060848a015260e4890191611476565b8681036003190160a488015291611476565b8381036003190160c4850152906111bf565b038160007f00000000000000000000000000000000000000000000000000000000000000006001600160a01b03165af16105f9575b50600160409283519215158352016020820152f35b602090813d831161061d575b61060f8183611285565b8101031261012157826105e4565b503d610605565b634e487b7160e01b600052602160045260246000fd5b60405161064681611269565b601e81527f54414d5045522044455445435445443a2068617368206d69736d6174636800006020820152610534565b6008906104f7565b6040519060443582526020820152608060408201526106a0608082018486611476565b4260608301527f63d09bb81feb41955958529adc1ad8d9d276399f4b796302267a0b93cc3f79316024359280600435930390a3866104ec565b600160035401600355610481565b634e487b7160e01b600052604160045260246000fd5b015190508d806103eb565b906007850160005260206000209160005b601f1985168110610766575092600994926001926101209583601f1981161061074d575b505050811b016007850155610403565b015160001960f88460031b161c191690558d808061073d565b91926020600181928685015181550194019201610719565b600785016000526020600020601f840160051c8101602085106107be575b601f830160051c820181106107b25750506103ca565b6000815560010161079c565b508061079c565b015190508b80610385565b9250600685016000526020600020906000935b601f1984168510610827576001945083601f1981161061080e575b505050811b01600683015561039d565b015160001960f88460031b161c191690558b80806107fe565b818101518355602094850194600190930192909101906107e3565b909150600685016000526020600020601f840160051c81016020851061088e575b90849392915b601f830160051c8201811061087f57505061036e565b60008155859450600101610869565b5080610863565b634e487b7160e01b600052601160045260246000fd5b604435851493610271565b905086610267565b965050503d806000873e6108d28187611285565b608086828101031261012157855167ffffffffffffffff811161012157818701601f82890101121561012157808701519061090c82611416565b9261091a6040519485611285565b8284528801602083838b010101116101215760208061093d94019189010161119c565b602085015161095a606061095360408901611432565b9701611432565b90958761025d565b6040513d6000823e3d90fd5b60405162461bcd60e51b815260206004820152601860248201527f56657269666965723a206163746f7220726571756972656400000000000000006044820152606490fd5b60405162461bcd60e51b815260206004820152601d60248201527f56657269666965723a20636f6d6d6974486173682072657175697265640000006044820152606490fd5b606460405162461bcd60e51b815260206004820152602060248201527f56657269666965723a2063616e646964617465486173682072657175697265646044820152fd5b60405162461bcd60e51b815260206004820152601760248201527f56657269666965723a20696e76616c69642072756e49640000000000000000006044820152606490fd5b60405162461bcd60e51b815260206004820152601c60248201527f56657269666965723a20696e76616c696420706970656c696e654964000000006044820152606490fd5b60405162461bcd60e51b815260206004820152602260248201527f56657269666965723a2063616c6c6572206973206e6f7420617574686f726973604482015261195960f21b6064820152608490fd5b506000546001600160a01b031633146101d8565b34610121576020806003193601126101215760043560005260058152604060002060405190818382549182815201908192600052846000209060005b86828210610bbc578686610b7c82880383611285565b604051928392818401908285525180915260408401929160005b828110610ba557505050500390f35b835185528695509381019392810192600101610b96565b835485529093019260019283019201610b66565b3461012157600036600319011261012157600254600354908181038181116108955760609260405192835260208301526040820152f35b34610121576020366003190112610121576004356000526004602052604060002080546001820154916002810154610cbc6003830154610cae600485015460ff600587015416610c59600688016112a7565b91610c66600789016112a7565b94600960018060a01b0360088b015416990154976040519b8c9b8c5260208c015260408b015260608a01526080890152151560a08801526101408060c08901528701906111bf565b9085820360e08701526111bf565b916101008401526101208301520390f35b34610121576020366003190112610121576004356001600160a01b038181169182900361012157610d039060005416331461137b565b806000526001602052604060002060ff1981541690557fd362d30ffb2dd7b0c32dd96b9e07e094cf94c06185ed44ca80a984b4698f58b56020604051428152a2005b34610121576020366003190112610121576004356001600160a01b03811690819003610121576000526001602052602060ff604060002054166040519015158152f35b34610121576000366003190112610121576000546040516001600160a01b039091168152602090f35b34610121576020366003190112610121576004356001600160a01b038181169182900361012157610de79060005416331461137b565b610df28115156113d1565b8060005260016020526040600020600160ff198254161790557f25959ad9f50e7d00f36137dcf207138e49f759a94043ecac1b21ef7f31dfe6bb6020604051428152a2005b346101215760403660031901126101215760243560043560005260056020526040600020805482101561012157602091610e70916111e4565b90546040519160031b1c8152f35b34610121576000366003190112610121576040517f00000000000000000000000000000000000000000000000000000000000000006001600160a01b03168152602090f35b346101215760403660031901126101215760405163ec06d73b60e01b8152600480359082015260248035908201526020816044817f00000000000000000000000000000000000000000000000000000000000000006001600160a01b03165afa801561096257600090610f3e575b6020906040519015158152f35b506020813d8211610f6f575b81610f5760209383611285565b8101031261012157610f6a602091611432565b610f31565b3d9150610f4a565b34610121576020366003190112610121576004356000610120604051610f9c8161124c565b8281528260208201528260408201528260608201528260808201528260a0820152606060c0820152606060e082015282610100820152015280151580611157575b156111125760005260046020526040600020600960405191610ffe8361124c565b805483526001810154602084015260028101546040840152600381015460608401526004810154608084015260ff600582015416151560a0840152611045600682016112a7565b60c0840152611056600782016112a7565b60e084015260018060a01b03600882015416610100840152015461012082015260405180916020825280516020830152602081015160408301526040810151606083015260608101516080830152608081015160a083015260a0810151151560c083015260c08101516101206110f46110dd610140938460e08801526101608701906111bf565b60e0850151868203601f19016101008801526111bf565b6101008401516001600160a01b031685830152920151908301520390f35b60405162461bcd60e51b815260206004820152601a60248201527f56657269666965723a207265636f7264206e6f7420666f756e640000000000006044820152606490fd5b50600254811115610fdd565b34610121576000366003190112610121576020600354604051908152f35b34610121576000366003190112610121576020906002548152f35b60005b8381106111af5750506000910152565b818101518382015260200161119f565b906020916111d88151809281855285808601910161119c565b601f01601f1916010190565b80548210156111fc5760005260206000200190600090565b634e487b7160e01b600052603260045260246000fd5b90600182811c92168015611242575b602083101461122c57565b634e487b7160e01b600052602260045260246000fd5b91607f1691611221565b610140810190811067ffffffffffffffff8211176106e757604052565b6040810190811067ffffffffffffffff8211176106e757604052565b90601f8019910116810190811067ffffffffffffffff8211176106e757604052565b90604051918260008254926112bb84611212565b90818452600194858116908160001461132a57506001146112e7575b50506112e592500383611285565b565b9093915060005260209081600020936000915b8183106113125750506112e5935082010138806112d7565b855488840185015294850194879450918301916112fa565b9150506112e594506020925060ff191682840152151560051b82010138806112d7565b9181601f840112156101215782359167ffffffffffffffff8311610121576020838186019501011161012157565b1561138257565b60405162461bcd60e51b815260206004820152602160248201527f56657269666965723a2063616c6c6572206973206e6f7420746865206f776e656044820152603960f91b6064820152608490fd5b156113d857565b60405162461bcd60e51b815260206004820152601660248201527556657269666965723a207a65726f206164647265737360501b6044820152606490fd5b67ffffffffffffffff81116106e757601f01601f191660200190565b5190811515820361012157565b92919261144b82611416565b916114596040519384611285565b829481845281830111610121578281602093846000960137010152565b908060209392818452848401376000828201840152601f01601f191601019056fea26469706673582212201ebb0109f044913698fc98cde8998526dd7805d8a9d6c738a31bbba1b10140eb64736f6c63430008130033",
  "linkReferences": {},
  "deployedLinkReferences": {}
}