{
  "_format": "hh-sol-artifact-1",
  "contractName": "EventLogger",
  "sourceName": "contracts/EventLogger.sol",
  "abi": [
    {
      "inputs": [],
      "stateMutability": "nonpayable",
      "type": "constructor"
    },
    {
      "anonymous": false,
      "inputs": [
        {
          "indexed": true,
          "internalType": "uint256",
          "name": "logId",
          "type": "uint256"
        },
        {
          "indexed": true,
          "internalType": "uint256",
          "name": "pipelineId",
          "type": "uint256"
        },
        {
          "indexed": true,
          "internalType": "uint256",
          "name": "runId",
          "type": "uint256"
        },
        {
          "indexed": false,
          "internalType": "enum EventLogger.Stage",
          "name": "stage",
          "type": "uint8"
        },
        {
          "indexed": false,
          "internalType": "bytes32",
          "name": "configHash",
          "type": "bytes32"
        },
        {
          "indexed": false,
          "internalType": "string",
          "name": "commitHash",
          "type": "string"
        },
        {
          "indexed": false,
          "internalType": "string",
          "name": "actor",
          "type": "string"
        },
        {
          "indexed": false,
          "internalType": "address",
          "name": "loggedBy",
          "type": "address"
        },
        {
          "indexed": false,
          "internalType": "uint256",
          "name": "timestamp",
          "type": "uint256"
        }
      ],
      "name": "CiCdEventLogged",
      "type": "event"
    },
    {
      "anonymous": false,
      "inputs": [
        {
          "indexed": true,
          "internalType": "address",
          "name": "logger",
          "type": "address"
        },
        {
          "indexed": false,
          "internalType": "uint256",
          "name": "timestamp",
          "type": "uint256"
        }
      ],
      "name": "LoggerAuthorised",
      "type": "event"
    },
    {
      "anonymous": false,
      "inputs": [
        {
          "indexed": true,
          "internalType": "address",
          "name": "logger",
          "type": "address"
        },
        {
          "indexed": false,
          "internalType": "uint256",
          "name": "timestamp",
          "type": "uint256"
        }
      ],
      "name": "LoggerRevoked",
      "type": "event"
    },
    {
      "inputs": [
        {
          "internalType": "address",
          "name": "logger",
          "type": "address"
        }
      ],
      "name": "authoriseLogger",
      "outputs": [],
      "stateMutability": "nonpayable",
      "type": "function"
    },
    {
      "inputs": [
        {
          "internalType": "address",
          "name": "",
          "type": "address"
        }
      ],
      "name": "authorisedLoggers",
      "outputs": [
        {
          "internalType": "bool",
          "name": "",
          "type": "bool"
        }
      ],
      "stateMutability": "view",
      "type": "function"
    },
    {
      "inputs": [
        {
          "internalType": "uint256",
          "name": "logId",
          "type": "uint256"
        }
      ],
      "name": "getLogEntry",
      "outputs": [
        {
          "components": [
            {
              "internalType": "uint256",
              "name": "logId",
              "type": "uint256"
            },
            {
              "internalType": "uint256",
              "name": "pipelineId",
              "type": "uint256"
            },
            {
              "internalType": "uint256",
              "name": "runId",
              "type": "uint256"
            },
            {
              "internalType": "enum EventLogger.Stage",
              "name": "stage",
              "type": "uint8"
            },
            {
              "internalType": "bytes32",
              "name": "configHash",
              "type": "bytes32"
            },
            {
              "internalType": "string",
              "name": "commitHash",
              "type": "string"
            },
            {
              "internalType": "string",
              "name": "actor",
              "type": "string"
            },
            {
              "internalType": "string",
              "name": "notes",
              "type": "string"
            },
            {
              "internalType": "address",
              "name": "loggedBy",
              "type": "address"
            },
            {
              "internalType": "uint256",
              "name": "timestamp",
              "type": "uint256"
            }
          ],
          "internalType": "struct EventLogger.LogEntry",
          "name": "",
          "type": "tuple"
        }
      ],
      "stateMutability": "view",
      "type": "function"
    },
    {
      "inputs": [
        {
          "internalType": "uint256",
          "name": "pipelineId",
          "type": "uint256"
        }
      ],
      "name": "getLogIdsByPipeline",
      "outputs": [
        {
          "internalType": "uint256[]",
          "name": "",
          "type": "uint256[]"
        }
      ],
      "stateMutability": "view",
      "type": "function"
    },
    {
      "inputs": [
        {
          "internalType": "uint256",
          "name": "runId",
          "type": "uint256"
        }
      ],
      "name": "getLogIdsByRun",
      "outputs": [
        {
          "internalType": "uint256[]",
          "name": "",
          "type": "uint256[]"
        }
      ],
      "stateMutability": "view",
      "type": "function"
    },
    {
      "inputs": [
        {
          "internalType": "uint256",
          "name": "count",
          "type": "uint256"
        }
      ],
      "name": "getRecentLogs",
      "outputs": [
        {
          "components": [
            {
              "internalType": "uint256",
              "name": "logId",
              "type": "uint256"
            },
            {
              "internalType": "uint256",
              "name": "pipelineId",
              "type": "uint256"
            },
            {
              "internalType": "uint256",
              "name": "runId",
              "type": "uint256"
            },
            {
              "internalType": "enum EventLogger.Stage",
              "name": "stage",
              "type": "uint8"
            },
            {
              "internalType": "bytes32",
              "name": "configHash",
              "type": "bytes32"
            },
            {
              "internalType": "string",
              "name": "commitHash",
              "type": "string"
            },
            {
              "internalType": "string",
              "name": "actor",
              "type": "string"
            },
            {
              "internalType": "string",
              "name": "notes",
              "type": "string"
            },
            {
              "internalType": "address",
              "name": "loggedBy",
              "type": "address"
            },
            {
              "internalType": "uint256",
              "name": "timestamp",
              "type": "uint256"
            }
          ],
          "internalType": "struct EventLogger.LogEntry[]",
          "name": "entries",
          "type": "tuple[]"
        }
      ],
      "stateMutability": "view",
      "type": "function"
    },
    {
      "inputs": [],
      "name": "logCount",
      "outputs": [
        {
          "internalType": "uint256",
          "name": "",
          "type": "uint256"
        }
      ],
      "stateMutability": "view",
      "type": "function"
    },
    {
      "inputs": [
        {
          "internalType": "uint256",
          "name": "",
          "type": "uint256"
        }
      ],
      "name": "logEntries",
      "outputs": [
        {
          "internalType": "uint256",
          "name": "logId",
          "type": "uint256"
        },
        {
          "internalType": "uint256",
          "name": "pipelineId",
          "type": "uint256"
        },
        {
          "internalType": "uint256",
          "name": "runId",
          "type": "uint256"
        },
        {
          "internalType": "enum EventLogger.Stage",
          "name": "stage",
          "type": "uint8"
        },
        {
          "internalType": "bytes32",
          "name": "configHash",
          "type": "bytes32"
        },
        {
          "internalType": "string",
          "name": "commitHash",
          "type": "string"
        },
        {
          "internalType": "string",
          "name": "actor",
          "type": "string"
        },
        {
          "internalType": "string",
          "name": "notes",
          "type": "string"
        },
        {
          "internalType": "address",
          "name": "loggedBy",
          "type": "address"
        },
        {
          "internalType": "uint256",
          "name": "timestamp",
          "type": "uint256"
        }
      ],
      "stateMutability": "view",
      "type": "function"
    },
    {
      "inputs": [
        {
          "internalType": "uint256",
          "name": "pipelineId",
          "type": "uint256"
        },
        {
          "internalType": "uint256",
          "name": "runId",
          "type": "uint256"
        },
        {
          "internalType": "enum EventLogger.Stage",
          "name": "stage",
          "type": "uint8"
        },
        {
          "internalType": "bytes32",
          "name": "configHash",
          "type": "bytes32"
        },
        {
          "internalType": "string",
          "name": "commitHash",
          "type": "string"
        },
        {
          "internalType": "string",
          "name": "actor",
          "type": "string"
        },
        {
          "internalType": "string",
          "name": "notes",
          "type": "string"
        }
      ],
      "name": "logEvent",
      "outputs": [
        {
          "internalType": "uint256",
          "name": "logId",
          "type": "uint256"
        }
      ],
      "stateMutability": "nonpayable",
      "type": "function"
    },
    {
      "inputs": [
        {
          "internalType": "uint256",
          "name": "",
          "type": "uint256"
        },
        {
          "internalType": "uint256",
          "name": "",
          "type": "uint256"
        }
      ],
      "name": "logsByPipeline",
      "outputs": [
        {
          "internalType": "uint256",
          "name": "",
          "type": "uint256"
        }
      ],
      "stateMutability": "view",
      "type": "function"
    },
    {
      "inputs": [
        {
          "internalType": "uint256",
          "name": "",
          "type": "uint256"
        },
        {
          "internalType": "uint256",
          "name": "",
          "type": "uint256"
        }
      ],
      "name": "logsByRun",
      "outputs": [
        {
          "internalType": "uint256",
          "name": "",
          "type": "uint256"
        }
      ],
      "stateMutability": "view",
      "type": "function"
    },
    {
      "inputs": [],
      "name": "owner",
      "outputs": [
        {
          "internalType": "address",
          "name": "",
          "type": "address"
        }
      ],
      "stateMutability": "view",
      "type": "function"
    },
    {
      "inputs": [
        {
          "internalType": "address",
          "name": "logger",
          "type": "address"
        }
      ],
      "name": "revokeLogger",
      "outputs": [],
      "stateMutability": "nonpayable",
      "type": "function"
    },
    {
      "inputs": [
        {
          "internalType": "address",
          "name": "newOwner",
          "type": "address"
        }
      ],
      "name": "transferOwnership",
      "outputs": [],
      "stateMutability": "nonpayable",
      "type": "function"
    }
  ],
  "bytecode": "0x6080806040523461006c573360018060a01b031960005416176000553360005260016020526040600020600160ff198254161790554281527fbaf50f1390d6561fe8e0e2a9e307d281ad65b2747cae40e6d2df01779fe4a10960203392a260405161144e90816100728239f35b600080fdfe608080604052600436101561001357600080fd5b60003560e01c90816323d1aca014610f2457508063448078a114610e9e5780635f7952db146106f25780637d578be91461067c57806388702ee91461059a5780638da5cb5b14610571578063a3f2e86a14610532578063a503898f14610514578063a6586066146104d4578063b16b1e2d1461045c578063c0a4c49d14610419578063d16ac0de146102e2578063e52e64f9146101105763f2fde38b146100b957600080fd5b3461010b57602036600319011261010b576004356001600160a01b038181169182900361010b576100f0600054918216331461123c565b6100fb821515611294565b6001600160a01b03191617600055005b600080fd5b3461010b5760208060031936011261010b5760043590603282116102d9575b6005918254908181116102d2575b610146816113ec565b91610154604051938461104a565b818352601f19610163836113ec565b018460005b8281106102bc5750505060005b8281106101da5750505060405191808301818452825180915281604082818701971b8601019301916000955b8287106101ae5785850386f35b9091929382806101ca600193603f198a820301865288516111a3565b96019201960195929190926101a1565b808203908282116102a6576102a191600052600280875260096040600020604051926102058461102d565b8154845260018201548a850152810154604084015261022e60ff600383015416606085016112ef565b600481015460808401526102438a820161106c565b60a08401526102546006820161106c565b60c08401526102656007820161106c565b60e084015260088101546001600160a01b031661010084015201546101208201526102908287611404565b5261029b8186611404565b506112e0565b610175565b634e487b7160e01b600052601160045260246000fd5b6102c461139d565b828288010152018590610168565b508061013d565b6032915061012f565b3461010b5760208060031936011261010b576004356102ff61139d565b508015158061040d575b156103c8576000526002815260406000209060096040519261032a8461102d565b805484526001810154838501526002810154604085015261035560ff600383015416606086016112ef565b6004810154608085015261036b6005820161106c565b60a085015261037c6006820161106c565b60c085015261038d6007820161106c565b60e085015260088101546001600160a01b031661010085015201546101208301526040518181529182916103c491908301906111a3565b0390f35b60405162461bcd60e51b815260048101839052601a60248201527f4576656e744c6f676765723a206c6f67206e6f7420666f756e640000000000006044820152606490fd5b50600554811115610309565b3461010b57602036600319011261010b576004356001600160a01b0381169081900361010b576000526001602052602060ff604060002054166040519015158152f35b3461010b57602036600319011261010b576004356001600160a01b038181169182900361010b576104929060005416331461123c565b806000526001602052604060002060ff1981541690557f61ebdf7d2e34941d6e71e43be46742e3467723acb642b06a0486f1a10a16dd066020604051428152a2005b3461010b576104e23661115f565b9060005260036020526040600020805482101561010b5760209161050591611175565b90549060031b1c604051908152f35b3461010b57600036600319011261010b576020600554604051908152f35b3461010b576105403661115f565b9060005260046020526040600020805482101561010b5760209161056391611175565b90546040519160031b1c8152f35b3461010b57600036600319011261010b576000546040516001600160a01b039091168152602090f35b3461010b57602036600319011261010b57600435600052600260205260206040600020805490600181015461066b600283015461065d60ff60038601541661064f60048701546105ec6005890161106c565b906106396105fc60068b0161106c565b9461060960078c0161106c565b9760098c600860018060a01b03910154169c01549a6040519e8f9e8f908152015260408d015260608c0190611112565b60808a01526101408060a08b015289019061111f565b9087820360c089015261111f565b9085820360e087015261111f565b916101008401526101208301520390f35b3461010b5760208060031936011261010b5760043560005260048152604060002090604051908181845491828152019360005281600020916000905b8282106106db576103c4856106cf8189038261104a565b60405191829182610f8a565b8354865294850194600193840193909101906106b8565b3461010b5760e036600319011261010b576044600c8135101561010b5760843567ffffffffffffffff811161010b5761072f903690600401610fc5565b9160a43567ffffffffffffffff811161010b57610750903690600401610fc5565b60c43567ffffffffffffffff811161010b57610770903690600401610fc5565b94909533600052600160205260ff604060002054168015610e8a575b15610e2e5760043515610dea5760243515610da6578015610d62578215610d1e576107b86005546112e0565b9586600555610820604051986107cd8a61102d565b888a5260043560208b015260243560408b01526107ee883560608c016112ef565b60643560808b01526108013685876112fb565b9260a08b0193845261081436888a6112fb565b60c08c015236916112fb565b60e089015233610100890152426101208901528660005260026020526040600020908851825560208901516001830155604089015160028301556003820160608a0151600c811015610d085760ff80198354169116179055608089015160048301555180519067ffffffffffffffff8211610b525781906108a46005850154610ff3565b601f8111610cb5575b50602090601f8311600114610c4357600092610c38575b50508160011b916000199060031b1c19161760058201555b60c088015180519067ffffffffffffffff8211610b525781906109026006850154610ff3565b601f8111610be5575b50602090601f8311600114610b7357600092610b68575b50508160011b916000199060031b1c19161760068201555b60e088015197885167ffffffffffffffff8111610b525761095e6007840154610ff3565b99601f8b11610b0b575b60209a508a90601f8311600114610a8c57610a31959383610a3f9a9998969460099461012094600092610a81575b50508160011b916000199060031b1c19161760078501555b6008840160018060a01b03610100830151166bffffffffffffffffffffffff60a01b8254161790550151910155600435600052600389526109f3886040600020611342565b60243560005260048952610a0b886040600020611342565b610a19604051809835611112565b6064358988015260c0604088015260c087019161137c565b91848303606086015261137c565b3360808301524260a0830152827f128c8134fb724412cda4ff9e76fd3a5399522f7899ac65f91d7f8fde00f55e716024359380600435940390a4604051908152f35b015190508f80610996565b90600785016000528b6000209160005b601f1985168110610af457509360018460099461012094610a319a98610a3f9e9d9c9a98601f19811610610adb575b505050811b0160078501556109ae565b015160001960f88460031b161c191690558f8080610acb565b91928d600181928685015181550194019201610a9c565b600784016000526020600020601f830160051c810160208410610b4b575b601f8d0160051c82018110610b3f575050610968565b60008155600101610b29565b5080610b29565b634e487b7160e01b600052604160045260246000fd5b015190508a80610922565b9250600684016000526020600020906000935b601f1984168510610bca576001945083601f19811610610bb1575b505050811b01600682015561093a565b015160001960f88460031b161c191690558a8080610ba1565b81810151835560209485019460019093019290910190610b86565b909150600684016000526020600020601f840160051c810160208510610c31575b90849392915b601f830160051c82018110610c2257505061090b565b60008155859450600101610c0c565b5080610c06565b015190508a806108c4565b9250600584016000526020600020906000935b601f1984168510610c9a576001945083601f19811610610c81575b505050811b0160058201556108dc565b015160001960f88460031b161c191690558a8080610c71565b81810151835560209485019460019093019290910190610c56565b909150600584016000526020600020601f840160051c810160208510610d01575b90849392915b601f830160051c82018110610cf25750506108ad565b60008155859450600101610cdc565b5080610cd6565b634e487b7160e01b600052602160045260246000fd5b60405162461bcd60e51b815260206004820152601b60248201527f4576656e744c6f676765723a206163746f72207265717569726564000000000081870152606490fd5b60405162461bcd60e51b815260206004820181905260248201527f4576656e744c6f676765723a20636f6d6d69744861736820726571756972656481870152606490fd5b60405162461bcd60e51b815260206004820152601a60248201527f4576656e744c6f676765723a20696e76616c69642072756e496400000000000081870152606490fd5b60405162461bcd60e51b815260206004820152601f60248201527f4576656e744c6f676765723a20696e76616c696420706970656c696e6549640081870152606490fd5b60405162461bcd60e51b815260206004820152602f60248201527f4576656e744c6f676765723a2063616c6c6572206973206e6f7420616e206175818701526e3a3437b934b9b2b2103637b3b3b2b960891b6064820152608490fd5b506000546001600160a01b0316331461078c565b3461010b57602036600319011261010b576004356001600160a01b038181169182900361010b57610ed49060005416331461123c565b610edf811515611294565b8060005260016020526040600020600160ff198254161790557fbaf50f1390d6561fe8e0e2a9e307d281ad65b2747cae40e6d2df01779fe4a1096020604051428152a2005b3461010b576020908160031936011261010b576004356000526003825260406000209182548083528183019360005281600020916000905b828210610f73576103c4856106cf8189038261104a565b835486529485019460019384019390910190610f5c565b6020908160408183019282815285518094520193019160005b828110610fb1575050505090565b835185529381019392810192600101610fa3565b9181601f8401121561010b5782359167ffffffffffffffff831161010b576020838186019501011161010b57565b90600182811c92168015611023575b602083101461100d57565b634e487b7160e01b600052602260045260246000fd5b91607f1691611002565b610140810190811067ffffffffffffffff821117610b5257604052565b90601f8019910116810190811067ffffffffffffffff821117610b5257604052565b906040519182600082549261108084610ff3565b9081845260019485811690816000146110ef57506001146110ac575b50506110aa9250038361104a565b565b9093915060005260209081600020936000915b8183106110d75750506110aa9350820101388061109c565b855488840185015294850194879450918301916110bf565b9150506110aa94506020925060ff191682840152151560051b820101388061109c565b90600c821015610d085752565b919082519283825260005b84811061114b575050826000602080949584010152601f8019910116010190565b60208183018101518483018201520161112a565b604090600319011261010b576004359060243590565b805482101561118d5760005260206000200190600090565b634e487b7160e01b600052603260045260246000fd5b908151815260208201516020820152604082015160408201526111ce60608301516060830190611112565b6080820151608082015261121b6112096111f760a08501516101408060a087015285019061111f565b60c085015184820360c086015261111f565b60e084015183820360e085015261111f565b9161010060018060a01b038183015116908301526101208091015191015290565b1561124357565b60405162461bcd60e51b8152602060048201526024808201527f4576656e744c6f676765723a2063616c6c6572206973206e6f7420746865206f6044820152633bb732b960e11b6064820152608490fd5b1561129b57565b60405162461bcd60e51b815260206004820152601960248201527f4576656e744c6f676765723a207a65726f2061646472657373000000000000006044820152606490fd5b60001981146102a65760010190565b600c821015610d085752565b92919267ffffffffffffffff8211610b525760405191611325601f8201601f19166020018461104a565b82948184528183011161010b578281602093846000960137010152565b805468010000000000000000811015610b525761136491600182018155611175565b819291549060031b91821b91600019901b1916179055565b908060209392818452848401376000828201840152601f01601f1916010190565b604051906113aa8261102d565b81610120600091828152826020820152826040820152826060820152826080820152606060a0820152606060c0820152606060e0820152826101008201520152565b67ffffffffffffffff8111610b525760051b60200190565b805182101561118d5760209160051b01019056fea26469706673582212201297e97b9a86972b1e92faa8d91dd3d08afd0e6650ea23c4c6d647114addce6c64736f6c63430008130033",
  "linkReferences": {},
  "deployedLinkReferences": {}
}